:100000000C9487040C94DC060C94CE040C94CE045F
:100010000C94CE040C94CE040C94CE040C94CE0418
:100020000C94CE040C94CE040C9482210C94542293
:100030000C942D180C94CE040C94CE040C94CE0485
:100040000C94CE040C94CE040C94CE040C94CE04E8
:100050000C94CE040C9495180C94CE040C94CE04FD
:100060000C94CE040C94CE040C94CE040C94CE04C8
:100070000C94CE040C94CE040C94CE040C94CE04B8
:100080000C94CE040C94CE040C94CE040C94CE04A8
:100090000C94CE040C94CE040C94CE040C94CE0498
:1000A0000C94CE040C94CE040C94CE04AB08AD0892
:1000B000B808AF08B108B308B508B708BA08BC0853
:1000C000BE08C908C008C208C408C608C808CB08CA
:1000D0002F0F2F0F690F690FA80FC80F3B113B118E
:1000E0000A103B11BA10BA102D113B113B113511FA
:1000F000C710C710C710C710C710C710C710C71048
:10010000C710C710C710C710C710C710C710C71037
:10011000D910E710EE10F510FF10CE11CE11E0113E
:10012000E011D711E011E011E011CE11CE11DC1178
:10013000E011E011DC11C122E822DA23E822DA23FF
:1001400034235723DA23AD23BC232B0014001A00D9
:100150000800150017002900040016000700090018
:100160000A00E1001D001B00060019000500D35C19
:10017000E000E200E300D15C2C002A001300120032
:100180000C0018001C00340033000F000E000D009E
:100190000B002800380037003600100011004F0017
:1001A000520051005000D25C2C002B0014001A00A9
:1001B000090013000A0029000400150016001700AA
:1001C0000700E1001D001B00060019000500D35CBC
:1001D000E000E200E300D15C2C002A0033001C00A8
:1001E00018000F000D00340012000C000800110070
:1001F0000B00280038003700360010000E004F00BA
:10020000520051005000D25C2C002B00340036000C
:10021000370013001C002900040012000800180019
:100220000C00E100330014000D000E001B00D35C35
:10023000E000E200E300D15C2C002A000F00150072
:1002400006000A00090038001600110017000B0014
:10025000070028001D0019001A00100005004F00BB
:10026000520051005000D25C2C0035021E021F02C9
:100270002002210222024C003A003B003C003D00DB
:100280003E000100400041004200430044000100E4
:10029000010001000100010001002A0027022602DE
:1002A000250224022302310230022F022E022D02E7
:1002B0003F00010001000100640232024500AE006F
:1002C000A900AA00AB000100010035001E001F00BC
:1002D0002000210022004C003A003B003C003D0081
:1002E0003E00010040004100420043004400010084
:1002F000010001000100010001002A002700260082
:10030000250024002300310030002F002E002D0096
:100310003F00010001000100640032004500AE0012
:10032000A900AA00AB0001000100000000000000CD
:1003300000000000000000000000000000000000BD
:1003400000000000000000000000000000000000AD
:10035000000000000000000000000000000000009D
:10036000000000000000000000000000000000008D
:10074000000000000000000000000100005C01004B
:10075000010001000100010001000100175C185CAC
:10076000135C010001000100010001000100010013
:10077000010001000100010001004C000100010026
:1007800001000100010001000100D05CCF5CCE5CE3
:100790000A5C0100010001000100010001000100EC
:1007A000010001000100010001001C034C00650074
:1007B000740073002000530070006C006900740026
:1007C0002000760032000000160357006F006F0013
:1007D00074007000610074006F006F00740000000E
:1007E0000403090409025400030100A0FA090400EB
:1007F000000103010100092111010001224000074D
:1008000005810308000A090401000103010200092F
:100810002111010001224D000705820308000A0989
:100820000402000103000000092111010001223629
:10083000000705830308000A1201100100000008E8
:10084000EDFE603001000102000105010980A101F7
:1008500085021601002603001A81002A8300751004
:1008600095018100C0050C0901A101850316010055
:10087000269C021A01002A9C02751095018100C075
:1008800005010902A1010901A100050919012905B4
:1008900015002501950575018102950175038101FA
:1008A0000501093009311581257F950275088106FA
:1008B00009381581257F950175088106050C0A38D0
:1008C000021581257F950175088106C0C0050109C3
:1008D00006A101050719E029E7150025019508750E
:1008E0000181029501750881010508190129059505
:1008F00005750191029501750391010507190029FC
:10090000FF150026FF00950675088100C000112420
:100910001FBECFEFDAE0DEBFCDBF04B603FE27C0B7
:100920008091F4019091F501A091F601B091F70149
:100930008730904BA740B04BD1F41092F401109245
:10094000F5011092F6011092F70114BE84B7877F6B
:1009500084BF0FB6F894A895809160008861809359
:100960006000109260000FBEE0E0F8E3099511E02E
:10097000A0E0B1E0E6EEF8E402C005900D92AC33E1
:10098000B107D9F711E0ACE3B1E001C01D92A43F7B
:10099000B107E1F70E94B11E0C9471240C94000081
:1009A000089508950C94D1048091C70183608860F4
:1009B0008093C701AAE1B1E041E050E024E02A0FB2
:1009C0008D91E82FE295EF70F0E031A18F70BA01C0
:1009D00002C0660F771F8A95E2F7CB01962F90959C
:1009E000932391A392A1892B82A32A13E9CFA4E197
:1009F000B1E041E050E026E02A0F8D91E82FE2952A
:100A0000EF70F0E031A18F70BA0102C0660F771F5E
:100A10008A95E2F7CB01962F9095932391A392A10B
:100A2000892B82A32A13E9CF559A209AA5E4B1E035
:100A3000ECE3F1E088E08E0F11921D928E13FCCF53
:100A40000C9498092F923F924F925F926F927F92EF
:100A50008F929F92AF92BF92CF92DF92EF92FF92CE
:100A60000F931F93CF93DF9300D000D0CDB7DEB7A5
:100A700080910001811103C004E010E002C000E099
:100A800010E098012B5B3E4F69013C832B838AE188
:100A9000E82E81E0F82EAA24A394B12C8824839414
:100AA00024E0922E34E0732E7E0C6B817C81DB017E
:100AB0005C901C92F70181917F01E82FE295EF7025
:100AC000F0E021A18F70A50102C0440F551F8A9547
:100AD000E2F7CA01242B21A322A1642E60942621CF
:100AE00022A350EA5A95F1F7A4E1B1E0BA83A983B1
:100AF00020E030E0A981BA813D90BA83A983432DDB
:100B000042954F7050E0DA0190962C90AB81BC81F9
:100B10004C90432D4F70D50102C0AA0FBB1F4A95C0
:100B2000E2F7AD01422139F44A2D022E01C0440FF3
:100B30000A94EAF701C040E04429AB81BC814C93A0
:100B40002F5F3F4F26303105A9F691A1692261A29E
:100B500092A1892B82A31196BC83AB83FB01808178
:100B6000581659F080924D010E945F1890934F01E2
:100B700080934E018BB189258BB97E1096CF8091E1
:100B80004D018823A9F080914E0190914F010E9460
:100B90006B18069768F0F801E45CFE4F80E0D60120
:100BA0009D916D0191938F5F8430C9F710924D0133
:100BB00081E00F900F900F900F90DF91CF911F91D8
:100BC0000F91FF90EF90DF90CF90BF90AF909F90EC
:100BD0008F907F906F905F904F903F902F900895EF
:100BE000CF93DF9380910001811103C0C0E0D0E07A
:100BF00002C0C4E0D0E00E944F07009779F4C45CC3
:100C0000DE4F20E030E0F901EE5AFE4F408149937B
:100C10002F5F3F4F24303105B1F702C081E090E0F3
:100C2000DF91CF910895CF930E942205C82F0E9493
:100C3000F005892BC1F05D98909144019F5F9093DE
:100C40004401963098F080910001811103C0E0E0EA
:100C5000F0E002C0E4E0F0E0E45CFE4F10821182BC
:100C60001282138203C05D9A109244010E949A0975
:100C70008C2FCF9108950E9422058091000181114F
:100C800003C0E4E0F0E002C0E0E0F0E0E45CFE4F2E
:100C900080E090E02191DC01AE5ABE4F2C9301968A
:100CA00084309105B9F70895E82FF0E0E45CFE4F39
:100CB000808108950895E8EDF0E08081806180836F
:100CC0008AE18A95F1F700C08091D900817008957A
:100CD0000E945B06809300010E945B06882319F046
:100CE0000E94CF0604C00E9456180E94D306789432
:100CF00008950E94D4040E943B06FDCF0E9468061E
:100D00000E945B06811102C00E9479060895509AE4
:100D100008955098589A0895589A08950E94870601
:100D2000589880E88A95F1F70C948C060E94890601
:100D3000489BFECF80E88A95F1F708950E948906C6
:100D400098E080E029B12170880F822B20E82A9555
:100D5000F1F725E02A95F1F70000915099F70895F1
:100D60000F931F93CF93082F0E948706C8E010E0CF
:100D7000C15088F0C8010C2E02C0959587950A9441
:100D8000E2F780FF03C00E948C0601C0589880E8FB
:100D90008A95F1F7EDCFCF911F910F9108950E94A1
:100DA00087060C948C060E948906E89AE9E6F0E032
:100DB00080818C7F808308951F920F920FB60F92CF
:100DC0001124CF92DF92EF92FF921F932F933F93C4
:100DD0004F935F936F937F938F939F93AF93BF9343
:100DE000EF93FF93CF93DF931F92CDB7DEB70E94AF
:100DF0008E06C12CD12C10E0C6018E5A9E4F7C016C
:100E0000FC0180810E94B0060E948E06F70180815D
:100E1000180FFFEFCF1ADF0A84E0C816D10461F77C
:100E2000812F0E94B0060E948E0690E89A95F1F7F5
:100E3000E0E4EA95F1F70E949E06809351010E943A
:100E40008E06109151010E949E0689830E948E0693
:100E50000E9489068981181721F0809150018160D4
:100E600003C0809150018E7F809350010F90DF91DD
:100E7000CF91FF91EF91BF91AF919F918F917F9112
:100E80006F915F914F913F912F911F91FF90EF9044
:100E9000DF90CF900F900FBE0F901F901895CF92BC
:100EA000DF92EF92FF921F93CF93DF931F92CDB704
:100EB000DEB7F8940E948706589825E02A95F1F746
:100EC00000000E9489060E948C0630E83A95F1F7EE
:100ED000489934C00E949606C12CD12C10E00E9483
:100EE0009E06F601EE5AFE4F7F0180830E94960611
:100EF000F7018081180FFFEFCF1ADF0A24E0C21636
:100F0000D10469F70E949E0689830E949606898112
:100F1000181314C0809151010E94B0060E949606D9
:100F2000809151010E94B0060E9496060E94870699
:100F30000E948C06789480E090E003C0789481E071
:100F400090E00F90DF91CF911F91FF90EF90DF9095
:100F5000CF900895CF93DF93EC010E949817BE01C4
:100F600080E090E0DF91CF910C948315CF93FB014B
:100F7000803D2CE5920701F140F48E3C2CE5920770
:100F800069F08F3C9C4581F03FC0823D2CE5920783
:100F9000E1F0C0F0833D9C4561F136C0C281CC23B5
:100FA000A1F181E090E005C0C281CC2371F182E023
:100FB00090E00E94AA0723C0C281CC2331F184E0D3
:100FC00090E0F7CFC28183E002C0C28184E0CC23ED
:100FD00041F00E94E21540E164E083E00E9458097C
:100FE0000EC00E94031640E164E083E00E945809AD
:100FF0000CC0C28180E1CC2321F00E94E215C0E048
:1010000004C00E94031601C0C1E08C2FCF91089547
:1010100081E008950C94B6070E94BC112FEF84E381
:101020009CE0215080409040E1F700C0000087E73D
:1010300097E790930108809300080C94BB180F93D6
:101040001F93CF93DF938C01FC01C081D181CE012E
:101050000E948016BE010E94A509EC01B8010E9401
:101060000A08882309F41EC1B801CE010E94120C9F
:10107000882309F417C1C531FCE5DF0791F50E940B
:101080003217282FF801828140910101509102010D
:10109000882379F02A7A91E009F490E09093560140
:1010A000911102C069E201C065E3CA010E94D9172B
:1010B0000AC080915601811102C069E201C065E356
:1010C000CA010E94DB170E94FF1681E080935B013A
:1010D00080935C01C801DF91CF911F910F910C9417
:1010E0000808C6318CE5D80708F071C0C130ECE5BE
:1010F000DE0759F4F8018281882309F4D3C0809176
:10110000C70181608093C701CDC0C230FCE5DF0715
:1011100008F451C0F80182818823E1F20E9485170A
:10112000811102C00E946B170E949D1790E090935E
:10113000E6018093E501FE01E350FC45E231F10553
:1011400030F4EA5AFF4F8091E5010C9422248091FB
:10115000E501816027C0826025C0846023C0806172
:1011600021C080621FC080641DC080681BC0846075
:10117000886018C08E7F16C08D7F14C08B7F12C010
:101180008F7E10C08F7D0EC08F7B0CC08F770AC002
:101190008B7F877F07C087FB222720F991E092276A
:1011A00090FB87F98093E5018091E5010E94A117EA
:1011B0000E94BC1177C0C115DC4509F086CFF8014B
:1011C0008281882309F46EC00E940C086BC0C93C60
:1011D000ECE5DE0739F5F8018281882361F0109291
:1011E0005C010E945F1890935A018093590180E23C
:1011F0000E94E20E57C080915C0181110FC0809166
:10120000590190915A010E946B18883C910530F465
:1012100087E20E948F0D87E20E94830E80E20E9487
:10122000E90E40C0CA3CFCE5DF0738F5C83CDC45A8
:1012300009F04BCFF8018281882351F010925B01B5
:101240000E945F18909358018093570182E0D0CF9D
:1012500080915B0181110FC08091570190915801DD
:101260000E946B18883C910530F486E20E948F0D35
:1012700086E20E94830E82E0D2CFCC3CECE5DE0712
:1012800031F4F8018281882369F080E009C0CD3C07
:10129000DC4509F01ACFF8018281882319F082E039
:1012A0000E94451F80E0DF91CF911F910F9108951B
:1012B000CF92DF92EF92FF920F931F9301E010E025
:1012C00020E030E06801790104C0CC0CDD1CEE1C8C
:1012D000FF1C8A95D2F704C0000F111F221F331F75
:1012E0006A95D2F70C291D292E293F29C090B201F9
:1012F000D090B301E090B401F090B501C022D122AA
:10130000E222F322842FC016D106E206F30641F44E
:101310001F910F91FF90EF90DF90CF900C94E2150A
:101320001F910F91FF90EF90DF90CF900C940316D8
:101330000C94610C0C94D20408950C949C090C94A8
:101340009D0980E090E00895089596E0799FF0016E
:10135000112490E3899FE00DF11D1124E60FF11D8A
:10136000EE0FFF1FE65BFE4F859194910895880F65
:10137000991FFC01E655F84F859194910895CF93FC
:10138000DF9326E0729FF001112440E3849FE00D7B
:10139000F11D1124E60FF11DEE0FFF1FE65BFE4F5E
:1013A000859194910E94680BEC01811550E495079A
:1013B000B8F5811560E3960708F0E3C0803E91051B
:1013C000D0F4803C910508F071C0883A910570F422
:1013D000853A910508F06DC08130910509F474C11A
:1013E00008F42BC1049708F06FC127C18D3B91050C
:1013F00008F46AC022C18F3F910509F048F4803F8C
:10140000910508F0B8C0883E910508F45DC115C18A
:10141000C11580E2D80708F457C1CE019F70ADC056
:10142000C11594E5D907D8F4C11523E5D20708F012
:10143000E3C0C11541E5D40740F4C11550E5D50717
:1014400008F0A8C0DF70D06A3FC1C11562E5D607B9
:1014500008F0BCC0DC2FCC27C16FD06A35C1C115E4
:1014600086E5D80750F4C11595E5D90708F0DAC02C
:10147000DC2FCC27C46FD06A27C1C11528E5D2075D
:1014800008F4DBC0C11549E5D40708F4D1C0CE018A
:1014900090568115904208F0D0C08D2F8F710E9418
:1014A000E50BDD27D0628F71D82B0EC1805C9109CE
:1014B00064C0853A910509F4C3C0863A910509F0E4
:1014C000C2C0C2E8D0E400C1883A910509F4BEC0A8
:1014D000893A910509F4BDC08A3A910509F4BCC066
:1014E0008B3A910509F4BBC08C3A910509F4BAC056
:1014F0008B3B910509F4B9C08C3B910509F4B8C048
:101500008D3A910509F4B7C0803B910509F4B6C046
:101510008E3A910509F4B5C08F3A910509F4B4C02B
:10152000813B910509F4B3C0823B910509F4B2C037
:10153000833B910509F4B1C0843B910509F4B0C027
:10154000853B910509F4AFC0863B910509F4AEC017
:10155000873B910509F4ADC0883B910509F4ACC007
:10156000893B910509F4ABC08A3B910509F4AAC0F7
:10157000C0E0D4E4A9C0D065A7C00E94B709EC01BF
:10158000A3C09927D3FF03C0EC01D86C9DC0EC0128
:10159000D06C9AC02C2F237081E090E002C0880F9D
:1015A000991F2A95E2F79C689E0144E0369527959D
:1015B0004A95E1F72370922BCF70C695C69560E2ED
:1015C000C69FE0011124C82BD92B7EC02C2F269555
:1015D000269580E2289F90011124C370DD2781E0C9
:1015E00090E0AC0102C0440F551FCA95E2F7EA0132
:1015F000C22BD32BDC6868C02C2F2695269580E261
:10160000289F90011124C370DD2781E090E0AC0198
:1016100002C0440F551FCA95E2F7EA01C22BD32B33
:10162000DA6852C0CF71DD27DC2FCC27D0624CC0E6
:10163000DC2FCC27C06FD06A47C0C0E0D0E044C0E8
:10164000C1E8D0E441C0C3E8D0E43EC0C2EED4E477
:101650003BC0C9EED4E438C0CAEED4E435C0C5EB13
:10166000D4E432C0C6EBD4E42FC0C3EBD4E42CC026
:10167000C4EBD4E429C0C7EBD4E426C0CCECD4E45A
:1016800023C0CDECD4E420C0C3E8D5E41DC0CAE833
:10169000D5E41AC0C2E9D5E417C0C4E9D5E414C042
:1016A000C1E2D6E411C0C3E2D6E40EC0C4E2D6E47F
:1016B0000BC0C5E2D6E408C0C6E2D6E405C0C7E266
:1016C000D6E402C0CAE2D6E4CE01DF91CF910895FC
:1016D0008238910549F1B0F48133910509F458C07D
:1016E00048F48932910509F44EC08A32910509F413
:1016F00054C008958533910509F440C0893391059C
:1017000099F00895833E910529F138F4803E9105C2
:1017100091F0823E9105A1F00895863E9105F9F081
:10172000873E910531F108952091E50120FD3AC0F1
:1017300021FD38C008958091E50180FD35C032C09B
:101740008091E50182FF32C08091E50184FD30C0C7
:1017500083EE39C08091E50182FD28C0F5CF8091EC
:10176000E50183FF27C08091E50184FD21C087EE5C
:101770002AC08091E50183FD1DC0F5CF8091E50170
:1017800085FD1AC01BC08091E50185FD17C014C0FE
:101790008091E50186FD14C015C08091E50186FDAC
:1017A00011C00EC080EE0FC089E30DC082EE0BC0E9
:1017B00080E009C086EE07C089E205C085E303C06A
:1017C0008AE201C081E390E00895CF93C82F0E9480
:1017D0009D1790E09093E6018093E50182FF0DC094
:1017E0009C2F9871983019F4C77FC46006C09C2F55
:1017F0009471943011F4CB7FC86083FF0DC09C2F8F
:101800009871983119F4C77EC46106C09C2F9471F9
:10181000943111F4CB7EC86184FDC77E8C2FCF91AB
:10182000089508950F931F93CF93FB0122812111F7
:1018300002C0C1E041C08C01C0916A01C11125C044
:1018400086319C45B1F70E94110C81E080936A01BA
:101850000E945F18909369018093680110925D0166
:1018600010925F0110925E0110926101109260016E
:10187000109263011092620110926501109264014E
:10188000109267011092660117C0809168019091D3
:1018900069010E946B18883C910558F690915D0192
:1018A000E92FF0E0EE0FFF1FE25AFE4F1183008395
:1018B0009F5F90935D01C0E08C2FCF911F910F919E
:1018C00008950C94D0049093700180936F01089553
:1018D000E0916F01F0917001309721F00190F0815B
:1018E000E02D099480E00895E0916F01F09170017E
:1018F000309721F00280F381E02D09940895E09162
:101900006F01F0917001309721F00480F581E02D96
:101910000994089520916D0130916E01821793070B
:1019200071F090936E0180936D01E0916F01F091E1
:101930007001309721F00680F781E02D0994089519
:1019400020916B0130916C018217930771F0909395
:101950006C0180936B01E0916F01F0917001309701
:1019600021F00084F185E02D099408950C947E0601
:101970000E9456180E94D4040C94CC18CF92DF9287
:10198000EF92FF920F931F93CF93DF93CDB7DEB704
:101990002B970FB6F894DEBF0FBECDBF0E94130683
:1019A00082E7C82E81E0D82E00E010E0E02E802FE4
:1019B0000E945406F60141916F01F42EF826B1F40D
:1019C0000F5F1F4F0830110589F78FEF89838A83D6
:1019D0001B820E945F188160782F9D838C834981D0
:1019E0005A816B818D810E94610D40C09091C70129
:1019F00091FF04C08B870E945A068B8520E030E05F
:101A00004F2D50E0922FBA01022E02C075956795B6
:101A10000A94E2F760FF24C02E83EF8221E030E0D9
:101A2000690102C0CC0CDD1C9A95E2F790E08C2194
:101A30009D21892B09F420E028870E945F1881608E
:101A4000782F9A8789874E815F8168858A850E9471
:101A5000610DF801EE58FE4F8081C826C08206C095
:101A60002F5F3F4F2630310569F6AACF0E945F1ADB
:101A7000109171010E94680C1817A1F00E94680C67
:101A8000809371012B960FB6F894DEBF0FBECDBFC9
:101A9000DF91CF911F910F91FF90EF90DF90CF904A
:101AA0000C949F092B960FB6F894DEBF0FBECDBFE6
:101AB000DF91CF911F910F91FF90EF90DF90CF902A
:101AC0000895CF93DF93CDB7DEB72B970FB6F89479
:101AD000DEBF0FBECDBF4F83588769877A878B875C
:101AE000DE01119686E0FD0111928A95E9F785E005
:101AF000FE01379601900D928A95E1F749815A814E
:101B00006B817C818D819E810E9454142B960FB62F
:101B1000F894DEBF0FBECDBFDF91CF910895CF9374
:101B2000DF931F92CDB7DEB7882309F4E8C0682F92
:101B3000823879F40E94680C81FDE1C069E38091EC
:101B40000101909102010E94D9170E94FF1669E3DA
:101B500010C08338C9F40E94680C80FDD0C063E5D2
:101B600080910101909102010E94D9170E94FF16F5
:101B700063E580910101909102010E94DB170F90B3
:101B8000DF91CF910C94FF16843879F40E94680C91
:101B900082FDB5C067E480910101909102010E942D
:101BA000D9170E94FF1667E4E4CF8CEF860F813AC5
:101BB00070F4862F69830E94751C698181119FC012
:101BC00080910101909102010E94D917D8CF80E243
:101BD000860F883048F4677081E001C0880F6A95ED
:101BE000EAF70E943517CBCF8BE5860F833088F458
:101BF000653A29F0663A31F083E890E005C081E863
:101C000090E002C082E890E00F90DF91CF910C94B9
:101C10008A0C88E5860F853108F071C0683A61F159
:101C2000693A69F16A3A71F16B3A79F16C3A81F18A
:101C30006B3B89F16C3B91F16D3A99F1603BA1F1FD
:101C40006E3AA9F16F3AB1F1613BB9F1623BC1F172
:101C5000633BC9F1643BD1F1653BD9F1663BE1F1EE
:101C6000673BE9F1683BF1F1693BF9F16A3B09F443
:101C70003FC080E090E03EC082EE90E03BC089EE45
:101C800090E038C08AEE90E035C085EB90E032C03D
:101C900086EB90E02FC083EB90E02CC084EB90E0CB
:101CA00029C087EB90E026C08CEC90E023C08DEC3F
:101CB00090E020C083E891E01DC08AE891E01AC05E
:101CC00082E991E017C084E991E014C081E292E0DA
:101CD00011C083E292E00EC084E292E00BC085E284
:101CE00092E008C086E292E005C087E292E002C07E
:101CF0008AE292E00F90DF91CF910C94A00C0F90AC
:101D0000DF91CF910895882309F45BC0682F823852
:101D100079F40E94680C81FF54C069E3809101014D
:101D2000909102010E94D9170E94FF1669E310C02A
:101D30008338B1F40E94680C80FF43C063E5809152
:101D40000101909102010E94D9170E94FF1663E5DC
:101D500080910101909102010E94DB170C94FF1603
:101D6000843879F40E94680C82FF2BC067E480916C
:101D70000101909102010E94D9170E94FF1667E4A9
:101D8000E7CF8CEF860F813A18F380E2860F883018
:101D900048F4677081E001C0880F6A95EAF70E94F5
:101DA0003B17DCCF8BE5860F833020F480E090E09A
:101DB0000C948A0C685A653120F480E090E00C9411
:101DC000A00C0895882321F00E9435170C94FF166B
:101DD0000895882321F00E943B170C94FF16089564
:101DE0004F925F926F927F92AF92BF92CF92DF92AB
:101DF000EF92FF920F931F93CF93DF931F92CDB774
:101E0000DEB77C01A72EFC01058102950F701281BF
:101E1000112321F069830E945217698169830E940E
:101E2000F8166981882381F0112371F080E2860F12
:101E3000883050F082E00E94E1160E94F81691E08E
:101E4000B82EB926698101C0B12CCA2CC2948FE08A
:101E5000C822D12CF601E859FF4F0C9422248A2D78
:101E6000807F0A2D0F70882311F00295007F1123C7
:101E7000C1F0002309F4DCC180E2860F883010F045
:101E8000611105C0802F69830E94351704C0802F1F
:101E900069830E944517698169830E94FF166981E1
:101EA000C7C1862F69830E94830E6981002309F4CC
:101EB000E2C180E2860F883010F0611104C0802FEB
:101EC0000E943B1703C0802F0E944B170E94FF16F1
:101ED000D2C18A2D807F9A2D9F70803211F4892F74
:101EE00003C0892F8295807F662319F06130B1F09D
:101EF0001FC0112349F0002309F452C1013009F039
:101F00004FC10E946517B7C1002319F0013009F4D1
:101F1000B2C189830E946817898148C1112321F0C9
:101F2000063008F0A8C13CC1053008F0A4C13EC18C
:101F3000112351F0002309F433C1F701958190FF7B
:101F400077C19F7095832CC1002309F42FC181C1F3
:101F50008A2D86958695837090E0009719F00197F9
:101F600061F089C1112321F0862F9A2D937002C050
:101F700080E090E00E948A0C8EC1112321F0862F10
:101F80009A2D937002C080E090E00E94A00C83C163
:101F90001123F9F0653F51F0663F71F0643FA9F4F9
:101FA0008091DF019091E00181600BC08091DF01A1
:101FB0009091E001826005C08091DF019091E00185
:101FC00084609093E0018093DF01862F0E9467195F
:101FD0001EC0653F51F0663F71F0643FA9F48091E7
:101FE000DF019091E0018E7F0BC08091DF01909125
:101FF000E0018D7F05C08091DF019091E0018B7F32
:102000009093E0018093DF01862F0E94CF190E94F8
:10201000541A41C18A2D837009F052C0111137C181
:10202000862F829586958770880F880F962F9F70D0
:10203000492E512C612C712C082E04C0440C551CC7
:10204000661C771C0A94D2F764FF14C00FE010E0FE
:1020500020E030E0B901A80104C0440F551F661FFD
:10206000771F8A95D2F7CB01BA016095709580955C
:10207000909503C060E070E0CB012A2D269526954F
:10208000237030E02230310569F02330310589F0CA
:1020900064297529862997292130310571F00E941C
:1020A0009715F5C064297529862997290E94A915D5
:1020B000EEC00E949715C301B2010E948515E7C0CA
:1020C000112319F08A2D817001C08695882309F4A7
:1020D000DEC0862F829586958770880F880F962F91
:1020E0009F70492E512C612C712C082E04C0440C79
:1020F000551C661C771C0A94D2F764FF14C00FE0CD
:1021000010E020E030E0B901A80104C0440F551FE1
:10211000661F771F8A95D2F7CB01BA01609570953B
:102120008095909503C060E070E0CB012A2D269544
:1021300026952370422F50E04230510569F043301C
:10214000510589F06429752986299729413051055F
:1021500071F00E945B169BC0642975298629972916
:102160000E946D1694C00E945B16C301B2010E94CA
:1021700049168DC0862F90E0FC01E05EF109E53143
:10218000F10508F051C0E858FF4F0C942224062FA7
:102190000F708A2D8F71112331F00E94E215802F6C
:1021A0000E94E20E68C00E940316802F0E94E90E72
:1021B00062C0112341F0053008F05DC08A2D8F7197
:1021C0000E94281658C0063008F055C0F7CF1123DA
:1021D00039F08A2D8F710E94E2154DC01123C9F389
:1021E0008A2D8F710E94031646C0112329F08A2D73
:1021F0008F710E94CD153FC00E94C8153CC01123AD
:1022000051F01A2D1F71812F0E94E21563E0812F7A
:102210000E94D81630C081E00E94E116023058F1C9
:1022200082E00E94E11627C0112331F0002389F2D9
:10223000862F0E948F0D1FC0002391F2693349F44D
:102240005FEF77EE83E0515070408040E1F700C0CF
:102250000000862F0E94830E0EC04A2D4F70C701CA
:102260000E94A1090E94F81416C04A2D4F70C701A0
:102270000E94A40910C098E0C916D10441F05CF096
:10228000FAE0CF1AD10822E0C216D10420F40E944D
:10229000680C0E949F09BB2001F10E94D41680FDAA
:1022A0001CC0F70112820E94CE160E94E215C701DF
:1022B0000E947D110E94CE160F90DF91CF911F9149
:1022C0000F91FF90EF90DF90CF90BF90AF907F90F5
:1022D0006F905F904F900C9403160F90DF91CF9109
:1022E0001F910F91FF90EF90DF90CF90BF90AF9034
:1022F0007F906F905F904F9008950F931F93CF93AF
:10230000DF93EC01888199812B813C81232BB9F0EB
:102310009F3F11F48F3F99F0CE010E941F08882340
:1023200071F0688179818A810E94CA168C010E94AD
:102330007F160E948215B801CE010E94F00EDF9137
:10234000CF911F910F9108950E9452170E9462171A
:1023500080910101909102010E94DD170E94FF16F9
:102360000E94ED1A0E94541A80E090E00E948A0CAC
:1023700080E090E00C94A00C0E9442170C94A411F1
:102380000E94BF16E92FE295EF70F0E03297EE3031
:10239000F105B0F4E357FF4F0C942224803F91F0F5
:1023A00018F4803E68F40EC0843F51F40BC0803EA8
:1023B00048F0813F29F406C093FB882780F90895EF
:1023C00080E0089581E00895CF93DF9300D000D09E
:1023D0001F92CDB7DEB70F900F900F900F900F9018
:1023E000DF91CF910895CF93DF9300D000D000D03C
:1023F000CDB7DEB726960FB6F894DEBF0FBECDBFC1
:10240000DF91CF9108951F93CF93DF93C0917A010D
:1024100016E080917B01C81799F0D0E01C9FF00175
:102420001D9FF00D1124E458FE4F408151816281BF
:102430007381848195810E94F3112196C770E9CF41
:10244000DF91CF911F9108954091AC015091AD0162
:102450006091AE017091AF018091B0019091B10196
:102460000C94F3118091B10182958F7009F054C0E2
:102470008091AE01882309F44FC080917A01A09128
:102480007B016091AC017091AD014091AF01509121
:10249000B001B6E08A1709F43FC090E0411551053C
:1024A000C1F17F3F11F46F3FA1F1B89FF001B99FD7
:1024B000F00D1124E458FE4F218172132AC02081AF
:1024C000621327C02281211124C023813481241763
:1024D000350710F421503109241B350B283C3105F8
:1024E000C0F42091B1012F7020612093B10126E04A
:1024F000289FF001299FF00D1124EF57FE4F808196
:102500008F70806180838CEA91E00E947D110C9431
:10251000031201968770BECF0895CF92DF92EF929B
:10252000FF920F931F93CF93DF93CDB7DEB76297E0
:102530000FB6F894DEBF0FBECDBF8C0185E0F80169
:10254000DE011D9601900D928A95E1F7D8014C911C
:1025500011965C91119712966C9112971396CD90EB
:10256000DC9014973091AC017091AD018091AF0176
:102570009091B001009709F46BC17F3F19F43F3F80
:1025800009F466C1E090AE01EE2009F4C0C02091CC
:10259000B101C816D90628F0F601E81BF90BCF01E6
:1025A00004C0809590958C0D9D1DFF24F394883C6C
:1025B000910578F0F12C207F09F0C6C07C2DD98AD6
:1025C000C88A89890E94E4118CEA91E00E947D11F9
:1025D000B1C0822F807F09F046C0751314C0341338
:1025E00012C0611110C02F7020612093B1010E94B0
:1025F00024128CEA91E00E947D118091B101D801F2
:1026000015968C932EC0CD2819F15F3F11F44F3FE2
:10261000F9F0F62E61111CC080917A0120917B01A6
:1026200036E0821709F45AC090E0389FF001399FD4
:10263000F00D1124E458FE4F7181571306C07081CC
:10264000471303C07281711103C001968770E9CFEF
:10265000F62E662309F418C18091B1018160809340
:10266000B101F12C11C1751308C0341306C06111FA
:1026700004C08091B101D801C3C04D875E878D85AC
:102680009E856A8B0E94C0116A898823E1F16623C6
:10269000D1F12091B101822F82958F7090E0029745
:1026A00074F08091AC019091AD0198878F83198669
:1026B000DB86CA862C87CE0107960E947D1186E0B4
:1026C000F801ACEAB1E001900D928A95E1F70E9421
:1026D00032120E942412FF24F394D6C04D875E87E5
:1026E0008D859E850E94BF16292F22952F7030E080
:1026F000223031050CF0BCC09F7009F0B6C0805E7E
:10270000883008F4C1C0C8010E947D11E4CFC8160A
:10271000D90608F453C0F601E81BF90BCF01883C39
:10272000910508F450C0F12C7C2DD98AC88A89897A
:102730000E94E411ECEAF1E086E0DF011D928A9547
:10274000E9F70E942412A0C0751314C0341312C0FC
:10275000611110C08091B101F8018583C8010E9408
:102760007D1186E0ECEAF1E0DF011D928A95E9F740
:10277000FE2C8AC04D875E878D859E856A8B0E9460
:10278000C0116A89882309F4BECF662309F4BBCF40
:102790002091B101822F82958F7090E002970CF406
:1027A0008ECF8091AC019091AD019A8389831B8279
:1027B000DD82CC822E83CE0101967FCF80959095CD
:1027C0008C0D9D1DACCFF62E662309F49CCF75139E
:1027D0002EC034132CC02091B10120FD1FC0822FC8
:1027E00082958F70D9F0D80115962C9315978F305C
:1027F00049F08F5F982F9295907F822F8F70892B51
:1028000015968C93C8010E947D1186E0F801ACEA10
:10281000B1E001900D928A95E1F793CF86E0F8013F
:10282000ACEAB1E001900D928A95E1F72DC04D8799
:102830005E878D859E850E94C011811140CF809159
:10284000B10181608093B101C8010E947D111CC05B
:10285000662309F458CF4D875E878D859E850E943B
:10286000C011882309F44FCF2ACF811148CF0CC063
:10287000243031050CF047CF9F7009F440CFF801A8
:102880009581907F09F03BCF8F2D62960FB6F8941B
:10289000DEBF0FBECDBFDF91CF911F910F91FF9093
:1028A000EF90DF90CF9008951F93CF93DF93CDB734
:1028B000DEB72C970FB6F894DEBF0FBECDBF4F83A7
:1028C000588769877A878B879C87CE0107960E94F5
:1028D0008D12882369F08F8198852A853B85232B6B
:1028E000F1F19F3F09F063C08F3F09F060C037C02E
:1028F00086E0FE013796DE01119601900D928A95D1
:10290000E1F76F817885EA85FB85309741F17F3F5C
:1029100011F46F3F21F120917B0130E0C901019654
:102920008770992740917A0150E08417950709F440
:1029300047C069837A83FD83EC8396E0929FD00140
:10294000939FB00D1124A458BE4FFE013196019003
:102950000D929A95E1F780937B010E94031216E095
:1029600080917A0190917B018917C1F1189FC00174
:10297000112484589E4F0E948D12882379F1E09192
:102980007A011E9FF0011124E458FE4F40815181CD
:1029900062817381848195810E94F31180917A0113
:1029A00090E001968770992780937A01D9CF4F8163
:1029B000588569857A858B859C850E94F311CFCFD8
:1029C0000E94BC1110927B0110927A01ECEAF1E0B6
:1029D00086E0DF011D928A95E9F7C1CF2C960FB6EC
:1029E000F894DEBF0FBECDBFDF91CF911F91089548
:1029F000EF92FF920F931F93CF93DF938C01892B5C
:102A000009F46CC0F12CEE24E394E8012196F8015E
:102A10008491843740F4843008F051C0813081F0D3
:102A2000823019F15BC0853709F444C0A8F19CE7F6
:102A3000980F903708F052C08F770E94830E41C0E4
:102A40000E5F1F4FFE01C49180E28C0F883048F466
:102A5000C7708E2D01C0880FCA95EAF70E945517DE
:102A600014C08C2F0E948F0D2DC00E5F1F4FFE01D2
:102A7000C49180E28C0F883058F4C7708E2D01C04D
:102A8000880FCA95EAF70E945B170E94FF161AC0CA
:102A90008C2F0E94830E16C00E5F1F4FFE01C49143
:102AA000CC2381F08FE99FE00197F1F700C000008F
:102AB000C150F6CF0E5F1F4FFE01F49003C00E947D
:102AC0008F0D8E018F2D882309F49FCFEFE9FFE052
:102AD0003197F1F700C000008150F5CFDF91CF9121
:102AE0001F910F91FF90EF90089508950E94751522
:102AF0006093B6017093B7018093B8019093B901C8
:102B00000C94A41108950C9476150F931F930091C3
:102B1000B6011091B7012091B8013091B901602B35
:102B2000712B822B932B1F910F910C9476150F9381
:102B30001F930091B6011091B7012091B801309117
:102B4000B90160237123822393231F910F910C9469
:102B500076150F931F930091B6011091B701209144
:102B6000B8013091B90160277127822793271F91FF
:102B70000F910C94761508950E94BB156093B201D5
:102B80007093B3018093B4019093B5010C94A41198
:102B900060E070E0CB010C94BC150F931F9341E0F3
:102BA00050E060E070E08A019B0104C0000F111F3B
:102BB000221F331F8A95D2F7C901B8011F910F91C7
:102BC0000C94BC150F931F9341E050E060E070E05F
:102BD00004C0440F551F661F771F8A95D2F7809156
:102BE000B2019091B301A091B401B091B5018A01F5
:102BF0009B01082B192B2A2B3B2BC901B8011F91D4
:102C00000F910C94BC150F931F9341E050E060E0CE
:102C100070E004C0440F551F661F771F8A95D2F7D6
:102C200040955095609570958091B2019091B30157
:102C3000A091B401B091B5018A019B010823192329
:102C40002A233B23C901B8011F910F910C94BC1595
:102C50000F931F9341E050E060E070E004C0440F28
:102C6000551F661F771F8A95D2F78091B201909108
:102C7000B301A091B401B091B5018A019B0108276D
:102C800019272A273B27C901B8011F910F910C94DE
:102C9000BC150F931F930091B2011091B3012091C5
:102CA000B4013091B501602B712B822B932B1F91B6
:102CB0000F910C94BC150F931F930091B2011091CA
:102CC000B3012091B4013091B501602371238223B7
:102CD00093231F910F910C94BC150F931F93009198
:102CE000B2011091B3012091B4013091B501602778
:102CF0007127822793271F910F910C94BC1508957B
:102D0000CF92DF92EF92FF920F931F93CF93DF93B7
:102D10008C01C090B601D090B701E090B801F0905E
:102D2000B9018091B2019091B301A091B401B09129
:102D3000B501C82AD92AEA2AFB2ACFE1D0E0D70177
:102D4000C6010C2E04C0B695A795979587950A9451
:102D5000D2F780FF06C0B8018C2F0E94BF090197EF
:102D600021F4219760F780E001C08C2FDF91CF9193
:102D70001F910F91FF90EF90DF90CF900895CF9328
:102D8000DF93EC010E948016BE010E94BF09DF9113
:102D9000CF910895CB010E94BF1608958091BA018A
:102DA00085958595859508958091BA0187700895D8
:102DB00098E0899F90011124262B2093BA010C944E
:102DC000E2152091BA01809582238093BA01982F51
:102DD000977069F430E0482F552747FD5095241728
:102DE000350729F08595859585950C9403160895EA
:102DF0009091BA01977081E009F480E00895E09124
:102E00000101F09102018091C6018083E0910101EE
:102E1000F091020190818091C501892B8083E0911E
:102E20000101F091020190818091C401892B80837E
:102E30008091BB01882381F0E0910101F0910201B2
:102E40009081892B808380910101909102010E94E1
:102E5000A61781111092BB0180910101909102018E
:102E60000C94740C8091C60108959091C601892B31
:102E70008093C601089580959091C601892380931F
:102E8000C60108951092C60108959091C501892B3D
:102E90008093C501089580959091C5018923809301
:102EA000C50108951092C50108959091C401892B20
:102EB0008093C401089580959091C40189238093E3
:102EC000C40108951092C40108958093BB01089530
:102ED0001092BB0108956DEE7EEF80E090E00E94BD
:102EE0005B2460E082E090E00E944A2460E083E09E
:102EF00090E00E944A2460E084E090E00E944A242E
:102F000060E085E090E00C944A2480E090E00E942C
:102F1000442421E08D3E9E4F09F020E0822F089549
:102F200082E090E00C943C2483E090E00C943C24FC
:102F3000682F83E090E00C944A2484E090E00C94A5
:102F40003C24682F84E090E00C944A24FC013196E4
:102F50009C01285F3F4F80E0919191118F5FE217B4
:102F6000F307D1F708959C01FC0132969FEF80E0B2
:102F70004191461789F09F3F19F4411101C0982FE4
:102F80008F5F8630A9F79F3F39F0F901E90FF11DF6
:102F900097FDFA95628308950895FC01329608968C
:102FA0002081261301C010823196E817F907C1F776
:102FB00008950C94B3170C94CD17FC013196089624
:102FC0001192E817F907E1F708958091EB01843039
:102FD00039F11092C80120E488E190E00FB6F8942E
:102FE000A895809360000FBE2093600080E00E944F
:102FF0009F0983B7817F846083BF83B7816083BF6C
:103000007894889583B78E7F83BF0FB6F894A89580
:1030100080916000886180936000109260000FBE14
:10302000089508950895CF930E9411180E941306E1
:103030000E941218C0E08C2F0E945406811104C017
:10304000CF5FC830C1F701C081E0CF9108950E94E1
:10305000BC110E94680C0C949F091F920F920FB62E
:103060000F9211248F939F93AF93BF938091C801C8
:10307000811113C08091E1019091E201A091E301DF
:10308000B091E4014196A11DB11D8093E10190939F
:10309000E201A093E301B093E401BF91AF919F914E
:1030A0008F910F900FBE0F901F90189582E084BDF6
:1030B00093E095BD9AEF97BD80936E0008952FB76A
:1030C000F8948091E1019091E201A091E301B09127
:1030D000E4012FBF0895CF92DF92EF92FF920F93FA
:1030E0001F932FB7F8944091E1015091E201609154
:1030F000E3017091E4012FBF6A017B01EE24FF24FC
:103100008C0120E030E0C016D106E206F30610F490
:10311000415051099A01281B390BC9011F910F9188
:10312000FF90EF90DF90CF90089578941F920F92C8
:103130000FB60F9211248F939F93AF93BF938091FB
:10314000E1019091E201A091E301B091E4010196C7
:10315000A11DB11D8093E1019093E201A093E301D1
:10316000B093E401BF91AF919F918F910F900FBEEB
:103170000F901F90189587E797E790930108809329
:1031800000089AE088E10FB6F894A8958093600053
:103190000FBE90936000FFCF0E948517811102C07F
:1031A0000E946B170E9490178093C7010E949D1781
:1031B00090E09093E6018093E5010E949417682FB8
:1031C00070E080E090E00C9483158091CB0180FF4B
:1031D0000BC06091060185E0689FB00111247595D0
:1031E0006795759567952BC081FF09C060910601B1
:1031F00085E0689FB00111247595679520C082FF16
:1032000007C06091060185E0689FB001112417C0D6
:103210009091CC019923D1F060910501961788F720
:103220002091060185E0289F90011124929FA00122
:10323000939F500D112470E0CA010E940E24603843
:10324000710540F46115710539F002C065E070E068
:10325000862F08958FE7089581E008958091CB012E
:1032600080FF08C06091040170E0759567957595C1
:10327000679521C081FF06C06091040170E07595DB
:10328000679519C082FF04C06091040170E010C00E
:103290009091CC019923C1F0609103019617A0F79A
:1032A00080910401899FC001112470E00E940E24C6
:1032B0006038710528F46115710521F0862F089595
:1032C0008FE7089581E0089561E070E0F4CF803FDA
:1032D00021F40E94E518819504C0813F29F40E94E1
:1032E000E5188093CF010895823F21F40E94E518EC
:1032F000819504C0833F29F40E94E5188093CE0194
:103300000895893F19F40E942E1905C08A3F31F4AF
:103310000E942E1981958093D00108958B3F21F44E
:103320000E942E19819504C08C3F29F40E942E1909
:103330008093D1010895843F21F48091CD01816073
:1033400017C0853F21F48091CD01826011C0863F76
:1033500021F48091CD0184600BC0873F21F48091DE
:10336000CD01886005C0883F31F48091CD01806136
:103370008093CD0108958D3F21F48091CB01816030
:103380000BC08E3F21F48091CB01826005C08F3F3E
:1033900029F48091CB0184608093CB010895803F14
:1033A00039F48091CF0187FF6CC01092CF0169C0C2
:1033B000813F29F48091CF011816BCF362C090912F
:1033C000CE01823F29F497FF5CC01092CE0159C014
:1033D000833F19F41916CCF354C0893F41F480910E
:1033E000D00118160CF04DC01092D0014AC08A3F8F
:1033F00029F48091D00187FF44C0F6CF8B3F39F488
:103400008091D10187FF3DC01092D1013AC08C3F1D
:1034100029F48091D1011816BCF333C0843F21F404
:103420008091CD018E7F17C0853F21F48091CD0121
:103430008D7F11C0863F21F48091CD018B7F0BC021
:10344000873F21F48091CD01877F05C0883F31F40B
:103450008091CD018F7E8093CD0113C08D3F21F4EB
:103460008091CB018E7F0BC08E3F21F48091CB01E8
:103470008D7F05C08F3F29F48091CB018B7F809396
:10348000CB018091CE0181110EC08091CF018111BD
:103490000AC08091D001811106C08091D1018111B3
:1034A00002C01092CC0108958DEC91E00E947F0C37
:1034B0000E945F189093CA018093C90108951F93D9
:1034C000CF93DF938091C9019091CA010E946B183C
:1034D000AC019091CC01992321F02091070130E0BB
:1034E00006C0209108018AE0289F9001112442170C
:1034F000530708F46EC08091CE01C091CF01D091E6
:10350000D0011091D101811107C0C1115EC0D1114C
:103510005CC011115AC05DC09F3F19F09F5F90932E
:10352000CC01181624F40E94E5188093CE018091F6
:10353000CE0187FF05C00E94E51881958093CE01DA
:103540001C1624F40E94E5188093CF018091CF01CE
:1035500087FF05C00E94E51881958093CF014091B7
:10356000CE01442379F03091CF01332359F025EB7C
:103570004203A00111245093CE013203C001112453
:103580009093CF011D1624F40E942E198093D00130
:103590008091D00187FF05C00E942E1981958093EC
:1035A000D001111624F40E942E198093D10180912C
:1035B000D10187FF05C00E942E1981958093D1010A
:1035C000DF91CF911F910C94541A9F3F09F0A6CF21
:1035D000AECFDF91CF911F910895EDECF1E085E042
:1035E000DF011D928A95E9F71092CC011092CB0170
:1035F0000895833081F128F4813059F08230D1F080
:103600000895853009F449C0B8F1863009F456C0F0
:10361000089580910801262F30E0280F311D2F3F9B
:10362000310524F4680F6093080108958FEF8093AB
:103630000801089580910701262F30E0280F311DE1
:103640002F3F310524F4680F6093070108958FEF31
:1036500080930701089580910601262F30E0280FFE
:10366000311D2F3F310524F4680F60930601089542
:103670008FEF80930601089580910501262F30E099
:10368000280F311D2F3F310524F4680F6093050189
:1036900008958FEF80930501089580910401262FEE
:1036A00030E0280F311D2F3F310524F4680F60935F
:1036B000040108958FEF8093040108958091030120
:1036C000262F30E0280F311D2F3F310524F4680FDD
:1036D0006093030108958FEF809303010895833071
:1036E00011F128F4813049F0823091F0089585304D
:1036F00081F120F18630C1F10895809108016817A9
:1037000020F4861B80930801089510920801089503
:1037100080910701681720F4861B809307010895A4
:1037200010920701089580910601681720F4861B06
:103730008093060108951092060108958091050175
:10374000681720F4861B80930501089510920501E7
:10375000089580910401681720F4861B809304016A
:10376000089510920401089580910301681720F4D0
:10377000861B8093030108951092030108950F930F
:103780001F938732D8F58E3108F081C08E3009F44E
:103790006BC098F4873009F459C08B3009F48BC0A2
:1037A000863009F08FC08091C701817F8E7F809322
:1037B000C70181E08093D30186C0863109F47BC0C4
:1037C00068F4803109F07EC08091C70183FB222715
:1037D00020F991E0922790FB83F94FC0893109F4D9
:1037E0006AC08B3109F06EC08091C70181FB22272E
:1037F00020F991E0922790FB81F93FC0883309F4CA
:103800005AC050F4893209F458C0853309F455C0C0
:10381000873209F452C056C0833409F44EC028F4EC
:103820008A3308F44FC0895333C0883409F04AC042
:103830000E94BC110FEF13ED20E301501040204017
:10384000E1F700C000000E94BB1835C08091C7019D
:10385000982F9095917090FB80F98093C7019111FA
:103860002AC0897F877F10C08091C70182FB2227F1
:1038700020F991E0922790FB82F98093C701992368
:10388000D1F08091C70181608093C70114C08D5130
:1038900041E050E060E070E08A019B0104C0000F4D
:1038A000111F221F331F8A95D2F7C901B8010E9448
:1038B00083150E94BC1181E006C061E070E080E0E9
:1038C00090E0F5CF80E01F910F91089580E008957A
:1038D00080E008958E518A3030F4E82FF0E0EE5DFC
:1038E000FE4F8081089580E00895CF93C82F809186
:1038F000D301813069F018F08230C9F183C0E091C2
:103900000101F09102018081823209F07DC007C07F
:10391000E0910101F09102018081823261F48C2FEB
:103920000E94661C811104C08C2F0E94BF1B1DC009
:1039300081E090E01AC08C2F0E94681C811114C095
:10394000C43179F048F4CB3079F0C03109F060C06F
:1039500082E08093D30108C0C93219F0C83321F046
:1039600057C01092D30154C081E0817053C0C93256
:1039700089F118F5C43171F1B0F4C73009F046C0CF
:103980008EE18093080182E3809307018AE08093AF
:10399000060184E18093050188E08093040188E2B8
:1039A0008093030133C082EE8C0F863078F58C2F24
:1039B0000E946A1C8093D20129C0CE34E9F020F421
:1039C000CB3421F56AE013C0C13579F0C235F1F48A
:1039D00061E00DC08091D201882319F01092D201CC
:1039E00015C081E08093D30115C061E006C08091CD
:1039F000D2010E94F91A0AC06AE08091D2010E94A5
:103A00006F1B04C01092D30180E004C081E002C0AB
:103A100080E0ABCFCF9108958091DC0108950F93A2
:103A20001F93CF93DF9300D01F92CDB7DEB78C01E9
:103A30000E94551F823011F0843019F593E099836C
:103A40001B830A839093E9008FEF9091E8008150E7
:103A500095FD06C095ED9A95F1F700008111F5CF1F
:103A60008091E80085FF0DC040E050E063E070E029
:103A7000CE0101960E94721F8091E8008E7780939C
:103A8000E8000F900F900F90DF91CF911F910F9151
:103A90000895CF93DF9300D01F92CDB7DEB720916A
:103AA000EB01243031F522E02983805891099B8372
:103AB0008A8383E08093E9008FEF9091E800815042
:103AC00095FD06C095ED9A95F1F700008111F5CFAF
:103AD0008091E80085FF0DC040E050E063E070E0B9
:103AE000CE0101960E94721F8091E8008E7780932C
:103AF000E8000F900F900F90DF91CF910895CF9332
:103B0000DF93EC010E94551F823011F08430F9F4EC
:103B100082E08093E9009FEF8091E800915085FD5D
:103B200006C085ED8A95F1F700009111F5CF8091DF
:103B3000E80085FF0CC040E050E065E070E0CE0199
:103B40000E94721F8091E8008E778093E800DF91D9
:103B5000CF910895CF93DF93EC010E94551F8230DF
:103B600011F0843039F581E08093E9009FEF809176
:103B7000E800915085FD06C085ED8A95F1F70000BB
:103B80009111F5CF8091E80085FF14C040E050E02E
:103B900068E070E0CE010E94721F9091E8009E776D
:103BA0009093E80098E0FE01A4EDB1E001900D9241
:103BB0009A95E1F7DF91CF9108958091EA01811103
:103BC00009C00E9407210E9464218091E200846064
:103BD0008093E20008951092EA01089508950895EF
:103BE0000C94271842E061EC81E00E94812042E0C1
:103BF00061EC82E00E94812042E061EC83E00C9461
:103C000081208091ED01833009F453C030F481307C
:103C100071F0823009F48CC008958A3009F478C0BC
:103C20008B3009F45EC0893009F09AC020C08091C1
:103C3000EC01813A09F094C08091E800877F80937D
:103C4000E8008091F0019091F101892B21F468E066
:103C500084ED91E003C060E080E090E070E00E94BD
:103C6000BD1F8091E8008B778093E80008958091D4
:103C7000EC01813209F074C08091F0019091F10162
:103C8000892B09F06DC08091E800877F8093E80060
:103C90008091E80082FD05C08091EB018111F8CF91
:103CA0005FC08091F1008093DC018091E8008B7708
:103CB00053C08091EC01813A09F052C08091F0012B
:103CC0009091F101892B09F04BC08091E800877F2A
:103CD0008093E8008091E80080FFFCCF8091130181
:103CE00036C08091EC018132D9F58091F00190913C
:103CF000F101892BA9F58091E800877F8093E80086
:103D00000E94B6208091EE01809313010C94BC11A7
:103D10008091EC01813221F58091E800877F8093CA
:103D2000E8000E94B6208091EF018093DD010895A4
:103D30008091EC01813AA1F48091E800877F809323
:103D4000E8008091E80080FFFCCF8091DD01809346
:103D5000F1008091E8008E778093E8000C94B62003
:103D6000089584B7877F84BF0FB6F894A895809193
:103D70006000886180936000109260000FBE80E850
:103D800080936100109261000E94B60C0E9407218E
:103D90000E9464218091E20084608093E200789424
:103DA0000E94F3230E94B80C89E091E00E94630C0A
:103DB0008091EB01853069F40E94E5178091E9015B
:103DC0008823B1F30E941318882391F30E945C1F8B
:103DD000EFCF0E94BE0CECCF292F332723303105C3
:103DE000C9F064F42130310581F02230310509F049
:103DF00043C084E590E024EE37E042C02132310533
:103E0000F1F02232310541F137C082E190E028E340
:103E100038E036C099278130910541F08230910514
:103E200041F0892B49F5E0EEF7E005C0E8ECF7E05A
:103E300002C0EAEAF7E0849190E09F0121C063307C
:103E40007105D0F4660F771FFB01EB5CFE4F2081FC
:103E5000318189E090E014C06330710568F4FB01A2
:103E6000EE0FFF1FE15DFE4F20813181FB01E45D1C
:103E7000FE4F808190E004C080E090E020E030E0E0
:103E8000FA013183208308950895CF93C82F0E94AB
:103E9000441FC093DE01CF9108958091EB018430DF
:103EA00011F081E0089582E008958091DE01811192
:103EB00002C00C944D1F089580E189BD82E189BD47
:103EC00009B400FEFDCF8091D8008F7D8093D8008B
:103ED0008091E00082608093E0008091E00081FDAD
:103EE000FCCF0895CF92DF92EF92FF920F931F9332
:103EF000CF93DF93EC018B016A010E94D5208111E1
:103F000033C0C114D10439F0F60180819181081BBE
:103F1000190BC80FD91FE12CF12C0115110519F14E
:103F20008091E80085FD16C08091E8008E7780932F
:103F3000E800C114D10449F0F60180819181E80EB6
:103F4000F91EF182E08285E00FC00E94D52088230F
:103F500021F30AC089918093F10001501109FFEF0C
:103F6000EF1AFF0ADACF80E0DF91CF911F910F9116
:103F7000FF90EF90DF90CF9008952091F201309163
:103F8000F3012617370748F06115710539F42091C0
:103F9000E8002E772093E80001C0B90140E06115E8
:103FA0007105A9F12091EB01222309F443C02530CA
:103FB00009F442C02091E80023FD40C02091E800B0
:103FC00022FD32C02091E80020FFE9CF4091F300AC
:103FD0002091F20030E0342BFC01CF016115710516
:103FE00059F02830310540F481918093F1006150FF
:103FF00071092F5F3F4FF1CF41E02830310509F0C3
:1040000040E02091E8002E772093E800C8CF4111CE
:10401000C9CF0AC08091EB01882361F0853061F03F
:104020008091E80083FD0AC08091E80082FFF2CF12
:1040300080E0089582E0089583E0089581E0089586
:104040002091F2013091F3012617370748F06115EE
:10405000710539F42091E8002E772093E80001C023
:10406000B901FC0120E06115710591F18091EB012E
:10407000882309F440C0853009F43FC08091E800EE
:1040800083FD3DC08091E80082FD2FC08091E80053
:1040900080FFE9CF2091F3008091F20090E0922B15
:1040A0006115710559F08830910540F424912093F1
:1040B000F1003196615071090196F2CF21E0089725
:1040C00009F020E08091E8008E778093E800CBCF64
:1040D0002111CCCF0AC08091EB01882361F085309B
:1040E00061F08091E80083FD0AC08091E80082FFC2
:1040F000F2CF80E0089582E0089583E0089581E0A2
:104100000895982F973058F59093E900981739F053
:104110007091EC002091ED005091F00003C0242F2D
:10412000762F50E021FF19C03091EB003E7F309395
:10413000EB003091ED003D7F3093ED003091EB00CE
:1041400031603093EB007093EC002093ED005093BE
:10415000F0002091EE0027FF07C09F5FD3CF8F7044
:104160008093E90081E0089580E008958091EC015A
:1041700087FF11C08091E80082FD05C08091EB01AE
:104180008111F8CF11C08091E8008B770BC080912E
:10419000EB01882349F08091E80080FFF8CF8091FF
:1041A000E8008E778093E80008952091E400309134
:1041B000E50095E64091EC00842F817040FF22C01D
:1041C0008091E80080FD1CC08091EB01882391F074
:1041D000853091F08091EB0085FD10C04091E400A6
:1041E0005091E5004217530729F39A01915011F7B6
:1041F00084E0089582E0089583E0089581E00895C1
:1042000080E008954091E80042FFDECF08950E94CB
:1042100075210E947D21E0EEF0E080818160808345
:10422000E8EDF0E080818F77808319BCA7EDB0E0E6
:104230008C918E7F8C9380818F7E80831092EA0197
:1042400008950F931F93CF93DF930E9475210E94CF
:104250007D21C8EDD0E088818F7788838881806850
:10426000888388818F7D888319BC1092EB0110921E
:10427000E7011092E9011092E80100EE10E0F80168
:1042800080818B7F808388818160888342E060E0C9
:1042900080E00E948120E1EEF0E080818E7F8083CB
:1042A000E2EEF0E08081816080838081886080839D
:1042B000F80180818E7F8083888180618883DF918F
:1042C000CF911F910F910895E8EDF0E080818F7EEE
:1042D0008083E7EDF0E080818160808384E082BFAD
:1042E00081E08093EA010C942121E8EDF0E08081E7
:1042F0008E7F80831092E20008951092DA0010926F
:10430000E10008951F920F920FB60F9211242F9380
:104310003F934F935F936F937F938F939F93AF934D
:10432000BF93EF93FF938091E10082FF0BC08091D8
:10433000E20082FF07C08091E1008B7F8093E10063
:104340000E94F2238091DA0080FF1FC08091D80084
:1043500080FF1BC08091DA008E7F8093DA0080910D
:10436000D90080FF0DC080E189BD82E189BD09B41B
:1043700000FEFDCF81E08093EB010E94DD1D05C0B2
:1043800019BC1092EB010E94EB1D8091E10080FFAF
:1043900019C08091E20080FF15C08091E2008E7FFD
:1043A0008093E2008091E20080618093E20080913E
:1043B000D80080628093D80019BC85E08093EB011F
:1043C0000E94EF1D8091E10084FF30C08091E200E7
:1043D00084FF2CC080E189BD82E189BD09B400FE63
:1043E000FDCF8091D8008F7D8093D8008091E1002F
:1043F0008F7E8093E1008091E2008F7E8093E200C7
:104400008091E20081608093E2008091E70188233F
:1044100011F084E007C08091E30087FD02C081E0D5
:1044200001C083E08093EB010E94F01D8091E100C8
:1044300083FF29C08091E20083FF25C08091E100C5
:10444000877F8093E10082E08093EB011092E70187
:104450008091E1008E7F8093E1008091E2008E7F69
:104460008093E2008091E20080618093E20042E06C
:1044700060E080E00E9481208091F000886080935D
:10448000F0000E94EE1DFF91EF91BF91AF919F91BF
:104490008F917F916F915F914F913F912F910F90ED
:1044A0000FBE0F901F9018951F920F920FB60F928C
:1044B00011242F933F934F935F936F937F938F9329
:1044C0009F93AF93BF93CF93DF93EF93FF93C091ED
:1044D000E900CF708091EC00D82FD17080FDD0E83A
:1044E0001092E9008091F000877F8093F00078942B
:1044F0000E9498221092E9008091F00088608093D9
:10450000F000CD2BCF70C093E900FF91EF91DF91C8
:10451000CF91BF91AF919F918F917F916F915F915B
:104520004F913F912F910F900FBE0F901F901895B4
:104530001F93CF93DF93CDB7DEB7AA970FB6F8944A
:10454000DEBF0FBECDBFECEEF1E088E08E0F9091A4
:10455000F10091938E13FBCF0E94011E8091E80021
:1045600083FF28C18091EC019091ED01492F50E02B
:104570004A30510508F01EC1FA01E556FF4F0C9470
:104580002224803821F0823809F014C108C08091BB
:10459000E8019091E901992389F082600FC0809130
:1045A000F0018F70873008F005C18093E900809199
:1045B000EB0085FB882780F91092E9009091E800D4
:1045C000977F9093E8008093F1001092F100D0C0A3
:1045D000282F2D7F09F0EEC0882319F0823061F07A
:1045E000E9C08091EE01813009F0E4C0933009F018
:1045F00080E08093E9012EC08091EE0181112AC0F4
:104600008091F0018F702FEF280F263008F0D2C074
:104610008093E9002091EB0020FF1CC0933021F42F
:104620008091EB00806214C09091EB0090619093B8
:10463000EB0021E030E0A90102C0440F551F8A952C
:10464000E2F74093EA001092EA008091EB00886064
:104650008093EB001092E9008091E800877F8093BF
:10466000E8000E94B620A6C08111A4C01091EE01FE
:104670001F778091E3008078812B8093E300809105
:10468000E800877F8093E8000E94B6208091E800D0
:1046900080FFFCCF8091E30080688093E3001111DC
:1046A00002C082E001C083E08093EB0183C08058A8
:1046B000823008F07FC08091EE019091EF018C3D37
:1046C00053E0950779F583E08A838AE289834FB7BF
:1046D000F894DE01139620E03EE051E2E32FF0E093
:1046E00050935700E49120FF03C0E295EF703F5FC5
:1046F000EF708E2F90E0EA3010F0C79601C0C096A0
:104700008D939D932F5F243149F74FBF8091E8002F
:10471000877F8093E8006AE270E0CE0101960E94F4
:10472000BD1F15C06091F0017091F101AE014F5FA6
:104730005F4F0E94EC1EBC01892BE1F19091E800D3
:10474000977F9093E80089819A810E942020809130
:10475000E8008B778093E8002DC0803859F5809170
:10476000E800877F8093E8008091E7018093F10063
:104770008091E8008E7773CF81111CC09091EE017B
:104780009230C0F48091E800877F8093E800909396
:10479000E7010E94B6208091E701811106C0809157
:1047A000E30087FD02C081E001C084E08093EB015B
:1047B0000E94F21D8091E80083FF0AC08091E8000A
:1047C000877F8093E8008091EB0080628093EB000C
:1047D000AA960FB6F894DEBF0FBECDBFDF91CF9182
:1047E0001F9108950895CF938091EB018823A1F044
:1047F000C091E900CF709091EC00892F817090FDFD
:1048000080E8C82B1092E9008091E80083FD0E94A7
:104810009822CF70C093E900CF91089597FB072E9F
:1048200016F4009407D077FD09D00E94282407FCD5
:1048300005D03EF4909581959F4F089570956195B0
:104840007F4F0895EE0FFF1F0590F491E02D09941E
:10485000AA1BBB1B51E107C0AA1FBB1FA617B707A6
:1048600010F0A61BB70B881F991F5A95A9F78095C2
:104870009095BC01CD010895F999FECF92BD81BDFF
:10488000F89A992780B50895A8E1B0E042E050E099
:104890000C946324262FF999FECF92BD81BDF89A1E
:1048A000019700B4021631F020BD0FB6F894FA9AC1
:1048B000F99A0FBE08950196272F0E944B240C945D
:1048C0004A24DC01CB01FC01F999FECF06C0F2BD00
:1048D000E1BDF89A319600B40D9241505040B8F7BE
:0648E0000895F894FFCFDB
:1048E60001BC012808140A321E0C1DAA1D7F1D4991
:1048F6001D0F1D01F6F73133323697C634350000E9
:10490600000001020304050607080900404D36CDE4
:0C4916000880084A08F6070F082808006F
:00000001FF
