:100000000C9461060C94C7080C94A8060C94A806DE
:100010000C94A8060C94A8060C94A8060C94A806A8
:100020000C94A8060C94A8060C94C5290C94972A45
:100030000C9456200C94A8060C94A8060C94A806C0
:100040000C94A8060C94A8060C94A8060C94A80678
:100050000C94A8060C94BE200C94A8060C94A80638
:100060000C94A8060C94A8060C94A8060C94A80658
:100070000C94A8060C94A8060C94A8060C94A80648
:100080000C94A8060C94A8060C94A8060C94A80638
:100090000C94A8060C94A8060C94A8060C94A80628
:1000A0000C94A8060C94A8060C94A806630A650A8A
:1000B000700A670A690A6B0A6D0A6F0A720A740A83
:1000C000760A810A780A7A0A7C0A7E0A800A830AFA
:1000D000431743177D177D17BC17DC174F194F19AE
:1000E0001E184F19CE18CE1841194F194F1949191A
:1000F000DB18DB18DB18DB18DB18DB18DB18DB1868
:10010000DB18DB18DB18DB18DB18DB18DB18DB1857
:10011000ED18FB18021909191319E219E219F4195B
:10012000F419EB19F419F419F419E219E219F01998
:10013000F419F419F019042B2B2B1D2C2B2B1D2C2F
:10014000772B9A2B1D2CF02BFF2B35001E001F0048
:100150002000210022002B0014001A0008001500C6
:100160001700290004001600070009000A00E1003A
:100170001D001B00060019000500D35CE000E20032
:10018000E300D15C2C002A00270026002500240073
:1001900023004C00130012000C0018001C00340057
:1001A00033000F000E000D000B0028003800370050
:1001B0003600100011004F00520051005000D25C78
:1001C0002C0035001E001F002000210022002B0003
:1001D00014001A00090013000A0029000400150089
:1001E000160017000700E1001D001B0006001900A3
:1001F0000500D35CE000E200E300D15C2C002A00A3
:10020000270026002500240023004C0033001C009A
:1002100018000F000D00340012000C00080011003F
:100220000B00280038003700360010000E004F0089
:10023000520051005000D25C2C0035001E001F00FF
:100240002000210022002B0034003600370013006C
:100250001C00290004001200080018000C00E10036
:10026000330014000D000E001B00D35CE000E20020
:10027000E300D15C2C002A00270026002500240082
:1002800023004C000F00150006000A00090038008A
:100290001600110017000B00070028001D001900B0
:1002A0001A00100005004F00520051005000D25CAF
:1002B0002C0035021E021F022002210222023502FA
:1002C0001E021F022002210222024C003A003B00C3
:1002D0003C003D003E000100400041004200430060
:1002E00044000100010001000100010001002A009A
:1002F000270226022502240223024C00270226029E
:10030000250224022302310230022F022E022D0286
:100310003F00010001000100640232024500AE000E
:10032000A900AA00AB000100010035001E001F005B
:1003300020002100220035001E001F0020002100A7
:1003400022004C003A003B003C003D003E00010012
:100350004000410042004300440001000100010050
:100360000100010001002A002700260025002400CA
:1003700023004C0027002600250024002300310024
:1003800030002F002E002D003F0001000100010071
:10039000640032004500AE00A900AA00AB000100D5
:1003A000010000000000000000000000000000004C
:1003B000000000000000000000000000000000003D
:1003C000000000000000000000000000000000002D
:1003D000000000000000000000000000000000001D
:1003E000000000000000000000000000000000000D
:1008C000000000000000000000003A003B003C0077
:1008D0003D003E003F000100005CC05CC15CC35CA9
:1008E000C25C010001000100175C185C135C010090
:1008F00001000100010001000100010001000100F0
:100900000100010001004500440043004200410095
:1009100040004C000100C65CC75CC45CC55C0100C3
:100920000100D05CCF5CCE5C0A5C010001000100DC
:1009300001000100010001000100010001000100AF
:1009400001006801F000B40078005A0064321464B9
:100950003214783C1E1E140A05000000000101013B
:100960000202030405050607090A0B0C0E0F1112FB
:10097000141517191B1D1F212325282A2C2F31344C
:1009800036393B3E414346494C4F5255585A5D61BA
:1009900064676A6D707376797C7F8386898C8F92A9
:1009A00095989B9EA2A5A7AAADB0B3B6B9BCBEC18F
:1009B000C4C6C9CBCED0D3D5D7DADCDEE0E2E4E6DC
:1009C000E8EAEBEDEEF0F1F3F4F5F6F8F9FAFAFBFC
:1009D000FCFDFDFEFEFEFFFFFFFFFFFFFFFEFEFE34
:1009E000FDFDFCFBFAFAF9F8F6F5F4F3F1F0EEEDA3
:1009F000EBEAE8E6E4E2E0DEDCDAD7D5D3D0CECB32
:100A0000C9C6C4C1BEBCB9B6B3B0ADAAA7A5A29EA3
:100A10009B9895928F8C898683807C797673706D94
:100A20006A6764615D5A5855524F4C494643413E8E
:100A30003B393634312F2C2A282523211F1D1B1921
:100A400017151412110F0E0C0B0A090706050504E1
:100A5000030202010101000000000000000001018A
:100A6000010101010101010202020202020202026D
:100A7000030303030303030304040404040405053C
:100A800005050506060606060707070708080808FD
:100A90000909090A0A0A0A0B0B0B0C0C0C0D0D0DA7
:100AA0000E0E0F0F0F101011111112121313141438
:100AB000151516161717181819191A1A1B1C1C1DAC
:100AC0001D1E1F1F20202122222324252526272703
:100AD00028292A2B2B2C2D2E2F2F30313233343531
:100AE00036363738393A3B3C3D3E3F40414243443D
:100AF000464748494A4B4C4D4F5051525355565713
:100B0000585A5B5C5E5F606263646667696A6C6DBD
:100B10006E707173747678797B7C7E808183848635
:100B2000888A8B8D8F91929496989A9B9D9FA1A372
:100B3000A5A7A9ABADAFB1B3B5B7B9BBBDBFC1C474
:100B4000C6C8CACCCFD1D3D6D8DADCDFE1E4E6E838
:100B5000EBEDF0F2F5F7FAFCFF2A035400680065AC
:100B60000020004E00790071007500690073007468
:100B70000020004B006500790062006F0061007288
:100B800000640000000E034B006500650062006910
:100B9000006F00000004030904090254000301006F
:100BA000A0FA09040000010301010009211101005C
:100BB000012240000705810308000A090401000121
:100BC00003010200092111010001224D00070582E5
:100BD0000308000A090402000103000000092111B2
:100BE0000100012236000705830308000A120110E4
:100BF0000100000008EBCE561100010102000105C2
:100C0000010980A10185021601002603001A810056
:100C10002A8300751095018100C0050C0901A1010E
:100C20008503160100269C021A01002A9C027510F9
:100C300095018100C005010902A1010901A100057A
:100C400009190129051500250195057501810295F0
:100C500001750381010501093009311581257F9551
:100C6000027508810609381581257F95017508816F
:100C700006050C0A38021581257F95017508810645
:100C8000C0C005010906A101050719E029E7150003
:100C900025019508750181029501750881010508F6
:100CA00019012905950575019102950175039101B9
:100CB0000507190029FF150026FF00950675088114
:100CC00000C011241FBECFEFDAE0DEBFCDBF04B6F7
:100CD00003FE27C080913F0290914002A091410203
:100CE000B09142028730904BA740B04BD1F41092A4
:100CF0003F0210924002109241021092420214BE32
:100D000084B7877F84BF0FB6F894A8958091600060
:100D1000886180936000109260000FBEE0E0F8E30D
:100D2000099511E0A0E0B1E0E2EFFBE502C005901B
:100D30000D92AE33B107D9F712E0AEE3B1E001C0D6
:100D40001D92AF33B107E1F70E94F2260C94F72D04
:100D50000C940000089508950C94AB068091E60170
:100D6000836088608093E601ABE1B1E041E050E050
:100D700025E02A0F8D91E82FE295EF70F0E031A188
:100D80008F70BA0102C0660F771F8A95E2F7CB0118
:100D9000962F9095932391A392A1892B82A32A1336
:100DA000E9CFA5E1B1E041E050E026E02A0F8D91C6
:100DB000E82FE295EF70F0E031A18F70BA0102C028
:100DC000660F771F8A95E2F7CB01962F90959323B4
:100DD00091A392A1892B82A32A13E9CF559A209A35
:100DE000A9E4B1E0EEE3F1E08AE08E0F11921D92EA
:100DF0008E13FCCF0C94CE0B2F923F924F925F92AA
:100E00006F927F928F929F92AF92BF92CF92DF921A
:100E1000EF92FF920F931F93CF93DF9300D000D0F8
:100E2000CDB7DEB780910001811104C035E0C32E3B
:100E3000D12C02C0C12CD12C9601275B3E4F7901E9
:100E40003C832B830BE111E0AA24A394B12C8824CA
:100E5000839494E0992E25E0722E700E6B817C8134
:100E6000DB015C901C92F80181918F01E82FE295E3
:100E7000EF70F0E021A18F70A50102C0440F551F53
:100E80008A95E2F7CA01242B21A322A1642E609443
:100E9000262122A350EA5A95F1F7A5E1B1E0BA83E1
:100EA000A98320E030E0A981BA813D90BA83A9836B
:100EB000432D42954F7050E0DA0190962C90AB8113
:100EC000BC814C90432D4F70D50102C0AA0FBB1FAF
:100ED0004A95E2F7AD01422139F44A2D022E01C0B4
:100EE000440F0A94EAF701C040E04429AB81BC8179
:100EF0004C932F5F3F4F26303105A9F691A169220F
:100F000061A292A1892B82A31196BC83AB83FB01C2
:100F10008081581659F0809253010E948820909346
:100F20005501809354018BB189258BB9701296CFEE
:100F3000809153018823D1F0809154019091550103
:100F40000E949420069790F080E090E0FC01EC0D68
:100F5000FD1DE25CFE4FD701A80FB91F2C91208325
:100F600001968530910591F71092530181E00F9021
:100F70000F900F900F90DF91CF911F910F91FF90E5
:100F8000EF90DF90CF90BF90AF909F908F907F9029
:100F90006F905F904F903F902F900895CF93DF9385
:100FA00080910001811103C0C0E0D0E002C0C5E023
:100FB000D0E00E943A09009791F420E030E0F90176
:100FC000E85AFE4F4081F901EC0FFD1FE25CFE4F35
:100FD00040832F5F3F4F2530310589F702C081E004
:100FE00090E0DF91CF910895CF930E94FC06C82F27
:100FF0000E94CE07892BF9F05D98909148019F5F80
:10100000909348019630D0F080910001811103C087
:1010100040E050E002C045E050E020E030E0F9015F
:10102000E40FF51FE25CFE4F10822F5F3F4F25302B
:101030003105A9F703C05D9A109248010E94D00BB8
:101040008C2FCF9108950E94FC06809100018111A0
:1010500003C025E030E002C020E030E080E090E016
:10106000FC01E20FF31FE25CFE4F4081FC01E85AF5
:10107000FE4F408301968530910591F70895E82F42
:10108000F0E0E25CFE4F808108950895E8EDF0E025
:101090008081806180838AE18A95F1F700C0809128
:1010A000D900817008950E944608809300010E9433
:1010B0004608882319F00E94BA0804C00E947F20C5
:1010C0000E94BE08789408950E94AE060E942308EC
:1010D000FDCF0E9453080E944608811102C00E9461
:1010E00064080895509A08955098589A0895589A07
:1010F00008950E947208589880E88A95F1F70C9438
:1011000077080E947408489BFECF80E88A95F1F723
:1011100008950E94740898E080E029B12170880F3A
:10112000822B20E82A95F1F725E02A95F1F70000B7
:10113000915099F708950F931F93CF93082F0E9412
:101140007208C8E010E0C15088F0C8010C2E02C03F
:10115000959587950A94E2F780FF03C00E9477086F
:1011600001C0589880E88A95F1F7EDCFCF911F9193
:101170000F9108950E9472080C9477080E947408D9
:10118000E89AE9E6F0E080818C7F808308951F92E1
:101190000F920FB60F921124CF92DF92EF92FF922F
:1011A0001F932F933F934F935F936F937F938F93EF
:1011B0009F93AF93BF93EF93FF93CF93DF931F92D0
:1011C000CDB7DEB70E947908C12CD12C10E0C60142
:1011D000885A9E4F7C01FC0180810E949B080E94DE
:1011E0007908F7018081180FFFEFCF1ADF0A85E039
:1011F000C816D10461F7812F0E949B080E947908CC
:1012000090E89A95F1F7E0E4EA95F1F70E948908F1
:10121000809357010E947908109157010E94890814
:1012200089830E9479080E9474088981181721F027
:1012300080915601816003C0809156018E7F80931A
:1012400056010F90DF91CF91FF91EF91BF91AF9138
:101250009F918F917F916F915F914F913F912F91CE
:101260001F91FF90EF90DF90CF900F900FBE0F90E7
:101270001F901895CF92DF92EF92FF921F93CF931A
:10128000DF931F92CDB7DEB7F8940E94720858988A
:1012900025E02A95F1F700000E9474080E94770863
:1012A00030E83A95F1F7489934C00E948108C12C82
:1012B000D12C10E00E948908F601E85AFE4F7F0108
:1012C00080830E948108F7018081180FFFEFCF1AF9
:1012D000DF0A25E0C216D10469F70E9489088983D4
:1012E0000E9481088981181314C0809157010E94BF
:1012F0009B080E948108809157010E949B080E94D0
:1013000081080E9472080E947708789480E090E03B
:1013100003C0789481E090E00F90DF91CF911F910E
:10132000FF90EF90DF90CF900895CF93DF93EC0183
:101330000E94C11FBE0180E090E0DF91CF910C942C
:10134000971DCF93FB01803D2CE5920701F140F4FE
:101350008E3C2CE5920769F08F3C9C4581F03FC0A4
:10136000823D2CE59207E1F0C0F0833D9C4561F1A0
:1013700036C0C281CC23A1F181E090E005C0C281DA
:10138000CC2371F182E090E00E94950923C0C281D4
:10139000CC2331F184E090E0F7CFC28183E002C03A
:1013A000C28184E0CC2341F00E94F61D40E164E05C
:1013B00083E00E948E0B0EC00E94171E40E164E085
:1013C00083E00E948E0B0CC0C28180E1CC2321F00F
:1013D0000E94F61DC0E004C00E94171E01C0C1E0BB
:1013E0008C2FCF91089581E008950C94A1090E945B
:1013F000D0192FEF84E39CE0215080409040E1F72A
:1014000000C0000087E797E79093010880930008E9
:101410000C94E4200F931F93CF93DF938C01FC0176
:10142000C081D181CE010E94941EBE010E94DB0BBF
:10143000EC01B8010E94F509882309F469C1B801DB
:10144000CE010E94480E882309F462C1C33CFCE52A
:10145000DF0741F4F8018281882309F459C10E9411
:10146000921056C1C43C8CE5D80708F0BFC0C53106
:101470009CE5D90708F057C0C230ECE5DE0708F458
:1014800076C0F8018281882309F46AC00E94AE1FE9
:10149000811102C00E948D1F0E94C61F90E0909390
:1014A000310280933002FE01E350FC45E231F10548
:1014B00030F4EA5AFF4F809130020C94AA2D8091AB
:1014C0003002816027C0826025C0846023C08061B3
:1014D00021C080621FC080641DC080681BC0846002
:1014E000886018C08E7F16C08D7F14C08B7F12C09D
:1014F0008F7E10C08F7D0EC08F7B0CC08F770AC08F
:101500008B7F877F07C087FB222720F991E09227F6
:1015100090FB87F980933002809130020E94CA1FAD
:101520000E94D019F5C0C03C9CE5D907D1F108F064
:1015300045C0C531DC4579F4F8018281811139C09B
:10154000C9EEDEE10E94541F8A7AB1F589E2FE01FC
:1015500009950E94211F81E08093610180936201BF
:10156000C801DF91CF911F910F910C94F309C11520
:10157000FCE5DF0741F4F8018281882309F4C8C043
:101580000E94F709C5C0C130DC4529F7F801828106
:10159000882309F4BDC08091E60181608093E60153
:1015A000B7C0F8018281882309F4B2C00E94A0115B
:1015B000AFC0C2EEDEE1C6CF85E3C9CFC13C8CE54A
:1015C000D80741F4F8018281882309F4A1C00E9460
:1015D00096119EC0C23CDC4509F0BDCFF801828166
:1015E000882309F495C00E947A1092C0C73CECE5AC
:1015F000DE0741F4F8018281882309F489C00E9442
:10160000011186C0C83CFCE5DF07D8F4F8018281EF
:10161000C53CFCE5DF0731F4882309F479C00E945A
:10162000CC1076C0C63CDC4530F4882309F470C089
:101630000E94B1106DC0882309F46AC00E94E610B0
:1016400067C0C93CECE5DE0739F5F80182818823E3
:1016500061F0109262010E94882090936001809353
:101660005F0180E20E94F61653C0809162018111F1
:101670000FC080915F01909160010E949420883C8E
:10168000910530F487E20E94A31587E20E94971625
:1016900080E20E94FD163CC0C93CFCE5DF0718F55E
:1016A000F8018281882351F0109261010E94882004
:1016B00090935E0180935D0182E0D4CF80916101BF
:1016C00081110FC080915D0190915E010E94942074
:1016D000883C910530F486E20E94A31586E20E94C0
:1016E000971682E0D6CFCC3C8CE5D80731F4F801D0
:1016F0008281882369F080E009C0CD3CDC4509F097
:101700002ACFF8018281882319F082E00E9488277D
:1017100080E0DF91CF911F910F910895CF92DF92DA
:10172000EF92FF920F931F9301E010E020E030E072
:101730006801790104C0CC0CDD1CEE1CFF1C8A95ED
:10174000D2F704C0000F111F221F331F6A95D2F772
:101750000C291D292E293F29C090D101D090D201FA
:10176000E090D301F090D401C022D122E222F322F2
:10177000842FC016D106E206F30641F41F910F91A3
:10178000FF90EF90DF90CF900C94F61D1F910F917A
:10179000FF90EF90DF90CF900C94171E0C94970E53
:1017A0000C94AC0608950C94D20B0C94D30B80E0EF
:1017B00090E00895089596E0799FF00111249CE34C
:1017C000899FE00DF11D1124E60FF11DEE0FFF1FA3
:1017D000E65BFE4F859194910895880F991FFC0157
:1017E000EE5BF64F859194910895CF93DF9326E0B9
:1017F000729FF00111244CE3849FE00DF11D112430
:10180000E60FF11DEE0FFF1FE65BFE4F85919491F1
:101810000E949E0DEC01811550E49507B8F58115E5
:1018200060E3960708F0E3C0803E9105D0F4803C69
:10183000910508F071C0883A910570F4853A9105D8
:1018400008F06DC08130910509F474C108F42BC112
:10185000049708F06FC127C18D3B910508F46AC059
:1018600022C18F3F910509F048F4803F910508F0AF
:10187000B8C0883E910508F45DC115C1C11580E26C
:10188000D80708F457C1CE019F70ADC0C11594E5CB
:10189000D907D8F4C11523E5D20708F0E3C0C11574
:1018A00041E5D40740F4C11550E5D50708F0A8C0BC
:1018B000DF70D06A3FC1C11562E5D60708F0BCC031
:1018C000DC2FCC27C16FD06A35C1C11586E5D8079A
:1018D00050F4C11595E5D90708F0DAC0DC2FCC2704
:1018E000C46FD06A27C1C11528E5D20708F4DBC050
:1018F000C11549E5D40708F4D1C0CE019056811531
:10190000904208F0D0C08D2F8F710E941B0EDD27F2
:10191000D0628F71D82B0EC1805C910964C0853A6A
:10192000910509F4C3C0863A910509F0C2C0C2E826
:10193000D0E400C1883A910509F4BEC0893A910506
:1019400009F4BDC08A3A910509F4BCC08B3A9105EF
:1019500009F4BBC08C3A910509F4BAC08B3B9105E0
:1019600009F4B9C08C3B910509F4B8C08D3A9105D2
:1019700009F4B7C0803B910509F4B6C08E3A9105D1
:1019800009F4B5C08F3A910509F4B4C0813B9105C3
:1019900009F4B3C0823B910509F4B2C0833B9105C1
:1019A00009F4B1C0843B910509F4B0C0853B9105B1
:1019B00009F4AFC0863B910509F4AEC0873B9105A1
:1019C00009F4ADC0883B910509F4ACC0893B910591
:1019D00009F4ABC08A3B910509F4AAC0C0E0D4E485
:1019E000A9C0D065A7C00E94ED0BEC01A3C0992748
:1019F000D3FF03C0EC01D86C9DC0EC01D06C9AC041
:101A00002C2F237081E090E002C0880F991F2A9547
:101A1000E2F79C689E0144E0369527954A95E1F7E8
:101A20002370922BCF70C695C69560E2C69FE001E9
:101A30001124C82BD92B7EC02C2F2695269580E209
:101A4000289F90011124C370DD2781E090E0AC0154
:101A500002C0440F551FCA95E2F7EA01C22BD32BEF
:101A6000DC6868C02C2F2695269580E2289F90017F
:101A70001124C370DD2781E090E0AC0102C0440F67
:101A8000551FCA95E2F7EA01C22BD32BDA6852C080
:101A9000CF71DD27DC2FCC27D0624CC0DC2FCC27C8
:101AA000C06FD06A47C0C0E0D0E044C0C1E8D0E415
:101AB00041C0C3E8D0E43EC0C2EED4E43BC0C9EEAE
:101AC000D4E438C0CAEED4E435C0C5EBD4E432C0A7
:101AD000C6EBD4E42FC0C3EBD4E42CC0C4EBD4E4F5
:101AE00029C0C7EBD4E426C0CCECD4E423C0CDECB1
:101AF000D4E420C0C3E8D5E41DC0CAE8D5E41AC0C8
:101B0000C2E9D5E417C0C4E9D5E414C0C1E2D6E403
:101B100011C0C3E2D6E40EC0C4E2D6E40BC0C5E2F5
:101B2000D6E408C0C6E2D6E405C0C7E2D6E402C0E7
:101B3000CAE2D6E4CE01DF91CF91089582389105B3
:101B400049F1B0F48133910509F458C048F4893261
:101B5000910509F44EC08A32910509F454C00895E4
:101B60008533910509F440C08933910599F00895B2
:101B7000833E910529F138F4803E910591F0823E33
:101B80009105A1F00895863E9105F9F0873E9105F3
:101B900031F108952091300220FD3AC021FD38C076
:101BA00008958091300280FD35C032C080913002AE
:101BB00082FF32C08091300284FD30C083EE39C094
:101BC0008091300282FD28C0F5CF8091300283FFE2
:101BD00027C08091300284FD21C087EE2AC0809109
:101BE000300283FD1DC0F5CF8091300285FD1AC003
:101BF0001BC08091300285FD17C014C08091300257
:101C000086FD14C015C08091300286FD11C00EC043
:101C100080EE0FC089E30DC082EE0BC080E009C0EA
:101C200086EE07C089E205C085E303C08AE201C0F1
:101C300081E390E00895CF93C82F0E94C61F90E0E3
:101C4000909331028093300282FF0DC09C2F9871D7
:101C5000983019F4C77FC46006C09C2F94719430EB
:101C600011F4CB7FC86083FF0DC09C2F9871983111
:101C700019F4C77EC46106C09C2F9471943111F48D
:101C8000CB7EC86184FDC77E8C2FCF9108950895C7
:101C90000F931F93CF93FB012281211102C0C1E05A
:101CA00041C08C01C0917001C11125C086319C4595
:101CB000B1F70E94470E81E0809370010E94882056
:101CC00090936F0180936E011092630110926501F1
:101CD00010926401109267011092660110926901DE
:101CE0001092680110926B0110926A0110926D01BE
:101CF00010926C0117C080916E0190916F010E944B
:101D00009420883C910558F690916301E92FF0E00A
:101D1000EE0FFF1FEC59FE4F118300839F5F9093DE
:101D20006301C0E08C2FCF911F910F9108950C9407
:101D3000AA062BB1342F309523233BB1432B3FB759
:101D4000F894FC01680F791FE617F70789F0819175
:101D500098E04BB9000000C087FF2BB9880F000046
:101D600000C000C000C02BB900C09A9591F7ECCF1D
:101D70003FBF08952AB1242B2AB99B01220F331F9C
:101D8000620F731F0E94990E87EC90E00197F1F7A4
:101D900000C00000089548E00C94BA0EEF92FF9244
:101DA0000F931F93CF93DF93E901662309F44BC090
:101DB000242F30E0EFEFF0E0E61BF109B901E69FD8
:101DC0009001E79F300DF69F300D1124232F8B01DA
:101DD000031B11095CE3E52EF12CB7010E94822D53
:101DE000FB01BC01069FC001079F900D169F900D3F
:101DF0001124B7010E94822DE230F105B1F040F4C8
:101E0000309779F0319711F5832F242F461B21C08D
:101E1000E430F105A1F068F03597C1F4842F861BFA
:101E200018C0832F262F230F14C0862F830FE42F73
:101E300003C0E42FE61B842F432F2E2F0AC0842FCC
:101E4000462F430F06C0842F242F03C080E020E0DC
:101E500040E0E42FF0E0E75AF54F4491E22FF0E044
:101E6000E75AF54F9491E82FF0E0E75AF54FE491E7
:101E700049839883EA83DF91CF911F910F91FF905F
:101E8000EF90089588E090E00C94B82DAB01BC0170
:101E900088E090E00C94D52DEEEFF1E083E08083B4
:101EA0001092FF018FEF828383836091FE01709116
:101EB000FF0180910002909101020C94460F8091E5
:101EC000FE0180FF06C06CE070E086E092E00C94BA
:101ED000CB0E80E090E0FC01EA5FFD4F11821082A2
:101EE0001282039684329105B1F7EDCF20E030E005
:101EF000F901EA5FFD4F8183608342832D5F3F4F8D
:101F000024323105A9F70C945F0FEF92FF920F93E3
:101F10001F93CF93DF9300D01F92CDB7DEB7009110
:101F2000FE011091FF012091000230910102009307
:101F300002021093030220930402309305022091C1
:101F4000FE0120FF21C0042FF62EE92E182F9E013E
:101F50002F5F3F4F0E94CE0E8091020210FB87F947
:101F6000809302021695809103028078182BE0FA84
:101F700017F910930302F0920402009305024B81BB
:101F800069818A810E94760F0F900F900F90DF91E8
:101F9000CF911F910F91FF90EF9008958F929F9294
:101FA000AF92BF92CF92DF92EF92FF920F931F9367
:101FB000CF93DF93EC01062F142F8091FE0180FF59
:101FC0008CC0982F9E77923021F4CE010E94850F0D
:101FD0005AC0E82FE695EF739EE39E0F9F739430EF
:101FE00018F4109101024FC09AE39E0F9F7399302D
:101FF00070F4881F8827881F9091FF01292F220FD6
:10200000C22FC82B97FB992790F9D92F3CC087E2A4
:102010008E0F8F738A30B8F5F0E07997E0FD02C03B
:1020200021E001C02FEFEE7FEE5BF64F859194919A
:102030006CE070E00E94822D26036001279FD00C87
:1020400011244E0188E9881A8EEF980A86E0E82E5E
:1020500082E0F82E98E6A92EBB24B394C401B50102
:102060000E94822D9701412F602F0E94CE0E8C0C72
:102070009D1C93E0E90EF11C8AE2E81682E0F80666
:1020800069F70E945F0F8091FE019C2FC0FB87F9CA
:102090008093FE0196958091FF018078892BD0FB7B
:1020A00087F98093FF010093000210930102609171
:1020B000FE017091FF018091000290910102DF9179
:1020C000CF911F910F91FF90EF90DF90CF90BF9035
:1020D000AF909F908F900C94460FDF91CF911F91FE
:1020E0000F91FF90EF90DF90CF90BF90AF909F90B7
:1020F0008F900895EEEFF1E02081221F2227221F0A
:102100003091FF01432F440F842F822B37FB9927F7
:1021100090F9089668E671E00E94962D43816281ED
:102120000C94CE0F2091FE01221F2227221F3091F6
:10213000FF01432F440F842F822B37FB992790F9FF
:10214000883091051CF4805A9E4F01C0089768E6BC
:1021500071E00E94962D40910102609100020C9462
:10216000CE0F60910002862F90E0883F910514F415
:10217000685F01C06FEF8091FE01881F8827881F6C
:102180009091FF01292F220F97FB992790F94091F9
:102190000102822B0C94CE0F60910002862F90E0FA
:1021A000089714F0685001C060E08091FE01881F1C
:1021B0008827881F9091FF01292F220F97FB9927CD
:1021C00090F940910102822B0C94CE0F40910102B4
:1021D000842F90E0883F910514F4485F01C04FEFD1
:1021E0008091FE01881F8827881F9091FF01292F69
:1021F000220F97FB992790F960910002822B0C9493
:10220000CE0F40910102842F90E0089714F04850BF
:1022100001C040E08091FE01881F8827881F9091AF
:10222000FF01292F220F97FB992790F96091000257
:10223000822B0C94CE0F9091FE0190FF42C09178BA
:10224000811102C0926007C0833210F0946403C011
:102250008F73880F982B9093FE016091FE0170910F
:10226000FF0180910002909101020E94460F80912F
:10227000FE01982F9E77923019F41092860110C0BB
:10228000982F96959F732EE3290F2F73273120F4F3
:1022900091E09093860104C0995D9F739A3068F332
:1022A000881F8827881F9091FF01292F220F97FBF5
:1022B000992790F94091010260910002822B0C94C1
:1022C000CE0F08958091E60181608093E60181E060
:1022D000809387010E94AE1F811104C00E948D1F50
:1022E0000E944C0F0E94420F6093FE017093FF0109
:1022F00080930002909301026E7761F40E944C0F6C
:102300000E94420F6093FE017093FF0180930002D0
:102310009093010281E0809386018091FE0180FF0D
:1023200004C086958F730C941B1108958091FE0153
:1023300086958F738F5F833208F081E00C941B11B8
:102340008091FE01982F909590FB80F98093FE017B
:102350006091FE017091FF01809100029091010255
:102360000E94460F8091FE0180FF04C086958F7306
:102370000C941B11109286012FEF80E792E0215000
:1023800080409040E1F700C000000C945F0FCF93B5
:10239000C82F80918401909185010E949420EC2F98
:1023A000F0E0EB5AF64FE491F0E08E179F0718F13A
:1023B0000E9488209093850180938401E09183019D
:1023C000F0E0E75AF64F44918091FE01881F88277C
:1023D000881F9091FF01292F220F97FB992790F9D1
:1023E00060910002822B0E94850F8091830190E012
:1023F000019680938301CF910895CF93C82F809148
:102400008101909182010E949420EC2FF0E0EE5A1D
:10241000F64FE491F0E08E179F07E8F00E948820C5
:1024200090938201809381014091010260910002AA
:1024300080917F01909180010E94850F80917F01A2
:1024400090918001019668E671E00E94822D909340
:10245000800180937F01CF910895CF92DF92FF9208
:102460000F931F93CF93DF93F82E80917D0190916E
:102470007E010E949420EF2DE695F0E0EE5AF64F93
:10248000E491F0E08E179F07E8F10E948820909376
:102490007E0180937D0106E012E0C0E0D0E088E696
:1024A000C82EDD24D39480917B0190917C018C0F08
:1024B0009D1FB6010E94822D9801409101026091FA
:1024C00000020E94CE0E6E960D5F1F4FC83681E04F
:1024D000D80749F70E945F0F20917B0130917C0162
:1024E000F0FE0AC0C9010196BE010E94822D9093A0
:1024F0007C0180937B0106C02150310930937C011F
:1025000020937B01DF91CF911F910F91FF90DF907E
:10251000CF9008958F929F92AF92BF92CF92DF9209
:10252000EF92FF920F931F93CF93DF93C82F80FFFB
:1025300003C0DD24DA9402C0DD24D39480917901B4
:1025400090917A010E949420C695EC2FF0E0E15B17
:10255000F64FE491F0E08E179F0708F467C00E94E1
:10256000882090937A018093790196E0E92E92E099
:10257000F92E08E012E0C0E0D0E027E0822E912C96
:10258000F80131971082F7011082F801108287E07C
:10259000A82EB12CC12C809178018C0D87FD845F11
:1025A000992787FD9095C817D907E9F42091010272
:1025B0002A9DC0012B9D900D1124B4010E94962DDF
:1025C000462F8091FE01881F8827881F9091FF0168
:1025D000592F550F97FB992790F9970160910002A9
:1025E000852B0E94CE0ECD0CF1E0AF1AB10899F602
:1025F000219683E0E80EF11C0D5F1F4FCC30D10512
:1026000009F0BECF0E945F0F8091780191E0D9124E
:1026100006C0811102C08BE007C0815005C090E068
:102620000196BE010E94962D80937801DF91CF9193
:102630001F910F91FF90EF90DF90CF90BF90AF90E0
:102640009F908F9008959F92AF92BF92CF92DF920A
:10265000EF92FF920F931F93CF93DF93CDB7DEB727
:10266000A4970FB6F894DEBF0FBECDBF182F809190
:102670007601909177010E949420E12FF0E0E45BD5
:10268000F64FE491F0E08E179F0708F495C00E9482
:1026900088209093770180937601CE0101967C018A
:1026A0005E0193E0A90EB11CC12CD12C8701F5016C
:1026B00031971082F7011082F5011082912C9091D0
:1026C000010180917501999E800D112487FD04C040
:1026D0008C301CF08BE001C080E0992787FD90953D
:1026E000C816D906A1F48091FE01881F8827881F8B
:1026F0009091FF01592F550F97FB992790F997015A
:102700004091010260910002852B0E94CE0E9394AD
:10271000F7E09F12D4CF8FEFC81AD80A93E0E90EE2
:10272000F11CE3E0AE0EB11CFCE0CF16D10409F0C1
:10273000BECF28E032E059E0E52EF12C6CE0C62E49
:10274000D12CC701B6010E94962DD9011197FC0129
:10275000EE0FFF1FE80FF91FE00FF11F81818C932F
:10276000119780818C938281F9018083FFEFEF1AAA
:10277000FF0A2D5F3F4F85E1E816F10411F70E9433
:102780005F0F9091010180917501913049F48A3F6A
:102790002CF489EF809375018FEF08C081500AC037
:1027A00083313CF082E18093750181E080930101E7
:1027B00003C08F5F80937501A4960FB6F894DEBFB7
:1027C0000FBECDBFDF91CF911F910F91FF90EF9082
:1027D000DF90CF90BF90AF909F900895EF92FF92BF
:1027E0000F931F93CF93DF938091730190917401A6
:1027F0000E949420883E9340D0F10E9488209093BC
:10280000740180937301C0917101D091720121967E
:10281000C170DD27D0937201C093710186E0E82E6C
:1028200082E0F82E10E008E7812F8695FE01E80F80
:10283000F11DCF01817099279701409101026091AC
:102840000002FC010E9FC0010F9F900D11240E94F9
:10285000CE0E1F5FF3E0EF0EF11C1C3029F7DF9165
:10286000CF911F910F91FF90EF900C945F0FDF912C
:10287000CF911F910F91FF90EF9008958091860165
:10288000882391F19091FE01892F86958F732EE315
:10289000280F2F73243018F482500C94C7112AE3A8
:1028A000280F2F73233018F486500C94FD1127E362
:1028B000280F2F73263018F489500C942D1221E321
:1028C000280F2F73263018F48F500C948A122BE2A5
:1028D000280F2F73233018F485510C9423139E77FF
:1028E000903311F40C94EE13089590938D0180931E
:1028F0008C010895E0918C01F0918D01309721F0C9
:102900000190F081E02D099480E00895E0918C0120
:10291000F0918D01309721F00280F381E02D099430
:102920000895E0918C01F0918D01309721F00480A1
:10293000F581E02D0994089520918A0130918B0151
:102940008217930771F090938B0180938A01E09135
:102950008C01F0918D01309721F00680F781E02DF8
:102960000994089520918801309189018217930775
:1029700071F09093890180938801E0918C01F0912E
:102980008D01309721F00084F185E02D09940895A0
:102990000C9469080E947F200E94AE060E94F520D8
:1029A0000C946211CF92DF92EF92FF920F931F93DC
:1029B000CF93DF93CDB7DEB72B970FB6F894DEBF7A
:1029C0000FBECDBF0E94F4078FE8C82E81E0D82E3D
:1029D00000E010E0E02E802F0E943F08F6014191B8
:1029E0006F01F42EF826B1F40F5F1F4F0A30110566
:1029F00089F78FEF89838A831B820E9488208160F8
:102A0000782F9D838C8349815A816B818D810E94AF
:102A1000751540C09091E60191FF04C08B870E941C
:102A200045088B8520E030E04F2D50E0922FBA0111
:102A3000022E02C0759567950A94E2F760FF24C0E4
:102A40002E83EF8221E030E0690102C0CC0CDD1C56
:102A50009A95E2F790E08C219D21892B09F420E0E2
:102A600028870E9488208160782F9A8789874E81E5
:102A70005F8168858A850E947515F801E157FE4FD0
:102A80008081C826C08206C02F5F3F4F26303105A7
:102A900069F6AACF0E94882210918E010E947A14B2
:102AA0001817A1F00E947A1480938E012B960FB60E
:102AB000F894DEBF0FBECDBFDF91CF911F910F9174
:102AC000FF90EF90DF90CF900C94D50B2B960FB624
:102AD000F894DEBF0FBECDBFDF91CF911F910F9154
:102AE000FF90EF90DF90CF900895CF93DF93CDB715
:102AF000DEB72B970FB6F894DEBF0FBECDBF4F8366
:102B0000588769877A878B87DE01119686E0FD01F9
:102B100011928A95E9F785E0FE01379601900D92B2
:102B20008A95E1F749815A816B817C818D819E81F3
:102B30000E94681C2B960FB6F894DEBF0FBECDBF67
:102B4000DF91CF910895CF93DF931F92CDB7DEB77A
:102B5000882309F4E8C0682F823879F40E947A1437
:102B600081FDE1C069E380910201909103010E941F
:102B700002200E94211F69E310C08338C9F40E941B
:102B80007A1480FDD0C063E5809102019091030129
:102B90000E9402200E94211F63E580910201909112
:102BA00003010E9404200F90DF91CF910C94211F0C
:102BB000843879F40E947A1482FDB5C067E480916C
:102BC0000201909103010E9402200E94211F67E4EC
:102BD000E4CF8CEF860F813A70F4862F69830E94D0
:102BE000B624698181119FC08091020190910301F7
:102BF0000E940220D8CF80E2860F883048F46770A8
:102C000081E001C0880F6A95EAF70E94571FCBCF79
:102C10008BE5860F833088F4653A29F0663A31F007
:102C200083E890E005C081E890E002C082E890E08F
:102C30000F90DF91CF910C949C1488E5860F85311D
:102C400008F071C0683A61F1693A69F16A3A71F164
:102C50006B3A79F16C3A81F16B3B89F16C3B91F104
:102C60006D3A99F1603BA1F16E3AA9F16F3AB1F179
:102C7000613BB9F1623BC1F1633BC9F1643BD1F106
:102C8000653BD9F1663BE1F1673BE9F1683BF1F166
:102C9000693BF9F16A3B09F43FC080E090E03EC037
:102CA00082EE90E03BC089EE90E038C08AEE90E082
:102CB00035C085EB90E032C086EB90E02FC083EB0F
:102CC00090E02CC084EB90E029C087EB90E026C018
:102CD0008CEC90E023C08DEC90E020C083E891E084
:102CE0001DC08AE891E01AC082E991E017C084E92A
:102CF00091E014C081E292E011C083E292E00EC044
:102D000084E292E00BC085E292E008C086E292E0A5
:102D100005C087E292E002C08AE292E00F90DF9164
:102D2000CF910C94B2140F90DF91CF910895882326
:102D300009F45BC0682F823879F40E947A1481FF0D
:102D400054C069E380910201909103010E94022026
:102D50000E94211F69E310C08338B1F40E947A14E5
:102D600080FF43C063E580910201909103010E94BE
:102D700002200E94211F63E58091020190910301CE
:102D80000E9404200C94211F843879F40E947A1444
:102D900082FF2BC067E480910201909103010E94A1
:102DA00002200E94211F67E4E7CF8CEF860F813A53
:102DB00018F380E2860F883048F4677081E001C024
:102DC000880F6A95EAF70E945D1FDCCF8BE5860FBE
:102DD000833020F480E090E00C949C14685A6531B4
:102DE00020F480E090E00C94B2140895882321F040
:102DF0000E94571F0C94211F0895882321F00E94E0
:102E00005D1F0C94211F08954F925F926F927F92E5
:102E1000AF92BF92CF92DF92EF92FF920F931F93E8
:102E2000CF93DF931F92CDB7DEB77C01A72EFC01B5
:102E3000058102950F701281112321F069830E9490
:102E4000741F698169830E941A1F6981882381F038
:102E5000112371F080E2860F883050F082E00E94EA
:102E6000031F0E941A1F91E0B82EB926698101C084
:102E7000B12CCA2CC2948FE0C822D12CF601E8599B
:102E8000FF4F0C94AA2D8A2D807F0A2D0F70882366
:102E900011F00295007F1123C1F0002309F4DCC179
:102EA00080E2860F883010F0611105C0802F6983A1
:102EB0000E94571F04C0802F69830E94671F698189
:102EC00069830E94211F6981C7C1862F69830E947F
:102ED00097166981002309F4E2C180E2860F8830E9
:102EE00010F0611104C0802F0E945D1F03C0802F6D
:102EF0000E946D1F0E94211FD2C18A2D807F9A2DB2
:102F00009F70803211F4892F03C0892F8295807FB2
:102F1000662319F06130B1F01FC0112349F000237E
:102F200009F452C1013009F04FC10E94871FB7C197
:102F3000002319F0013009F4B2C189830E948A1F6D
:102F4000898148C1112321F0063008F0A8C13CC195
:102F5000053008F0A4C13EC1112351F0002309F44B
:102F600033C1F701958190FF77C19F7095832CC184
:102F7000002309F42FC181C18A2D8695869583701F
:102F800090E0009719F0019761F089C1112321F0B9
:102F9000862F9A2D937002C080E090E00E949C14CE
:102FA0008EC1112321F0862F9A2D937002C080E0EC
:102FB00090E00E94B21483C11123F9F0653F51F0F3
:102FC000663F71F0643FA9F480912A0290912B0230
:102FD00081600BC080912A0290912B02826005C013
:102FE00080912A0290912B02846090932B0280930F
:102FF0002A02862F0E9490211EC0653F51F0663F35
:1030000071F0643FA9F480912A0290912B028E7F87
:103010000BC080912A0290912B028D7F05C0809178
:103020002A0290912B028B7F90932B0280932A028D
:10303000862F0E94F8210E947D2241C18A2D837033
:1030400009F052C0111137C1862F8295869587707D
:10305000880F880F962F9F70492E512C612C712C50
:10306000082E04C0440C551C661C771C0A94D2F729
:1030700064FF14C00FE010E020E030E0B901A801C7
:1030800004C0440F551F661F771F8A95D2F7CB01E6
:10309000BA01609570958095909503C060E070E0EE
:1030A000CB012A2D26952695237030E0223031055C
:1030B00069F02330310589F064297529862997291B
:1030C0002130310571F00E94AB1DF5C064297529CE
:1030D000862997290E94BD1DEEC00E94AB1DC30129
:1030E000B2010E94991DE7C0112319F08A2D817049
:1030F00001C08695882309F4DEC0862F82958695C7
:103100008770880F880F962F9F70492E512C612C45
:10311000712C082E04C0440C551C661C771C0A94A4
:10312000D2F764FF14C00FE010E020E030E0B901F6
:10313000A80104C0440F551F661F771F8A95D2F758
:10314000CB01BA01609570958095909503C060E0C1
:1031500070E0CB012A2D269526952370422F50E052
:103160004230510569F04330510589F064297529D1
:10317000862997294130510571F00E946F1E9BC02E
:1031800064297529862997290E94811E94C00E946E
:103190006F1EC301B2010E945D1E8DC0862F90E09C
:1031A000FC01E05EF109E531F10508F051C0E85895
:1031B000FF4F0C94AA2D062F0F708A2D8F711123AB
:1031C00031F00E94F61D802F0E94F61668C00E9402
:1031D000171E802F0E94FD1662C0112341F005309A
:1031E00008F05DC08A2D8F710E943C1E58C00630C9
:1031F00008F055C0F7CF112339F08A2D8F710E9446
:10320000F61D4DC01123C9F38A2D8F710E94171E20
:1032100046C0112329F08A2D8F710E94E11D3FC005
:103220000E94DC1D3CC0112351F01A2D1F71812F0B
:103230000E94F61D63E0812F0E94FA1E30C081E0DB
:103240000E94031F023058F182E00E94031F27C032
:10325000112331F0002389F2862F0E94A3151FC08D
:10326000002391F2693349F45FEF77EE83E0515028
:1032700070408040E1F700C00000862F0E94971642
:103280000EC04A2D4F70C7010E94D70B0E940C1D23
:1032900016C04A2D4F70C7010E94DA0B10C098E08B
:1032A000C916D10441F05CF0FAE0CF1AD10822E04F
:1032B000C216D10420F40E947A140E94D50BBB20C0
:1032C00001F10E94F61E80FD1CC0F70112820E94CF
:1032D000F01E0E94F61DC7010E9491190E94F01E67
:1032E0000F90DF91CF911F910F91FF90EF90DF90A2
:1032F000CF90BF90AF907F906F905F904F900C9465
:10330000171E0F90DF91CF911F910F91FF90EF90BB
:10331000DF90CF90BF90AF907F906F905F904F9075
:1033200008950F931F93CF93DF93EC0188819981C8
:103330002B813C81232BB9F09F3F11F48F3F99F0F3
:10334000CE010E940A0A882371F0688179818A81FE
:103350000E94DE1E8C010E94931E0E94961DB801E1
:10336000CE010E940417DF91CF911F910F91089514
:103370000E94741F0E94841F80910201909103019A
:103380000E9406200E94211F0E942E230E947D225F
:1033900080E090E00E949C1480E090E00C94B214D5
:1033A0000E94641F0C94B8190E94D31EE92FE29565
:1033B000EF70F0E03297EE30F105B0F4E357FF4FD5
:1033C0000C94AA2D803F91F018F4803E68F40EC052
:1033D000843F51F40BC0803E48F0813F29F406C081
:1033E00093FB882780F9089580E0089581E008958F
:1033F000CF93DF9300D000D01F92CDB7DEB70F90F0
:103400000F900F900F900F90DF91CF910895CF9371
:10341000DF9300D000D000D0CDB7DEB726960FB630
:10342000F894DEBF0FBECDBFDF91CF9108951F93FB
:10343000CF93DF93C091990116E080919A01C8174C
:1034400099F0D0E01C9FF0011D9FF00D1124E5566E
:10345000FE4F4081518162817381848195810E94F8
:10346000071A2196C770E9CFDF91CF911F91089578
:103470004091CB015091CC016091CD017091CE0172
:103480008091CF019091D0010C94071A8091D001C6
:1034900082958F7009F054C08091CD01882309F482
:1034A0004FC080919901A0919A016091CB017091D8
:1034B000CC014091CE015091CF01B6E08A1709F4BA
:1034C0003FC090E041155105C1F17F3F11F46F3FBE
:1034D000A1F1B89FF001B99FF00D1124E556FE4F00
:1034E000218172132AC02081621327C022812111F9
:1034F00024C0238134812417350710F42150310969
:10350000241B350B283C3105C0F42091D0012F70CD
:1035100020612093D00126E0289FF001299FF00D23
:103520001124E056FE4F80818F70806180838BEC88
:1035300091E00E9491190C94171A01968770BECFE2
:103540000895CF92DF92EF92FF920F931F93CF9344
:10355000DF93CDB7DEB762970FB6F894DEBF0FBE2C
:10356000CDBF8C0185E0F801DE011D9601900D9222
:103570008A95E1F7D8014C9111965C9111971296BA
:103580006C9112971396CD90DC9014973091CB01EB
:103590007091CC018091CE019091CF01009709F4F8
:1035A0006BC17F3F19F43F3F09F466C1E090CD0144
:1035B000EE2009F4C0C02091D001C816D90628F029
:1035C000F601E81BF90BCF0104C0809590958C0D96
:1035D0009D1DFF24F394883C910578F0F12C207F09
:1035E00009F0C6C07C2DD98AC88A89890E94F81939
:1035F0008BEC91E00E949119B1C0822F807F09F07D
:1036000046C0751314C0341312C0611110C02F705E
:1036100020612093D0010E94381A8BEC91E00E9427
:1036200091198091D001D80115968C932EC0CD2888
:1036300019F15F3F11F44F3FF9F0F62E61111CC0F4
:103640008091990120919A0136E0821709F45AC0BD
:1036500090E0389FF001399FF00D1124E556FE4FA0
:103660007181571306C07081471303C072817111B5
:1036700003C001968770E9CFF62E662309F418C1BE
:103680008091D00181608093D001F12C11C175131C
:1036900008C0341306C0611104C08091D001D80164
:1036A000C3C04D875E878D859E856A8B0E94D41925
:1036B0006A898823E1F16623D1F12091D001822F1C
:1036C00082958F7090E0029774F08091CB01909179
:1036D000CC0198878F831986DB86CA862C87CE011A
:1036E00007960E94911986E0F801ABECB1E00190D9
:1036F0000D928A95E1F70E94461A0E94381AFF241B
:10370000F394D6C04D875E878D859E850E94D31E1B
:10371000292F22952F7030E0223031050CF0BCC0EB
:103720009F7009F0B6C0805E883008F4C1C0C8013F
:103730000E949119E4CFC816D90608F453C0F601C7
:10374000E81BF90BCF01883C910508F450C0F12C1F
:103750007C2DD98AC88A89890E94F819EBECF1E09E
:1037600086E0DF011D928A95E9F70E94381AA0C011
:10377000751314C0341312C0611110C08091D001B0
:10378000F8018583C8010E94911986E0EBECF1E015
:10379000DF011D928A95E9F7FE2C8AC04D875E876E
:1037A0008D859E856A8B0E94D4196A89882309F4C5
:1037B000BECF662309F4BBCF2091D001822F829522
:1037C0008F7090E002970CF48ECF8091CB01909196
:1037D000CC019A8389831B82DD82CC822E83CE0129
:1037E00001967FCF809590958C0D9D1DACCFF62EC8
:1037F000662309F49CCF75132EC034132CC020917E
:10380000D00120FD1FC0822F82958F70D9F0D80182
:1038100015962C9315978F3049F08F5F982F9295BE
:10382000907F822F8F70892B15968C93C8010E94F0
:10383000911986E0F801ABECB1E001900D928A9508
:10384000E1F793CF86E0F801ABECB1E001900D9287
:103850008A95E1F72DC04D875E878D859E850E94F4
:10386000D419811140CF8091D00181608093D00123
:10387000C8010E9491191CC0662309F458CF4D87D6
:103880005E878D859E850E94D419882309F44FCFC9
:103890002ACF811148CF0CC0243031050CF047CF1E
:1038A0009F7009F440CFF8019581907F09F03BCFDC
:1038B0008F2D62960FB6F894DEBF0FBECDBFDF919D
:1038C000CF911F910F91FF90EF90DF90CF900895CF
:1038D0001F93CF93DF93CDB7DEB72C970FB6F89435
:1038E000DEBF0FBECDBF4F83588769877A878B872E
:1038F0009C87CE0107960E94A11A882369F08F81C8
:1039000098852A853B85232BF1F19F3F09F063C001
:103910008F3F09F060C037C086E0FE013796DE01B8
:10392000119601900D928A95E1F76F817885EA856D
:10393000FB85309741F17F3F11F46F3F21F12091DA
:103940009A0130E0C9010196877099274091990149
:1039500050E08417950709F447C069837A83FD8393
:10396000EC8396E0929FD001939FB00D1124A55651
:10397000BE4FFE01319601900D929A95E1F780932A
:103980009A010E94171A16E08091990190919A016C
:103990008917C1F1189FC001112485569E4F0E94BE
:1039A000A11A882379F1E09199011E9FF001112459
:1039B000E556FE4F408151816281738184819581FA
:1039C0000E94071A8091990190E0019687709927CB
:1039D00080939901D9CF4F81588569857A858B85E8
:1039E0009C850E94071ACFCF0E94D01910929A018D
:1039F00010929901EBECF1E086E0DF011D928A95CF
:103A0000E9F7C1CF2C960FB6F894DEBF0FBECDBF3D
:103A1000DF91CF911F910895EF92FF920F931F9323
:103A2000CF93DF938C01892B09F46CC0F12CEE2429
:103A3000E394E8012196F8018491843740F48430BE
:103A400008F051C0813081F0823019F15BC08537B8
:103A500009F444C0A8F19CE7980F903708F052C0D1
:103A60008F770E94971641C00E5F1F4FFE01C491D1
:103A700080E28C0F883048F4C7708E2D01C0880F0B
:103A8000CA95EAF70E94771F14C08C2F0E94A315D5
:103A90002DC00E5F1F4FFE01C49180E28C0F883055
:103AA00058F4C7708E2D01C0880FCA95EAF70E949E
:103AB0007D1F0E94211F1AC08C2F0E94971616C0CE
:103AC0000E5F1F4FFE01C491CC2381F08FE99FE070
:103AD0000197F1F700C00000C150F6CF0E5F1F4FF5
:103AE000FE01F49003C00E94A3158E018F2D882340
:103AF00009F49FCFEFE9FFE03197F1F700C0000034
:103B00008150F5CFDF91CF911F910F91FF90EF90F2
:103B1000089508950E94891D6093D5017093D60180
:103B20008093D7019093D8010C94B81908950C9400
:103B30008A1D0F931F930091D5011091D6012091FA
:103B4000D7013091D801602B712B822B932B1F91C1
:103B50000F910C948A1D0F931F930091D501109122
:103B6000D6012091D7013091D8016023712382239F
:103B700093231F910F910C948A1D0F931F93009113
:103B8000D5011091D6012091D7013091D80160273D
:103B90007127822793271F910F910C948A1D0895F6
:103BA0000E94CF1D6093D1017093D2018093D30105
:103BB0009093D4010C94B81960E070E0CB010C94A0
:103BC000D01D0F931F9341E050E060E070E08A0148
:103BD0009B0104C0000F111F221F331F8A95D2F7CB
:103BE000C901B8011F910F910C94D01D0F931F9321
:103BF00041E050E060E070E004C0440F551F661FD4
:103C0000771F8A95D2F78091D1019091D201A0912E
:103C1000D301B091D4018A019B01082B192B2A2BC7
:103C20003B2BC901B8011F910F910C94D01D0F932C
:103C30001F9341E050E060E070E004C0440F551F66
:103C4000661F771F8A95D2F74095509560957095BD
:103C50008091D1019091D201A091D301B091D40172
:103C60008A019B01082319232A233B23C901B80198
:103C70001F910F910C94D01D0F931F9341E050E0C2
:103C800060E070E004C0440F551F661F771F8A95DF
:103C9000D2F78091D1019091D201A091D301B0913E
:103CA000D4018A019B01082719272A273B27C9012C
:103CB000B8011F910F910C94D01D0F931F93009189
:103CC000D1011091D2012091D3013091D401602B08
:103CD000712B822B932B1F910F910C94D01D0F935E
:103CE0001F930091D1011091D2012091D301309105
:103CF000D40160237123822393231F910F910C948D
:103D0000D01D0F931F930091D1011091D2012091EA
:103D1000D3013091D40160277127822793271F9107
:103D20000F910C94D01D0895CF92DF92EF92FF92E5
:103D30000F931F93CF93DF938C01C090D501D09048
:103D4000D601E090D701F090D8018091D1019091F7
:103D5000D201A091D301B091D401C82AD92AEA2A6C
:103D6000FB2ACFE1D0E0D701C6010C2E04C0B695E6
:103D7000A795979587950A94D2F780FF06C0B8015A
:103D80008C2F0E94F50B019721F4219760F780E0BA
:103D900001C08C2FDF91CF911F910F91FF90EF9079
:103DA000DF90CF900895CF93DF93EC010E94941E93
:103DB000BE010E94F50BDF91CF910895CB010E94C7
:103DC000D31E0895682F80910201909103010C94F5
:103DD0000220682F80910201909103010C9404202D
:103DE0008091D90185958595859508958091D90112
:103DF0008770089598E0899F90011124262B2093C5
:103E0000D9010C94F61D2091D901809582238093CD
:103E1000D901982F977069F430E0482F552747FD56
:103E200050952417350729F08595859585950C942F
:103E3000171E08959091D901977081E009F480E0F0
:103E40000895E0910201F09103018091E5018083E2
:103E5000E0910201F091030190818091E401892BAE
:103E60008083E0910201F091030190818091E30150
:103E7000892B80838091DA01882381F0E09102010F
:103E8000F09103019081892B8083809102019091B0
:103E900003010E94CF1F81111092DA01809102016B
:103EA000909103010C9486148091E50108959091FE
:103EB000E501892B8093E501089580959091E501B6
:103EC00089238093E50108951092E501089590916A
:103ED000E401892B8093E401089580959091E40199
:103EE00089238093E40108951092E401089590914C
:103EF000E301892B8093E301089580959091E3017C
:103F000089238093E30108951092E301089580933B
:103F1000DA0108951092DA0108956DEE7EEF80E0E7
:103F200090E00E94E12D60E082E090E00E94C42DCC
:103F300060E083E090E00E94C42D60E084E090E0C7
:103F40000E94C42D60E085E090E00E94C42D40E016
:103F500050E0BA0188E090E00C94D52D80E090E02C
:103F60000E94BE2D21E08D3E9E4F09F020E0822F61
:103F7000089582E090E00C94B02D83E090E00C94E2
:103F8000B02D682F83E090E00C94C42D84E090E085
:103F90000C94B02D682F84E090E00C94C42DFC01AB
:103FA00031969C01285F3F4F80E0919191118F5F86
:103FB000E217F307D1F708959C01FC0132969FEFB9
:103FC00080E04191461789F09F3F19F4411101C0EB
:103FD000982F8F5F8630A9F79F3F39F0F901E90FDD
:103FE000F11D97FDFA95628308950895FC013296BC
:103FF00008962081261301C010823196E817F90730
:10400000C1F708950C94DC1F0C94F61FFC01319647
:1040100008961192E817F907E1F7089580913602A2
:10402000843039F11092E70120E488E190E00FB686
:10403000F894A895809360000FBE2093600080E004
:104040000E94D50B83B7817F846083BF83B7816073
:1040500083BF7894889583B78E7F83BF0FB6F8941B
:10406000A895809160008861809360001092600044
:104070000FBE089508950895CF930E943A200E949C
:10408000F4070E943B20C0E08C2F0E943F08811162
:1040900004C0CF5FCA30C1F701C081E0CF9108955D
:1040A0000E94D0190E947A140C94D50B1F920F9283
:1040B0000FB60F9211248F939F93AF93BF9380916C
:1040C000E701811113C080912C0290912D02A091E3
:1040D0002E02B0912F024196A11DB11D80932C029A
:1040E00090932D02A0932E02B0932F02BF91AF9117
:1040F0009F918F910F900FBE0F901F90189582E0A7
:1041000084BD93E095BD9AEF97BD80936E000895AE
:104110002FB7F89480912C0290912D02A0912E023D
:10412000B0912F022FBF0895CF92DF92EF92FF92AE
:104130000F931F932FB7F89440912C0250912D02AA
:1041400060912E0270912F022FBF6A017B01EE2435
:10415000FF248C0120E030E0C016D106E206F30611
:1041600010F4415051099A01281B390BC9011F91C4
:104170000F91FF90EF90DF90CF90089578941F9269
:104180000F920FB60F9211248F939F93AF93BF930B
:1041900080912C0290912D02A0912E02B0912F02BD
:1041A0000196A11DB11D80932C0290932D02A09326
:1041B0002E02B0932F02BF91AF919F918F910F90DC
:1041C0000FBE0F901F90189587E797E7909301080F
:1041D000809300089AE088E10FB6F894A895809340
:1041E00060000FBE90936000FFCF0E94AE1F811150
:1041F00002C00E948D1F0E94B91F8093E6010E9499
:10420000C61F90E090933102809330020E94BD1F40
:10421000682F70E080E090E00C94971D8091EA0197
:1042200080FF0BC06091070185E0689FB0011124F9
:1042300075956795759567952BC081FF09C060914D
:10424000070185E0689FB00111247595679520C02E
:1042500082FF07C06091070185E0689FB0011124CB
:1042600017C09091EB019923D1F060910601961748
:1042700088F72091070185E0289F90011124929FE3
:10428000A001939F500D112470E0CA010E94962D49
:104290006038710540F46115710539F002C065E0C0
:1042A00070E0862F08958FE7089581E0089580914A
:1042B000EA0180FF08C06091050170E0759567957F
:1042C0007595679521C081FF06C06091050170E07A
:1042D0007595679519C082FF04C06091050170E073
:1042E00010C09091EB019923C1F0609104019617E1
:1042F000A0F780910501899FC001112470E00E9400
:10430000962D6038710528F46115710521F0862F0E
:1043100008958FE7089581E0089561E070E0F4CF9B
:10432000803F21F40E940E21819504C0813F29F431
:104330000E940E218093EE010895823F21F40E9495
:104340000E21819504C0833F29F40E940E218093A1
:10435000ED010895893F19F40E94572105C08A3F55
:1043600031F40E94572181958093EF0108958B3F8E
:1043700021F40E945721819504C08C3F29F40E94AA
:1043800057218093F0010895843F21F48091EC013E
:10439000816017C0853F21F48091EC01826011C0DB
:1043A000863F21F48091EC0184600BC0873F21F4AB
:1043B0008091EC01886005C0883F31F48091EC0168
:1043C00080618093EC0108958D3F21F48091EA0192
:1043D00081600BC08E3F21F48091EA01826005C0AC
:1043E0008F3F29F48091EA0184608093EA01089567
:1043F000803F39F48091EE0187FF6CC01092EE018E
:1044000069C0813F29F48091EE011816BCF362C0A7
:104410009091ED01823F29F497FF5CC01092ED016D
:1044200059C0833F19F41916CCF354C0893F41F4A5
:104430008091EF0118160CF04DC01092EF014AC0A8
:104440008A3F29F48091EF0187FF44C0F6CF8B3F6C
:1044500039F48091F00187FF3DC01092F0013AC01D
:104460008C3F29F48091F0011816BCF333C0843FCF
:1044700021F48091EC018E7F17C0853F21F480915B
:10448000EC018D7F11C0863F21F48091EC018B7F80
:104490000BC0873F21F48091EC01877F05C0883FE6
:1044A00031F48091EC018F7E8093EC0113C08D3F3D
:1044B00021F48091EA018E7F0BC08E3F21F4809120
:1044C000EA018D7F05C08F3F29F48091EA018B7F3F
:1044D0008093EA018091ED0181110EC08091EE017F
:1044E00081110AC08091EF01811106C08091F00115
:1044F000811102C01092EB0108958CEE91E00E94B0
:1045000091140E9488209093E9018093E801089516
:104510001F93CF93DF938091E8019091E9010E946E
:104520009420AC019091EB01992321F02091080196
:1045300030E006C0209109018AE0289F90011124F3
:104540004217530708F486C08091ED01C091EE0137
:10455000D091EF011091F001811107C0C11176C017
:10456000D11174C0111172C075C09F3F19F09F5FC7
:104570009093EB01181624F40E940E218093ED0114
:104580008091ED0187FF05C00E940E2181958093E7
:10459000ED011C1624F40E940E218093EE018091FF
:1045A000EE0187FF05C00E940E2181958093EE01E8
:1045B0006091ED01662339F1C091EE01CC2319F130
:1045C000772767FD7095872F972F0E94892C23E30B
:1045D00033E343E35FE30E94ED2C0E94512C609390
:1045E000ED016C2F772767FD7095872F972F0E941D
:1045F000892C23E333E343E35FE30E94ED2C0E9425
:10460000512C6093EE011D1624F40E9457218093D3
:10461000EF018091EF0187FF05C00E94572181952E
:104620008093EF01111624F40E9457218093F0012A
:104630008091F00187FF05C00E94572181958093EA
:10464000F001DF91CF911F910C947D229F3F09F0E3
:104650008ECF96CFDF91CF911F910895ECEEF1E0D0
:1046600085E0DF011D928A95E9F71092EB01109227
:10467000EA010895833081F128F4813059F08230C5
:10468000D1F00895853009F449C0B8F1863009F4B5
:1046900056C0089580910901262F30E0280F311D62
:1046A0002F3F310524F4680F6093090108958FEFBF
:1046B00080930901089580910801262F30E0280F8A
:1046C000311D2F3F310524F4680F609308010895D0
:1046D0008FEF80930801089580910701262F30E025
:1046E000280F311D2F3F310524F4680F6093070117
:1046F00008958FEF80930701089580910601262F7A
:1047000030E0280F311D2F3F310524F4680F6093EE
:10471000060108958FEF80930601089580910501A9
:10472000262F30E0280F311D2F3F310524F4680F6C
:104730006093050108958FEF80930501089580919E
:104740000401262F30E0280F311D2F3F310524F4BE
:10475000680F6093040108958FEF8093040108951A
:10476000833011F128F4813049F0823091F00895BE
:10477000853081F120F18630C1F1089580910901E1
:10478000681720F4861B809309010895109209018F
:10479000089580910801681720F4861B8093080112
:1047A000089510920801089580910701681720F478
:1047B000861B809307010895109207010895809148
:1047C0000601681720F4861B809306010895109255
:1047D0000601089580910501681720F4861B8093D7
:1047E000050108951092050108958091040168174C
:1047F00020F4861B8093040108951092040108950B
:104800000F931F938732D8F58E3108F081C08E3018
:1048100009F46BC098F4873009F459C08B3009F45F
:104820008BC0863009F08FC08091E601817F8E7F3A
:104830008093E60181E08093F20186C0863109F41D
:104840007BC068F4803109F07EC08091E60183FB73
:10485000222720F991E0922790FB83F94FC08931FC
:1048600009F46AC08B3109F06EC08091E60181FBCA
:10487000222720F991E0922790FB81F93FC08833ED
:1048800009F45AC050F4893209F458C0853309F448
:1048900055C0873209F452C056C0833409F44EC063
:1048A00028F48A3308F44FC0895333C0883409F0A0
:1048B0004AC00E94D0190FEF13ED20E301501040C1
:1048C0002040E1F700C000000E94E42035C0809144
:1048D000E601982F9095917090FB80F98093E60106
:1048E00091112AC0897F877F10C08091E60182FBE9
:1048F000222720F991E0922790FB82F98093E6012C
:104900009923D1F08091E60181608093E60114C083
:104910008D5141E050E060E070E08A019B0104C0ED
:10492000000F111F221F331F8A95D2F7C901B8014A
:104930000E94971D0E94D01981E006C061E070E0DE
:1049400080E090E0F5CF80E01F910F91089580E026
:10495000089580E008958E518A3030F4E82FF0E019
:10496000EB5DFE4F8081089580E00895CF93C82FBE
:104970008091F201813069F018F08230C9F183C072
:10498000E0910201F09103018081823209F07DC043
:1049900007C0E0910201F09103018081823261F44D
:1049A0008C2F0E94A724811104C08C2F0E94002408
:1049B0001DC081E090E01AC08C2F0E94A9248111B3
:1049C00014C0C43179F048F4CB3079F0C03109F02B
:1049D00060C082E08093F20108C0C93219F0C83388
:1049E00021F057C01092F20154C081E0817053C091
:1049F000C93289F118F5C43171F1B0F4C73009F04A
:104A000046C08EE18093090182E3809308018AE029
:104A10008093070184E18093060188E0809305017B
:104A200088E28093040133C082EE8C0F863078F5E3
:104A30008C2F0E94AB248093F10129C0CE34E9F081
:104A400020F4CB3421F56AE013C0C13579F0C235CA
:104A5000F1F461E00DC08091F101882319F010920A
:104A6000F10115C081E08093F20115C061E006C03C
:104A70008091F1010E943A230AC06AE08091F1011D
:104A80000E94B02304C01092F20180E004C081E0D3
:104A900002C080E0ABCFCF9108958091FB010895D3
:104AA0000F931F93CF93DF9300D01F92CDB7DEB744
:104AB0008C010E949827823011F0843019F593E020
:104AC00099831B830A839093E9008FEF9091E8000C
:104AD000815095FD06C095ED9A95F1F70000811182
:104AE000F5CF8091E80085FF0DC040E050E063E025
:104AF00070E0CE0101960E94B5278091E8008E7784
:104B00008093E8000F900F900F90DF91CF911F914D
:104B10000F910895CF93DF9300D01F92CDB7DEB7EA
:104B200020913602243031F522E029838058910902
:104B30009B838A8383E08093E9008FEF9091E80064
:104B4000815095FD06C095ED9A95F1F70000811111
:104B5000F5CF8091E80085FF0DC040E050E063E0B4
:104B600070E0CE0101960E94B5278091E8008E7713
:104B70008093E8000F900F900F90DF91CF910895F0
:104B8000CF93DF93EC010E949827823011F084309C
:104B9000F9F482E08093E9009FEF8091E800915062
:104BA00085FD06C085ED8A95F1F700009111F5CFDE
:104BB0008091E80085FF0CC040E050E065E070E0C7
:104BC000CE010E94B5278091E8008E778093E8009F
:104BD000DF91CF910895CF93DF93EC010E94982746
:104BE000823011F0843039F581E08093E9009FEF45
:104BF0008091E800915085FD06C085ED8A95F1F71A
:104C000000009111F5CF8091E80085FF14C040E0CD
:104C100050E068E070E0CE010E94B5279091E80076
:104C20009E779093E80098E0FE01A3EFB1E0019039
:104C30000D929A95E1F7DF91CF9108958091350219
:104C4000811109C00E944A290E94A7298091E2008F
:104C500084608093E20008951092350208950895CB
:104C600008950C94502042E061EC81E00E94C42839
:104C700042E061EC82E00E94C42842E061EC83E003
:104C80000C94C42880913802833009F453C030F466
:104C9000813071F0823009F48CC008958A3009F4B3
:104CA00078C08B3009F45EC0893009F09AC020C00A
:104CB00080913702813A09F094C08091E800877FA3
:104CC0008093E80080913B0290913C02892B21F473
:104CD00068E083EF91E003C060E080E090E070E086
:104CE0000E9400288091E8008B778093E800089567
:104CF00080913702813209F074C080913B0290911B
:104D00003C02892B09F06DC08091E800877F809379
:104D1000E8008091E80082FD05C080913602811193
:104D2000F8CF5FC08091F1008093FB018091E80093
:104D30008B7753C080913702813A09F052C080913D
:104D40003B0290913C02892B09F04BC08091E80016
:104D5000877F8093E8008091E80080FFFCCF8091FE
:104D6000140136C0809137028132D9F580913B021F
:104D700090913C02892BA9F58091E800877F809370
:104D8000E8000E94F92880913902809314010C9464
:104D9000D01980913702813221F58091E800877F18
:104DA0008093E8000E94F92880913A028093FC01E8
:104DB000089580913702813AA1F48091E800877FBD
:104DC0008093E8008091E80080FFFCCF8091FC0197
:104DD0008093F1008091E8008E778093E8000C9436
:104DE000F928089584B7877F84BF0FB6F894A895F3
:104DF00080916000886180936000109260000FBE17
:104E000080E880936100109261000E94C8140E94A3
:104E10004A290E94A7298091E20084608093E200E1
:104E200078940E94362C0E94CA148AE091E00E9475
:104E3000751480913602853069F40E940E208091AD
:104E400034028823B1F30E943C20882391F30E940E
:104E50009F27EFCF0E94D2140E943E14EACF292F41
:104E6000332723303105C9F064F42130310581F056
:104E70002230310509F043C084E590E029E93BE0A8
:104E800042C021323105F1F02232310541F137C003
:104E900082E190E02DEE3BE036C09927813091050C
:104EA00041F08230910541F0892B49F5E5E9FBE0BD
:104EB00005C0E5E8FBE002C0E9E5FBE0849190E095
:104EC0009F0121C063307105D0F4660F771FFB018D
:104ED000E85CFE4F2081318189E090E014C06330AE
:104EE000710568F4FB01EE0FFF1FEE5CFE4F2081A1
:104EF0003181FB01E15DFE4F808190E004C080E0E4
:104F000090E020E030E0FA01318320830895089595
:104F1000CF93C82F0E948727C093FD01CF9108959A
:104F200080913602843011F081E0089582E0089586
:104F30008091FD01811102C00C949027089580E1B9
:104F400089BD82E189BD09B400FEFDCF8091D80002
:104F50008F7D8093D8008091E00082608093E00094
:104F60008091E00081FDFCCF0895CF92DF92EF9217
:104F7000FF920F931F93CF93DF93EC018B016A0194
:104F80000E941829811133C0C114D10439F0F601EF
:104F900080819181081B190BC80FD91FE12CF12CBE
:104FA0000115110519F18091E80085FD16C0809169
:104FB000E8008E778093E800C114D10449F0F6012F
:104FC00080819181E80EF91EF182E08285E00FC0B8
:104FD0000E941829882321F30AC089918093F10047
:104FE00001501109FFEFEF1AFF0ADACF80E0DF91DD
:104FF000CF911F910F91FF90EF90DF90CF90089588
:1050000020913D0230913E022617370748F0611586
:10501000710539F42091E8002E772093E80001C053
:10502000B90140E061157105A9F1209136022223F2
:1050300009F443C0253009F442C02091E80023FD63
:1050400040C02091E80022FD32C02091E80020FFFE
:10505000E9CF4091F3002091F20030E0342BFC01C5
:10506000CF016115710559F02830310540F4819167
:105070008093F100615071092F5F3F4FF1CF41E004
:105080002830310509F040E02091E8002E77209388
:10509000E800C8CF4111C9CF0AC0809136028823E9
:1050A00061F0853061F08091E80083FD0AC0809155
:1050B000E80082FFF2CF80E0089582E0089583E067
:1050C000089581E0089520913D0230913E02261717
:1050D000370748F06115710539F42091E8002E7703
:1050E0002093E80001C0B901FC0120E061157105C1
:1050F00091F180913602882309F440C0853009F48B
:105100003FC08091E80083FD3DC08091E80082FDB2
:105110002FC08091E80080FFE9CF2091F3008091BB
:10512000F20090E0922B6115710559F088309105DD
:1051300040F424912093F100319661507109019659
:10514000F2CF21E0089709F020E08091E8008E7707
:105150008093E800CBCF2111CCCF0AC080913602DA
:10516000882361F0853061F08091E80083FD0AC0FA
:105170008091E80082FFF2CF80E0089582E00895F8
:1051800083E0089581E00895982F973058F5909323
:10519000E900981739F07091EC002091ED005091E2
:1051A000F00003C0242F762F50E021FF19C030916A
:1051B000EB003E7F3093EB003091ED003D7F30936C
:1051C000ED003091EB0031603093EB007093EC0018
:1051D0002093ED005093F0002091EE0027FF07C0D0
:1051E0009F5FD3CF8F708093E90081E0089580E0C6
:1051F00008958091370287FF11C08091E80082FDF9
:1052000005C0809136028111F8CF11C08091E8006D
:105210008B770BC080913602882349F08091E8009B
:1052200080FFF8CF8091E8008E778093E8000895A2
:105230002091E4003091E50095E64091EC00842F48
:10524000817040FF22C08091E80080FD1CC08091E9
:105250003602882391F0853091F08091EB0085FD36
:1052600010C04091E4005091E5004217530729F324
:105270009A01915011F784E0089582E0089583E047
:10528000089581E0089580E008954091E80042FF8C
:10529000DECF08950E94B8290E94C029E0EEF0E018
:1052A000808181608083E8EDF0E080818F7780836A
:1052B00019BCA7EDB0E08C918E7F8C9380818F7E9E
:1052C00080831092350208950F931F93CF93DF933D
:1052D0000E94B8290E94C029C8EDD0E088818F774C
:1052E000888388818068888388818F7D888319BCC2
:1052F000109236021092320210923402109233024F
:1053000000EE10E0F80180818B7F808388818160CE
:10531000888342E060E080E00E94C428E1EEF0E093
:1053200080818E7F8083E2EEF0E0808181608083E7
:10533000808188608083F80180818E7F808388816E
:1053400080618883DF91CF911F910F910895E8EDDF
:10535000F0E080818F7E8083E7EDF0E080818160E6
:10536000808384E082BF81E0809335020C946429BD
:10537000E8EDF0E080818E7F80831092E200089556
:105380001092DA001092E10008951F920F920FB66A
:105390000F9211242F933F934F935F936F937F93BB
:1053A0008F939F93AF93BF93EF93FF938091E1000F
:1053B00082FF0BC08091E20082FF07C08091E10074
:1053C0008B7F8093E1000E94352C8091DA0080FF72
:1053D0001FC08091D80080FF1BC08091DA008E7FB3
:1053E0008093DA008091D90080FF0DC080E189BDF3
:1053F00082E189BD09B400FEFDCF81E080933602D1
:105400000E941E2605C019BC109236020E942C264E
:105410008091E10080FF19C08091E20080FF15C0FB
:105420008091E2008E7F8093E2008091E2008061B3
:105430008093E2008091D80080628093D80019BCEC
:1054400085E0809336020E9430268091E10084FF3F
:1054500030C08091E20084FF2CC080E189BD82E1F0
:1054600089BD09B400FEFDCF8091D8008F7D809367
:10547000D8008091E1008F7E8093E1008091E2006E
:105480008F7E8093E2008091E20081608093E20051
:1054900080913202882311F084E007C08091E300FC
:1054A00087FD02C081E001C083E0809336020E9444
:1054B00031268091E10083FF29C08091E20083FFC3
:1054C00025C08091E100877F8093E10082E0809396
:1054D0003602109232028091E1008E7F8093E100CB
:1054E0008091E2008E7F8093E2008091E2008061F3
:1054F0008093E20042E060E080E00E94C428809156
:10550000F00088608093F0000E942F26FF91EF91B9
:10551000BF91AF919F918F917F916F915F914F91CB
:105520003F912F910F900FBE0F901F9018951F92D3
:105530000F920FB60F9211242F933F934F935F93C7
:105540006F937F938F939F93AF93BF93CF93DF938B
:10555000EF93FF93C091E900CF708091EC00D82FBA
:10556000D17080FDD0E81092E9008091F000877F33
:105570008093F00078940E94DB2A1092E9008091D9
:10558000F00088608093F000CD2BCF70C093E900CD
:10559000FF91EF91DF91CF91BF91AF919F918F914B
:1055A0007F916F915F914F913F912F910F900FBE1F
:1055B0000F901F9018951F93CF93DF93CDB7DEB751
:1055C000AA970FB6F894DEBF0FBECDBFE7E3F2E0B7
:1055D00088E08E0F9091F10091938E13FBCF0E9483
:1055E00042268091E80083FF28C180913702909184
:1055F0003802492F50E04A30510508F01EC1FA0127
:10560000E556FF4F0C94AA2D803821F0823809F01E
:1056100014C108C08091330290913402992389F01B
:1056200082600FC080913B028F70873008F005C107
:105630008093E9008091EB0085FB882780F9109228
:10564000E9009091E800977F9093E8008093F10043
:105650001092F100D0C0282F2D7F09F0EEC08823D2
:1056600019F0823061F0E9C080913902813009F08F
:10567000E4C0933009F080E0809334022EC0809122
:10568000390281112AC080913B028F702FEF280FC1
:10569000263008F0D2C08093E9002091EB0020FF73
:1056A0001CC0933021F48091EB00806214C0909173
:1056B000EB0090619093EB0021E030E0A90102C083
:1056C000440F551F8A95E2F74093EA001092EA00D2
:1056D0008091EB0088608093EB001092E90080914C
:1056E000E800877F8093E8000E94F928A6C0811116
:1056F000A4C0109139021F778091E3008078812B3C
:105700008093E3008091E800877F8093E8000E9407
:10571000F9288091E80080FFFCCF8091E300806849
:105720008093E300111102C082E001C083E0809306
:10573000360283C08058823008F07FC080913902E1
:1057400090913A028C3D53E0950779F583E08A8386
:105750008AE289834FB7F894DE01139620E03EE099
:1057600051E2E32FF0E050935700E49120FF03C093
:10577000E295EF703F5FEF708E2F90E0EA3010F00F
:10578000C79601C0C0968D939D932F5F243149F732
:105790004FBF8091E800877F8093E8006AE270E065
:1057A000CE0101960E94002815C060913B027091C5
:1057B0003C02AE014F5F5F4F0E942F27BC01892B37
:1057C000E1F19091E800977F9093E80089819A81B8
:1057D0000E9463288091E8008B778093E8002DC0B9
:1057E000803859F58091E800877F8093E8008091A8
:1057F00032028093F1008091E8008E7773CF81119F
:105800001CC0909139029230C0F48091E800877FEB
:105810008093E800909332020E94F928809132022E
:10582000811106C08091E30087FD02C081E001C0C4
:1058300084E0809336020E9433268091E80083FF43
:105840000AC08091E800877F8093E8008091EB0098
:1058500080628093EB00AA960FB6F894DEBF0FBE6D
:10586000CDBFDF91CF911F9108950895CF9380917F
:1058700036028823A1F0C091E900CF709091EC002E
:10588000892F817090FD80E8C82B1092E9008091EB
:10589000E80083FD0E94DB2ACF70C093E900CF911E
:1058A00008950E94582C6894B1110C94E72C089527
:1058B0000E94CC2C88F09F5798F0B92F9927B751A8
:1058C000B0F0E1F0660F771F881F991F1AF0BA95A4
:1058D000C9F714C0B13091F00E94E62CB1E00895F0
:1058E0000C94E62C672F782F8827B85F39F0B93FE2
:1058F000CCF3869577956795B395D9F73EF4909557
:105900008095709561957F4F8F4F9F4F0895E894D4
:1059100009C097FB3EF490958095709561957F4FF7
:105920008F4F9F4F9923A9F0F92F96E9BB279395A5
:10593000F695879577956795B795F111F8CFFAF4B5
:10594000BB0F11F460FF1BC06F5F7F4F8F4F9F4FE6
:1059500016C0882311F096E911C0772321F09EE844
:10596000872F762F05C0662371F096E8862F70E0AA
:1059700060E02AF09A95660F771F881FDAF7880F84
:105980009695879597F9089557FD9058440F551FA0
:1059900059F05F3F71F04795880F97FB991F61F0B1
:1059A0009F3F79F087950895121613061406551F28
:1059B000F2CF4695F1DF08C0161617061806991F94
:1059C000F1CF86957105610508940895E894BB2789
:1059D00066277727CB0197F908950E94002D0C9434
:1059E000712D0E94632D38F00E946A2D20F09523BE
:1059F00011F00C945A2D0C94602D11240C94E72C6A
:105A00000E94C42C70F3959FC1F3950F50E0551F71
:105A1000629FF001729FBB27F00DB11D639FAA2703
:105A2000F00DB11DAA1F649F6627B00DA11D661F52
:105A3000829F2227B00DA11D621F739FB00DA11D73
:105A4000621F839FA00D611D221F749F3327A00D2D
:105A5000611D231F849F600D211D822F762F6A2FC9
:105A600011249F5750409AF0F1F088234AF0EE0F2E
:105A7000FF1FBB1F661F771F881F91505040A9F75B
:105A80009E3F510580F00C945A2D0C94E72C5F3FFB
:105A9000E4F3983ED4F3869577956795B795F79597
:105AA000E7959F5FC1F7FE2B880F911D969587950F
:105AB00097F9089597F99F6780E870E060E008958E
:105AC0009FEF80EC089500240A9416161706180616
:105AD0000906089500240A941216130614060506F2
:105AE0000895092E0394000C11F4882352F0BB0F83
:105AF00040F4BF2B11F460FF04C06F5F7F4F8F4FE6
:105B00009F4F0895AA1BBB1B51E107C0AA1FBB1FD3
:105B1000A617B70710F0A61BB70B881F991F5A9539
:105B2000A9F780959095BC01CD01089597FB072EAC
:105B300016F4009407D077FD09D00E94822D07FC4F
:105B400005D03EF4909581959F4F0895709561958D
:105B50007F4F0895EE0FFF1F0590F491E02D0994FB
:105B6000F999FECF92BD81BDF89A992780B5089525
:105B7000A6E1B0E044E050E00C94E92DA8E1B0E0EB
:105B800042E050E00C94E92D262FF999FECF92BD0A
:105B900081BDF89A019700B4021631F020BD0FB60E
:105BA000F894FA9AF99A0FBE08950396272F0E9447
:105BB000C52D0E94C42D252F0E94C52D242F0C9485
:105BC000C52D0196272F0E94C52D0C94C42DDC01F4
:105BD000CB01FC01F999FECF06C0F2BDE1BDF89AF8
:105BE000319600B40D9241505040B8F70895F894A2
:025BF000FFCFE5
:105BF20001FFDB012808140A321E4D25EB25C025C2
:105C02008A25502501F6F7313332369497C634355A
:105C12000000000000010203040506070809004015
:0E5C22004D36820C350CFF0BAB0BC40BDD0BAB
:00000001FF
