:100000000C946A040C94DB320C94A2040C94A204A9
:100010000C94A2040C94A2040C94A2040C94A204C8
:100020000C94A2040C94A2040C944A2A0C94062A60
:100030000C949D2B0C94A2040C94A2040C94A20486
:100040000C94A2040C94A2040C94A2040C94A20498
:100050000C94A2040C94792B0C94A2040C94A2048A
:100060000C94A2040C94A2040C94A2040C94A20478
:100070000C94A2040C94A2040C94A2040C94A20468
:100080000C94A2040C94A2040C94A2040C94A20458
:100090000C94A2040C94A2040C94A2040C94A20448
:1000A0000C94A2040C94A2040C94A2040631FF093F
:1000B00074A1010975150026FF00952075088102BD
:1000C0000976150026FF00952075089102C00501EC
:1000D0000980A101850319012AB700150126B7007F
:1000E000950175108100C0050C0901A10185041955
:1000F000012AA002150126A002950175108100C0F9
:100100000660FF0961A1010962150026FF00952024
:10011000750881020963150026FF00952075089176
:1001200002C005010906A101050719E029E715002C
:100130002501950875018102950175088101050762
:10014000190029FF150026FF009506750881000596
:10015000081901290595057501910295017503910D
:1001600001C00000000000000000000000000000CE
:10017000000000000000000000000000000000007F
:100180000000000000007E0F00D4FFFFFFC700004A
:10019000007800000000000000002A2B280000006A
:1001A0000000000000000000000000000029000026
:1001B00000002C1E3420212224342627252E362D03
:1001C0003738271E1F202122232425263333362E9D
:1001D00037381F0405060708090A0B0C0D0E0F100F
:1001E0001112131415161718191A1B1C1D2F313054
:1001F000232D350405060708090A0B0C0D0E0F10F8
:100200001112131415161718191A1B1C1D2F313033
:10021000354C726762206D617472697820746F6703
:10022000676C65205B25735D3A207267625F6D6164
:10023000747269785F636F6E6669672E656E61625E
:100240006C65203D2025750A0044454255473A20FB
:1002500064697361626C65642E0A004445425547C7
:100260003A20656E61626C65642E0A004F6E65739C
:10027000686F743A206163746976653A2025640A70
:10028000000A002530325820006B6579626F617278
:10029000645F7265706F72743A20005461726765B2
:1002A0007420636F6E6E65637465640D0A0054613B
:1002B0007267657420646973636F6E6E65637465DD
:1002C000642C207468726F74746C696E6720636F3D
:1002D0006E6E656374696F6E20617474656D7074A1
:1002E000730D0A004661696C656420746F2065783F
:1002F00065637574652025730A007267625F6D61BE
:10030000747269785F636F6E6669672E666C616789
:1003100073203D2025640A007267625F6D6174720C
:1003200069785F636F6E6669672E737065656420B8
:100330003D2025640A007267625F6D61747269789E
:100340005F636F6E6669672E6873762E76203D2038
:1003500025640A007267625F6D61747269785F6319
:100360006F6E6669672E6873762E73203D20256454
:100370000A007267625F6D61747269785F636F6EA5
:100380006669672E6873762E68203D2025640A0012
:100390007267625F6D61747269785F636F6E6669C0
:1003A000672E6D6F6465203D2025640A00726762C8
:1003B0005F6D61747269785F636F6E6669672E65E1
:1003C0006E61626C65203D2025640A007267625F81
:1003D0006D61747269785F636F6E66696720454509
:1003E00050524F4D0A007267625F6D617472697896
:1003F0005F696E69745F6472697665727320726793
:10040000625F6D61747269785F636F6E6669672E93
:100410006D6F6465203D20302E2057726974652011
:1004200064656661756C742076616C7565732074A3
:100430006F20454550524F4D2E0A007267625F6D26
:1004400061747269785F696E69745F6472697665F8
:100450007273206565636F6E666967206973206ECD
:100460006F7420656E61626C65642E0A005B735D5B
:10047000000A0025303862003A200025303258004A
:100480000A722F632030313233343536370A000A8E
:100490000025303258006C65645F7461736B3A20DC
:1004A0000000010101010101010101020202020239
:1004B000020202020303030303030303040404040C
:1004C00004040405050505050606060606070707D4
:1004D000070708080808090909090A0A0A0B0B0B8B
:1004E0000C0C0C0D0D0D0E0E0E0F0F0F1010111128
:1004F00011121213131414151516161717181819AC
:10050000191A1A1B1B1C1D1D1E1E1F202021222212
:10051000232424252626272829292A2B2C2D2D2E55
:100520002F30313232333435363738393A3B3C3D6F
:100530003E3F404142434445464748494A4C4D4E60
:100540004F50515354555658595A5B5D5E5F616226
:1005500064656668696B6C6D6F7072737577787AB5
:100560007B7D7E8082838587888A8C8E8F91939510
:1005700096989A9C9EA0A2A3A5A7A9ABADAFB1B334
:10058000B5B7BABCBEC0C2C4C6C9CBCDCFD1D4D614
:10059000D8DBDDDFE2E4E7E9EBEEF0F3F5F8FAFDB6
:1005A000FF6565636F6E6669675F7570646174652A
:1005B0005F7267625F6D61747269785F64656661BE
:1005C000756C740A00726762206D617472697820BC
:1005D0006D6F6465205B25735D3A2025750A007296
:1005E0006762206D61747269782073657420687326
:1005F00076205B25735D3A2025752C25752C257595
:100600000A00726762206D61747269782073657484
:10061000207370656564205B25735D3A2025750A3B
:100620000029001E001F002000210022002B0014C2
:10063000001A00080015001700E00004001600076B
:100640000009000A00E1001D001B0006001900055A
:100650000000000000E300105F28004A002A002785
:100660000026002500240023004C00130012000C7B
:100670000018001C00340033000F000E000D000BAA
:1006800000E50038003700360010001100000000BF
:1006900000E600115F2C004D0035021E021F0220F3
:1006A0000221022202005C1E001F00200021002205
:1006B000004C00010050004F0052002F00C05C01B0
:1006C000000100010051002F0200000000010001A4
:1006D000004C0026022A00270226022502240223BB
:1006E0000201002700260025002400230031022EED
:1006F000025E005D005C00300001002D005B005ACE
:10070000005900300200000000620001004C002788
:100710000245003A003B003C003D003E00C25C1E2A
:10072000021F02200221022202C35CAC00AB00A91E
:10073000004B002D02A800AD00AE00AA004E002D17
:1007400000000000000100010001002602440043F7
:10075000004200410040003F000100270226022520
:1007600002240223023100C95CC75CC55C4A002E2A
:10077000000100CA5CC85CC65C4D002E020000008F
:100780000001000100010001000100010001000161
:100790000001000100010001000100010001000151
:1007A0000001000100010001000100010001000141
:1007B0000001000100010001000000000001000133
:1007C0000001000100010001000100010001000121
:1007D0000001000100010001000100010001000111
:1007E0000001000100010001000100010001000101
:1007F00000010001000000000001000100010001F3
:10080000005B435D005B445D005B535D005B575DD7
:10081000005B525D0009027B00040100A0FA09049C
:100820000000010301010009211101000122400023
:10083000070581030800010904010002030000000C
:100840000921110100012222000705820320000175
:100850000705030320000109040200010300000052
:100860000921110100012232000705840320000143
:100870000904030002030000000921110100012204
:10088000220007058503200001070505032000015C
:10089000120100020000000810CB5663100601028E
:1008A00000011C034900720069007300200052001F
:1008B000650076002E00200036002E00310000007A
:1008C0000E034B0065006500620069006F000000C8
:1008D0000403090411241FBECFEFDAE0DEBFCDBF51
:1008E00004B603FE18C08091260590912705A091BB
:1008F0002805B09129058730904BA740B04B59F49B
:1009000010922605109227051092280510922905AD
:10091000E0E0F8E3099512E0A0E0B1E0ECECFAE6E3
:1009200002C005900D92AE3FB107D9F725E0AEEFBA
:10093000B2E001C01D92A632B207E1F70E94C42BBB
:100940000C9418350C940000FF93EF93E091FE0295
:10095000F091FF02309709F00995EF91FF9108950A
:10096000FC018591803011F0EFDFFBCF0895FF2768
:10097000E0E230E247FF0CC0419597FF09C0EDE28D
:100980006095709580959095611D711D811D911DDB
:1009900027FF02C0219530E350E2AA27660F771F98
:1009A000881F991FAA1FA41710F0A41B63955A95BE
:1009B000A9F7AA3008F0A95FA05DAF93F395611580
:1009C00071058105910541F7ED3211F4EF93F3952F
:1009D000F21718F43F93F395FBCF8F91B5DFFA959B
:1009E000E1F70895E991F9918591803021F0853200
:1009F00019F0AADFF9CF089520E0E8945591553217
:100A0000C1F3503311F4689455915A3348F450535C
:100A100090F3220F022E220F220F200D250FF4CF6C
:100A20000EF4219589919991533619F3533729F191
:100A3000533559F1BC0188279927E8945C3621F495
:100A40008991999168945591543639F446EF7EF026
:100A500077FF0DC08FEF9FEF0AC055374AE039F09E
:100A6000583540E121F0523642E009F00895FF93F5
:100A7000EF937DDFEF91FF91B7CFFF93EF93FC01F1
:100A800081918030B9F360DFFBCFFF93EF9368DF94
:100A9000F1CFDF93CF93CDB7DEB72596A3DFCF910C
:100AA000DF910895E8EDF0E080818E7F80831092E1
:100AB000E2001092DA001092E100A0EEB0E08C911A
:100AC00081608C9380818F77808319BCA7EDB0E023
:100AD0008C918E7F8C9380818F7E80831092D8043E
:100AE00008952091E4003091E50095E6A901209158
:100AF000EC00822F817020FF06C08091E80080FF0B
:100B000006C080E008952091E80022FD1AC080917F
:100B1000E504882389F0853089F08091EB0085FD1C
:100B20000FC02091E4003091E50042175307F9F21D
:100B30009150E1F684E0089582E0089583E00895FD
:100B400081E00895EF92FF920F931F93CF937C0162
:100B50008B010E947105C82F811117C08091E80098
:100B600085FD0BC08091E8008E778093E8000E949D
:100B70007105882399F3C82F08C0F70181917F017F
:100B80008093F1000150110949F78C2FCF911F91EB
:100B90000F91FF90EF9008958091E70487FF13C0B5
:100BA0008091E80082FF06C08091E8008B778093F7
:100BB000E80004C08091E5048111F2CF089580918E
:100BC000E5048823D9F38091E80080FFF8CF809175
:100BD000E8008E77ECCF982F9093E900242F762FA2
:100BE00050E0891731F07091EC002091ED005091A8
:100BF000F00021FD07C09F5F973071F78093E900F7
:100C000081E008953091EB003E7F3093EB0030910E
:100C1000ED003D7F3093ED003091EB00316030937B
:100C2000EB007093EC002093ED005093F0002091C6
:100C3000EE0027FDE0CF80E00895B0E0A0E0E3E221
:100C4000F6E00C940134C8EDD0E088818F7E888373
:100C5000E7EDF0E080818160808384E082BF81E005
:100C60008093D80488818E7F888302EE10E0F8019B
:100C700010821092DA0081EEC82ED12CF60110827B
:100C800088818F77888388818068888388818F7D39
:100C9000888319BC1092E5041092E6041092E404D3
:100CA0001092E30490EEE92EF12CF70180818B7F06
:100CB000808388818160888342E060E080E00E94D8
:100CC000EB05F60180818E7F8083F8018081816051
:100CD0008083808188608083F70180818E7F80831C
:100CE000888180618883CDB7DEB7E8E00C941D343D
:100CF000FC018091ED049091EE0486179707A0F017
:100D00006115710529F49091E8009E779093E800B1
:100D100090E06115710551F4911108C08091E800CF
:100D200082FF34C080E00895BC01F2CF8091E504D9
:100D30008823C1F18530C1F18091E80083FD30C086
:100D40008091E80082FDEACF8091E80080FFE1CF4A
:100D50008091F3002091F200382F6115710519F090
:100D60002830310558F091E02830310509F090E045
:100D70002091E8002E772093E800CBCF81918093DB
:100D8000F100615071092F5F3F4FE7CF8091E5047B
:100D9000882341F0853041F08091E80083FFBECF89
:100DA00081E0089582E0089583E00895089508950C
:100DB0008091DA0408959C014FB7F8948091CE0495
:100DC0009091CF04A091D004B091D1044FBF821B69
:100DD000930B08952FB7F8946091CE047091CF04CF
:100DE0008091D0049091D1042FBF08952FB7F8942B
:100DF0008091CE049091CF04A091D004B091D10401
:100E00002FBF08959C01FC0132969FEF80E0419135
:100E1000461751F09F3F19F4411101C0982F8F5F81
:100E20008630A9F79F3F09F40895290F311D97FDDA
:100E30003A95F901628308952091CB043091CC0456
:100E40002817390771F09093CC048093CB04E0917C
:100E5000C904F091CA04309721F00084F185E02D97
:100E6000099508952091C7043091C80428173907BF
:100E700071F09093C8048093C704E091C904F09185
:100E8000CA04309721F00680F781E02D0995089576
:100E9000FC01680F791F8FEF91E32191822728E0F1
:100EA00030E087FF09C0880F892721503109C9F731
:100EB000E617F70791F70895880FF7CFFA01811128
:100EC00001C0FB010995089580934B018091200595
:100ED000837080934A010E94F41383E080934C0155
:100EE0000895EF92FF920F939701201B31092F3F36
:100EF000310519F010F02FEF30E02095382F320F28
:100F000008F43FEF832F0F91FF90EF900895EF9239
:100F1000FF920F939701201B31092F3F310519F0E4
:100F200010F02FEF30E0322F3095482F430F08F4A8
:100F30004FEF842F620F0F91FF90EF900895EF9283
:100F4000FF920F93972F093438F4B701601B710992
:100F50006F3F710519F010F06FEF70E0485F5F4F61
:100F60004131510540F0A901485F5F4F41315105C2
:100F700010F06FEF70E06095482F460F08F44FEFC8
:100F8000842F37FF02C02D5F3F4F3595279535954C
:100F9000279560912105620F792F0F91FF90EF90B7
:100FA0000895EF92FF920F931F930E0D1F2D111DA9
:100FB000F90137FF03C0F195E195F10924E0EE0F47
:100FC000FF1F2A95E1F7EF3FF10519F014F0EFEF5D
:100FD000F0E09A0157FF03C031952195310994E063
:100FE000220F331F9A95E1F72E173F070CF4F901F2
:100FF000E00FF11FEF3FF10519F010F0EFEFF0E017
:10100000E095282F3E2F230F08F42FEF822F1F91FA
:101010000F91FF90EF900895EF92FF920F93970139
:1010200095E0099F200D311D11242F3F310519F046
:1010300010F02FEF30E02095382F320F08F43FEFFB
:10104000832F0F91FF90EF90089522E8241B08F45E
:1010500020E0620F08954095282F429F412D1124D2
:10106000842F08950F931F9310E0F801EE0FFF1FD8
:10107000E25DFD4F9081905797FD9195000F111FF4
:10108000F801EE50FE4F05AD0052110B2003F001A8
:10109000219FF00D112408E310E0091B110997FDB1
:1010A000139540039001419F300D1124E20FF31F6F
:1010B0009F01220F331F2E0F3F1F37FF02C0215801
:1010C0003F4F220F232F221F330B620F1F910F91CF
:1010D00008950F931F93522F10E0F801EE0FFF1F9A
:1010E000EE50FE4FA5ADA052BB0B9D015203F00187
:1010F000539FF00D1124000F111FD801A25DBD4FA9
:101100000C910057110B40039001419F300D1124A9
:101110002E0F3F1F37FF02C0215C3F4F96E03595F1
:1011200027959A95E1F7620F1F910F9108950F93FC
:101130001F93522F10E0F801EE0FFF1FEE50FE4FED
:10114000A5ADA052BB0B9D015203F001539FF00DC2
:101150001124000F111FD801A25DBD4F0C91005743
:10116000110B40039001419F300D11242E0F3F1FA2
:1011700037FF02C021583F4F220F232F221F330B6E
:10118000620F1F910F910895EF920F93972F23E015
:10119000029FB0011124759567956E0D792F0F91FF
:1011A000EF900895322F50E0FA01EE0FFF1FEE503E
:1011B000FE4F95AD905297FD9195440F551FFA0142
:1011C000E25DFD4F2081231B330B290F311D97FD5D
:1011D0003A95620F0895E42FF0E0EE0FFF1FEE50F6
:1011E000FE4F65AD621B0895E42FF0E0EE0FFF1F88
:1011F000E25DFD4F6081621B0895622F0895E42F28
:10120000F0E0EE0FFF1FE25DFD4F408134EE439FA3
:10121000412D1124E82FF0E050E0445E5F4FDA01E9
:10122000A21BB1099D01B7FF03C03195219531097A
:1012300093E0220F331F9A95E1F7AF01421B530B46
:101240009A0157FD20E0582F259F212D1124822F30
:101250000895E42FF0E0EE0FFF1FE25DFD4F4081A7
:1012600034EE439F412D1124E72FF0E050E0445E1F
:101270005F4FDA01A21BB1099D01B7FF03C0319591
:101280002195310993E0220F331F9A95E1F7AF01C1
:10129000421B530B9A0157FD20E0279F212D11245B
:1012A000722F08950E94580B0895FF920F931F9379
:1012B000CF93DF93182F062FF42ED0E0C0E02F2D10
:1012C000402F612FCE010E9452092196C434D105CE
:1012D000B1F7CDB7DEB7E5E00C942034FC019B01FB
:1012E000009729F480E077FF2BC080E80895AC01D7
:1012F00097FF04C044275527481B590BB901640FB9
:10130000751F37FD10C0241B350BC901A5E0880FE0
:10131000991FAA95E1F70E944E3480E2861BF7FFE1
:101320000FC081950895CB0165E0880F991F6A95DC
:10133000E1F7BA01621B730B0E944E3480E6EECFD8
:101340000895EF920F93CF93DF93D72FC82FC90142
:101350000E19BA010E946E09602F681B7D2F8C2F19
:10136000DF91CF910F91EF9008950F93CF93DF937B
:10137000D72FC82FC901BA010E946E09682F600FCC
:101380007D2F8C2FDF91CF910F910895EF920F93C6
:101390001F93CF93DF93D62FC72F182FC9010E1994
:1013A000010FBA010E946E09081B202F219F212DD9
:1013B0001124822F6D2F7C2FDF91CF911F910F91E0
:1013C000EF900895EF920F931F93CF93DF93D62F53
:1013D000172FC82FC9010E19070FBA010E946E09F5
:1013E000702F781B719F712D11246D2F8C2FDF9121
:1013F000CF911F910F91EF9008950F931F93CF936B
:10140000DF93D62FC72F182FC901212F201B022FA2
:10141000BA010E946E09982F990F990F891B800FAE
:10142000282F219F212D1124822F6D2F7C2FDF91BA
:10143000CF911F910F9108950F931F93CF93DF9337
:10144000D62F172FC82FC901272F201B022FBA0113
:101450000E946E09982F990F990F782F791B700FA2
:10146000719F712D11246D2F8C2FDF91CF911F91C2
:101470000F910895E82F86FDE0952E2F2F7086FDA1
:101480002F5FE695E695E695E670F0E0EA52FE4FAE
:101490009181929F902D212D112492959F702295DC
:1014A000207F922B2081920F87FD919580E8890FF4
:1014B0000895AC018230910508F408959FEF413EF4
:1014C0008EE1580740F49A0195E0369527959A9554
:1014D000E1F798E0920F61E0E62FE90FFF27FF1F89
:1014E0009F0135952795822F229FF001239FF00DB4
:1014F000F00D11244E175F0738F49FEF920F9617E7
:1015000058F78FEF860F08952F3FE9F361E0620FE0
:10151000F6CF0F93CF93DF93D72FC82F47FD419579
:1015200088E390E0841B910947FD9395889FB00163
:10153000899F700D700D1124229FC001239F900D73
:10154000900D1124860F971F0E94590A982F990F0A
:10155000890F682F600F7D2F8C2FDF91CF910F9116
:10156000089530E020E0869F212D969F200D311DAB
:101570001124C9010895AF92BF92CF92DF92FF92DA
:101580000F931F93CF93DF93362F472FE82FF0E071
:10159000EF55FB4F71110FC0E4918E2F2E2F6E2F40
:1015A000722FDF91CF911F910F91FF90DF90CF901D
:1015B000BF90AF900895C72FD0E02491F22E022F54
:1015C00010E056E0659FC0011124EFEFF0E0BF018D
:1015D0000E943A34832F90E0880F991F35E5369F9B
:1015E000D001379FB00D11248A1B9B0B982F990FA8
:1015F000980F6F01CC1ADD0AC09ED001C19EB00DBC
:10160000D09EB00D11248B2F499FA0011124452F8E
:1016100055276F01C41AD50AC09EA001C19E500D66
:10162000D09E500D11245F01A91AB108AC9E600133
:10163000AD9ED00CBC9ED00C1124CD2CDD24EC1919
:10164000FD09E09FE001E19FD00DF09FD00D112436
:10165000ED2F62307105A1F050F46115710509F4A8
:101660009ECF6130710581F0EB2F852F98CF6430CC
:10167000710569F080F06630710509F490CFF4CF00
:10168000E22F2B2F8D2F8BCFE22F252F88CFEB2F03
:10169000822F2D2F84CF2B2F8F2DE52F80CF789465
:1016A000089555985D9889B185FB882780F908953C
:1016B000FF920F931F93CF93DF93EC01F62E042F2D
:1016C000122F0E94510B81110FC0C232D1057CF044
:1016D000A297FE01EE0FFF1FEC0FFD1FE550FC4F20
:1016E000F1820083128303C0C232D10594F3CDB7D7
:1016F000DEB7E5E00C942034CF93C82F0E94510B45
:10170000882329F081E0C23228F080E003C081E024
:10171000C434D8F7CF910895A8E0B0E0E2E9FBE047
:101720000C94F733282E7C836B8320914E018EE03E
:10173000289F802D11248D83825F8983853410F04A
:1017400034E439830E94510B882329F08981833244
:1017500010F092E299830E94510B811105C0ED8136
:10176000E23210F4F2E2FD832091F3042A839D819A
:10177000892F90E098878F83880F991FFC01EE5086
:10178000FE4F6F01822D90E09C012F5F3F4F3E8303
:101790002D8389819F81981730F00E947C0B2896B9
:1017A000E2E10C941334EF81F885EA54FD4F808117
:1017B00090914F018923F9F0309021054090220546
:1017C0008D819E818D509B4F3C01522C10E0FA81FF
:1017D0005F16D8F020912305129F112D1124632D3F
:1017E000742D812F0E94BB0A462F282F672F8F81CF
:1017F00098850E9452092F8138852F5F3F4F388787
:101800002F8332E0C30ED11CC4CFF30181913F017D
:10181000F601A4ACA81ABB0885ACF3018781881A2D
:101820009908AA9C9001AB9C300D300D1124889C26
:10183000C001899C900D900D1124820F931F0E946E
:10184000590A082F6091240521E0620F08F46FEF18
:10185000F301EE0FFF1FE35FF440858996890E9434
:10186000B10A7C019401A501632D742D812FEB81B8
:10187000FC810995362E472E5394182FA8CFB0E03F
:10188000A0E0E5E4FCE00C9401347C01C0914E0141
:101890008EE0C89FC02D11241EE01C0F153408F0E7
:1018A00014E40E94510B882319F0133208F012E25D
:1018B0000E94510B811103C0C23208F4C2E2209190
:1018C000240531E0230F08F42FEF30E050E040E032
:1018D0006FEF7FEF80E090E00E9462346901D0E01A
:1018E00001E02C2FC11740F0812F0E947C0BCDB757
:1018F000DEB7E8E00C941D34FE01EA54FD4F808110
:1019000090914F01892309F14091F3044150042E35
:10191000000C550B47FF1BC0C60160912405600FEA
:1019200008F46FEF0E94B10AAC016091210570913B
:10193000220580912305F70109950E94BB0A462FD5
:10194000282F672FCE010E9452092196CACFFA0193
:10195000ED50FB4F818982130AC0FA01EE0FFF1F81
:10196000ED50FB4F818D928D8C159D05B0F241504D
:101970005109D0CFB0E0A0E0E0ECFCE00C94FF33E4
:101980006C01C0914E018EE0C89FC02D11241EE055
:101990001C0F153408F014E40E94510B882319F031
:1019A000133208F012E20E94510B811103C0C232BF
:1019B00008F4C2E260912405669566958091EF0473
:1019C0009091F0040E94B10AF82E80E48F0D0E94DD
:1019D0003A0A90E8B92EB80E8F2D0E943A0A20E8F4
:1019E000A22EA80ED0E0C11740F0812F0E947C0BE0
:1019F000CDB7DEB7EAE00C941B34FE01EA54FD4F8C
:101A0000808190914F018923A1F06091210570910F
:101A1000220580912305EF2C0C2F2A2D4B2DF6014A
:101A200009950E94BB0A462F282F672FCE010E94DE
:101A300052092196D8CFB0E0A0E0E1E2FDE00C949D
:101A4000FB335C01C0914E018EE0C89FC02D112474
:101A50001EE01C0F153408F014E40E94510B88237B
:101A600019F0133208F012E20E94510B811103C0E9
:101A7000C23208F4C2E26091240566958091EF04B9
:101A80009091F0040E94B10AF82ED0E0CE01880FA8
:101A9000991F9C012E503E4F6901C11740F0812FC4
:101AA0000E947C0BCDB7DEB7EEE00C941734FE013C
:101AB000EA54FD4F808190914F01892379F1F6011D
:101AC00084AD282F2057330B490185ADE82FE05214
:101AD000FF0B3F01889C9001899C300D300D112433
:101AE000EE9FC001EF9F900D900D1124820F931F68
:101AF0000E94590A082F609121057091220580915A
:101B00002305EF2C9301A401F50109950E94BB0A5E
:101B1000462F282F672FCE010E945209F2E0CF0EE8
:101B2000D11C2196BACFB0E0A0E0E9E9FDE00C9429
:101B300000346C01C0914E018EE0C89FC02D11246D
:101B40001EE01C0F153408F014E40E94510B88238A
:101B500019F0133208F012E20E94510B811103C0F8
:101B6000C23208F4C2E26091240566958091EF04C8
:101B70009091F0040E94B10AB82ED0E0CE01880FF7
:101B8000991F9C012E503E4F7901C11740F0812FC3
:101B90000E947C0BCDB7DEB7E9E00C941C34FE014B
:101BA000EA54FD4F808190914F018923C1F0F701E4
:101BB00025AD2052330B44AD4057550B60912105A4
:101BC00070912205809123050B2DF60109950E9445
:101BD000BB0A462F282F672FCE010E945209F2E040
:101BE000EF0EF11C2196D1CFEF92FF920F931F932E
:101BF000CF93DF937C01C0914E018EE0C89FC02D32
:101C000011241EE01C0F153408F014E40E94510B3F
:101C1000882319F0133208F012E20E94510B81114F
:101C200003C0C23208F4C2E260912405669566954D
:101C300021E0620F08F46FEF8091EF049091F004BF
:101C40000E94B10A082FD0E0C11740F0812F0E94F6
:101C50007C0BCDB7DEB7E6E00C941F34FE01EA54EE
:101C6000FD4F808190914F01892391F06091210572
:101C70007091220580912305202F4C2FF7010995A3
:101C80000E94BB0A462F282F672FCE010E945209BF
:101C90002196DACFB0E0A0E0E0E5FEE00C94FF335F
:101CA000182F80914B01811323C0909120059370D0
:101CB00020914A0130E081E09217130609F480E098
:101CC0008170809350018091250590914F01981764
:101CD00039F080934F0140E060E080E00E945509B8
:101CE000133288F4E12FF0E0E65EFA4C0C94813474
:101CF00081E0E6CF80915001882389F140E060E0E7
:101D000080E00E94550980E02AC0C0914E018EE01B
:101D1000C89FC02D11240EE00C0F053408F004E418
:101D20000E94510B882319F0033208F002E20E944E
:101D3000510B811103C0C23208F4C2E26091210547
:101D400070912205809123050E94BB0AF62EE72E92
:101D5000D82ED0E0C017D8F0802F0E947C0B909135
:101D60004E019F5F90934E0181110CC082E08093E1
:101D70004C0180915001811105C0111103C083E015
:101D800080934C01CDB7DEB7EAE00C941B34FE0122
:101D9000EA54FD4F808190914F01892331F02D2D20
:101DA0004F2D6E2DCE010E9452092196D3CFC091A6
:101DB0004E018EE0C89FC02D11240EE00C0F05349B
:101DC00008F004E40E94510B882319F0033208F054
:101DD00002E20E94510B811103C0C23208F4C2E238
:101DE000E0902205F0902305D09121056D2F7E2DE6
:101DF0008F2D0E94BB0AD62EC72EB82E60912405C7
:101E00006D0F7E2D8F2D0E94BB0AF62EE72EA82E79
:101E1000D0E0C01708F0A0CFFE01EA54FD4F90813A
:101E200080914F01892359F02A2D4F2D6E2D90FD61
:101E300003C02B2D4D2D6C2DCE010E9452092196F1
:101E4000E8CFC0914E018EE0C89FC02D11240EE056
:101E50000C0F053408F004E40E94510B882319F09C
:101E6000033208F002E20E94510B811103C0C2321A
:101E700008F4C2E2E0902205D090230520912405C9
:101E800050E4F52E3F2D329F312D1124F32ED0E05A
:101E9000C01708F061CFFE01EA54FD4F8081909198
:101EA0004F018923B9F0FE01EE0FFF1FEE50FE4FE8
:101EB00085AD82958F70609121058F9D600D1124F5
:101EC0007E2D8D2D0E94BB0A462F282F672FCE0115
:101ED0000E9452092196DCCFC0914E018EE0C89F2E
:101EE000C02D11240EE00C0F053408F004E40E940C
:101EF000510B882319F0033208F002E20E94510BC3
:101F0000811103C0C23208F4C2E2E0902205D090F1
:101F100023052091240530E4F32E3F2D329F312DEF
:101F20001124F32ED0E0C01708F016CFFE01EA54BA
:101F3000FD4F808190914F018923D9F0FE01EE0F72
:101F4000FF1FEE50FE4F64ADF69EB001112495E0E8
:101F5000759567959A95E1F780912105680F7E2D1B
:101F60008D2D0E94BB0A462F282F672FCE010E947D
:101F700052092196D8CFC0914E018EE0C89FC02D46
:101F800011240EE00C0F053408F004E40E94510BFC
:101F9000882319F0033208F002E20E94510B8111EC
:101FA00003C0C23208F4C2E2F0902105D0912205AC
:101FB000E09023056091240566956695669580916D
:101FC000EF049091F0040E94B10A0E943A0A8058EE
:101FD00087FD8195880F282F3E2D239F212D1124C9
:101FE000822F6F2D7D2F0E94BB0AF62EE72ED82E52
:101FF000D0E0C01708F0B0CEFE01EA54FD4F80815A
:1020000090914F01892331F02D2D4F2D6E2DCE0152
:102010000E9452092196EDCF89E299E00E94F40DC9
:102020009ECE8FEF98E0FACF8CE19AE00E94930D5C
:1020300096CE8DEF99E0FACF82EE99E00E941B0DCB
:102040008ECE86EC99E0FACF8DEF98E0E7CF84EF63
:1020500098E0E4CF8BEE98E0E1CF82ED98E0DECF20
:1020600084EC98E0EBCF89E89AE0E0CF85EB99E04B
:10207000DDCF81EA99E0E2CF87E998E00E94BA0CCF
:102080006ECE89E698E0FACF82E398E0F7CF8BE254
:1020900098E00E943F0C63CE85E298E0FACF8091F1
:1020A000F30421E0382F321B08F430E0832F6CE07A
:1020B00078E00E948C0B53CE6CE078E080E0F9CFA2
:1020C0008091F30421E0382F321B08F430E0832F95
:1020D00061ED77E0EECF61ED77E0F0CF8091F30432
:1020E00021E0382F321B08F430E0832F6FE977E0CE
:1020F000E0CF6FE977E0E2CF8091F30421E0382F61
:10210000321B08F430E0832F67E877E0D2CF67E82E
:1021100077E0D4CF8091F30421E0382F321B08F40C
:1021200030E0832F61E777E0C4CF61E777E0C6CF87
:10213000F894E82FE295EF70F0E031A1282F2F708E
:1021400081E090E001C0880F2A95EAF7982F9095DA
:10215000932391A392A1892B82A30E944F0B0895F0
:102160009091AA0392FF06C0282F28712830F9F415
:10217000877F846093FF06C0282F28712831F1F4EF
:10218000877E84612091AB0320FF06C0382F387111
:102190003830D9F4877F816021FF06C0282F28714D
:1021A0002831D1F4877E816194FD877E0895282FA0
:1021B00024712430F9F68B7F8860DCCF282F2471BE
:1021C000243101F78B7E8861DDCF382F31713130BA
:1021D00019F78E7F8860E0CF282F2171213121F7F8
:1021E0008E7E8861E1CFCF93DF93EC018238910539
:1021F000A9F1D8F58133910509F496C048F58932E3
:10220000910509F48AC08A9709F495C0C11522E5A1
:10221000D20708F0B6C0C11531E5D30708F026C1D2
:10222000C83ED10508F09CC0C03ED10560F5C83A53
:10223000D10508F087C0C53AD10508F0EFC0C1301C
:10224000D10509F12097F9F0C430D105E0F440C080
:102250008533910509F45AC0C997C1F68091AA0344
:10226000837089F0C0EED0E00EC0833E910599F1F5
:1022700070F4803E910501F1823E910539F680911E
:10228000AA0382FD21C0CE01DF91CF910895863E41
:10229000910561F1873E910571F1843E910509F048
:1022A000B5CF8091AB0381FFEECF8091AA03C7EE3B
:1022B000D0E084FD0DC0E7CF8091AA0380FD07C167
:1022C0009091AB0390FFDFCFC3EED0E084FFDBCF74
:1022D000D0E0C0E0D8CF8091AA0382FDFBC09091EE
:1022E000AB0390FDBFCF84FFCECFF2CF8091AA0386
:1022F00083FDDDCFC8CF8091AA0383FDEEC090910E
:10230000AB0391FFF0CFC4EED0E0BDCF8091AA0324
:1023100085FFB9CFC9E2D0E0B6CF8091AA0385FF8F
:10232000B2CFC5E3D0E0AFCF8091AA0386FFABCF99
:10233000CAE2D0E0A8CF8091AA0386FFA4CFC1E370
:10234000D0E0A1CFCF3BD10518F6C85AD0E0CC0FD2
:10235000DD1FCA56DE4F0990D881C02DD46493CFBB
:10236000C11540E5D40708F064C0C11580E4D80762
:1023700008F05CC0CE019A9581159F4108F483CF87
:10238000A7CFC11536E5D30718F5C11545E5D40724
:1023900008F084C0C11584E5D80708F07AC09C2FE6
:1023A000969596959E0123703327C115D34508F461
:1023B00062C0C1E0D0E002C0CC0FDD1F2A95E2F779
:1023C00030E2939FC0011124C82BD92BDA685BCF70
:1023D000C1158AE5D80778F4C11599E5D90708F041
:1023E00068C0C11528E5D20708F472CFDC2FCC27CE
:1023F000C06FD06A48CFCE0190568115904208F048
:1024000067CF8D2F8F710E94B01090E0982F882792
:1024100088279F719C012C2BE90149C0C55AD0E047
:10242000CD56DE4FC881D0E0D0642DCFDF70D06AAA
:102430002ACFCE01E4E096958795EA95E1F783707F
:102440002C2F26952695237040E2249F900111247D
:10245000382B8C2F8370C1E0D0E002C0CC0FDD1F81
:102460008A95E2F7C22BD32BDC680DCFDC2FCC276B
:10247000C16FD06A08CFC1E0D0E002C0CC0FDD1F31
:102480002A95E2F720E2929FC0011124C82BD92B94
:10249000EBCFDC2FCC27C46FD06AF5CE8C2F0E94F7
:1024A000B010C82FD0E0DC2FCC27CC27DF71D06252
:1024B000EACE8C2F8F700E94B01034E0D695C7956D
:1024C0003A95E1F7CF709C2FEC01D069DCCEC9E3DF
:1024D000D0E0D9CEC2EED0E0D6CEC6EED0E0D3CE9C
:1024E0000E94EA06089580916403811110926403AA
:1024F00008958095909163039823909363030895C2
:102500008091580390912703981301C008958F5F1D
:102510008770FACF292F9A3078F5863068F590E0E9
:1025200036E0239F800D911D1124682F677023E0F2
:10253000969587952A95E1F7FC01EE0FFF1FE80FAE
:10254000F91FE75FFC4F50E040E080E0219130E070
:10255000062E02C0369527950A94E2F7217033279C
:10256000042E01C0220F0A94EAF7822B4F5F5F4FBF
:102570004330510559F7089580E00895292F9A3086
:1025800098F5863088F590E036E0239F800D911D08
:102590001124282F277041E001C0440F2A95EAF743
:1025A00023E0969587952A95E1F7FC01EE0FFF1F32
:1025B000E80FF91FE75FFC4F30E020E070E0519139
:1025C000DF011197CB01022E02C0969587950A94E0
:1025D000E2F7817081958527842385278C932F5F6F
:1025E0003F4F2330310559F70895829590E09C01C3
:1025F000220F331F220F331F2C7C959587959595BD
:1026000087958373282B30E0C901880F991F8A7A38
:10261000359527952575822B08959FB7F8941092CC
:10262000D6049FBF9091E504943009F048C02091F2
:10263000E9002F703091EC00932F917030FD90E8FD
:10264000922B25E02093E9002091EB0020FF34C07D
:102650002091EE0027FF30C02091D504222321F0E5
:102660002091E80025FF28C01092D50426E0309183
:10267000E80035FF14C08093F1008091E80085FDEB
:1026800027C08091E80080FFFCCF8091E8008E7722
:102690008093E8009F709093E90080E00895309166
:1026A000E504343049F43091EB0035FD05C021508C
:1026B00041F481E08093D5049F709093E9008FEFFF
:1026C0000895EFE9FFE03197F1F700C00000CFCFA8
:1026D0008FB7F89421E02093D6048FBFDBCF80938F
:1026E000D2047093D4046093D3048091E5048430C1
:1026F000F9F48093E9008FEF9091E800815095FD07
:1027000006C095ED9A95F1F700008111F5CF809103
:10271000E80085FF0DC050E040E063E070E082ED2E
:1027200094E00E94A2058091E8008E778093E800F3
:102730000895BC0184E00E946F130895BC0183E0FA
:102740000E946F130895CF93DF93EC0181E0809393
:10275000E9008FEF9091E800815095FD06C095ED5E
:102760009A95F1F700008111F5CF8091E80085FF7F
:1027700014C050E040E068E070E0CE010E94A20585
:102780008091E8008E778093E80088E0FE01ABED51
:10279000B4E001900D928A95E1F7DF91CF91089511
:1027A00081E08093E00080E28093D8001092C9001D
:1027B0008FE19EE40197F1F700C0000087E090EB05
:1027C000DC018093260590932705A0932805B093FC
:1027D000290588E19CE00FB6F894A89580936000E5
:1027E0000FBE90936000FFCF6E9A3EB13F7B2EB13B
:1027F00020644FB7F8948BEF93E0FC015191CF0127
:1028000068E02EB9000000C057FF3EB9550F000028
:1028100000C000C000C03EB900C06A9591F7F4E066
:10282000873C9F0751F74FBF8FE594E00197F1F781
:1028300000C00000089580917003811110C0809144
:10284000D80080618093D8008AE18A95F1F700C0B2
:102850008091D90080FF0AC081E08093700381E0FD
:1028600090917003913009F080E0089582E08093A8
:1028700070030E9452051092E504F1CF0E941B14D0
:10288000882359F0E091C904F091CA04309729F0E7
:102890000190F081E02D0995089580E008950F934F
:1028A0001F930E941B14882329F00E94EA061F919F
:1028B0000F9108950E94EA0600919A0310919B03DC
:1028C00020919C0330919D03600F711F821F931F05
:1028D000EECFCF92DF92EF92FF926B017C010E94CC
:1028E0001B148823A1F02FB7F8946091CE04709147
:1028F000CF048091D0049091D1042FBF6C197D0931
:102900008E099F09FF90EF90DF90CF9008950E946D
:102910004F14F4CFCF93DF93C7E0D2E060E0CE0155
:102920000E94DE342196C11584E0D807B9F7DF9103
:10293000CF9108951F93CF93DF93122F8430E0F44B
:102940006A30D0F44630C0F4C42FD0E0CC0FDD1F85
:102950009CE0699FC00DD11D112498E7899FC00D8F
:10296000D11D1124632FCE0187960E94DE34612F82
:10297000CE0188960E94DE34DF91CF911F91089599
:10298000AF92BF92CF92DF92EF92FF921F93CF93BD
:10299000DF9381E2C82E86E0D82ED0E07601C0E039
:1029A00014C0F50125913491412F6C2F8D2F0E9479
:1029B0009A1482E0A80EB11C1F5F163091F78CE0CC
:1029C000E80EF11CCF5FCA3019F0570110E0E9CFD3
:1029D000DF5F88E7C80ED11CD43001F7DF91CF91BB
:1029E0001F91FF90EF90DF90CF90BF90AF90089530
:1029F000CF93C82F6FEF811162E283E290E00E94D3
:102A0000DE346FEFC11164E084E290E00E94DE34B6
:102A10006FEFC11168E185E290E00E94DE34CF9152
:102A2000089580E00E94F81460E086E290E00E9441
:102A3000DE340E94C0140E948A1481E00E94F814BF
:102A400008950F931F93CF93DF93843030F56A304E
:102A500020F5463010F5C42FD0E0CC0FDD1F2CE060
:102A6000629FC00DD11D112438E7839FC00DD11D79
:102A70001124CE0187960E94C034082F10E0102F39
:102A80000027CE0188960E94C0349801282BC901E6
:102A9000DF91CF911F910F91089590E080E0F8CFE2
:102AA000462F843040F47A3030F4663020F4672FBB
:102AB0000E942115089590E080E00895CF92DF9262
:102AC000FF920F931F93CF93DF936C0100911F052B
:102AD00080916503082BC7E0D0E010E0FC2EC80110
:102AE0000C2E02C0959587950A94E2F780FD0CC0E4
:102AF0002197A0F7F12C8F2DDF91CF911F910F918E
:102B0000FF90DF90CF900895B6018C2F0E94501552
:102B10000E94F310019761F3EECFCF93DF93EC01A6
:102B20000E945E15BE010E9450150E94F310DF91B5
:102B3000CF910895FC01808191810E948D1592951D
:102B40009F70963091F058F4925F9F70923058F4D5
:102B5000803F19F030F4883E30F481E008959A5FA8
:102B6000F4CF843FD1F380E00895883EB0F3813FF5
:102B7000D1F7F3CF83E290E00E94C034823289F42F
:102B800084E290E00E94C034843059F485E290E001
:102B90000E94C03491E0883109F090E0892F817063
:102BA000089580E0FCCFCF9384E090E00E94C03491
:102BB000C82F82E290E00E94C034982F8C2FCF91D2
:102BC000089546E050E06CE170E080E295E00E94FC
:102BD000CE341092FA0308954F925F926F927F92D3
:102BE0008F929F92AF92BF92CF92DF92EF92FF921D
:102BF0006091F4037091F5038091F6039091F703CF
:102C00000E9469146B017C010E944F144B015C010E
:102C10008092F4039092F503A092F603B092F7032A
:102C2000A091CB03EBECF3E08A2F90E04FEF5FEF46
:102C300060E070E04C195D096E097F09A91328C096
:102C40008093CB038091F803811135C090912005CA
:102C5000892F837019F0892F8695869590914C0164
:102C6000913009F441C0992341F1923009F43FC0F9
:102C7000933009F43FC0FF90EF90DF90CF90BF906A
:102C8000AF909F908F907F906F905F904F9008953E
:102C9000218D328D2901712C612C44155505660555
:102CA000770520F481509F5F3296C8CF2C0D3D1DD3
:102CB000328F218FF8CF80E0D1CF10924E018092D9
:102CC000EF049092F004A092F104B092F20489E231
:102CD000EBECF3E0A3EFB4E001900D928A95E1F7FD
:102CE00081E080934C01C7CF0E944A0EC4CF0E945E
:102CF0006407C1CF8091FA0381110E94E1156091B0
:102D0000EF047091F0048091F1049091F2040E941C
:102D10006914603171058105910508F4ACCF1092FA
:102D20004C01A9CF809324059091FA03962B9093A0
:102D3000FA039091F90390FF16C02FE531E0662366
:102D400011F021E631E01F928F933F932F9382E0A1
:102D500096E09F938F930E9449050F900F900F90DC
:102D60000F900F900F900895FC0180818730B1F093
:102D7000883011F581818238F9F4809124058732F9
:102D800038F08F3538F08E3938F083E0828308953B
:102D900080E0FCCF81E0FACF82E0F8CF81818238F9
:102DA00059F4E2818FE7E43020F4F0E0E650FD4F83
:102DB000808160E00E94921608958091240520E1B0
:102DC000382F321B08F430E0832F61E00E94921606
:102DD00008958091240520E1382F320F08F43FEF49
:102DE000832F61E00E949216089530912005337080
:102DF00071F18093210560932205413A08F040EA81
:102E0000409323053091FA03322B3093FA0330912B
:102E1000F90330FF1CC050E09927211119C02FE59C
:102E200031E05F934F931F926F939F938F933F93E4
:102E30002F938FED95E09F938F930E9449058DB757
:102E40009EB70A960FB6F8949EBF0FBE8DBF089529
:102E500021E631E0E6CFE0E2F5E0438120E1421BEC
:102E600008F440E0818121E0628190E00E94F51643
:102E70000895E0E2F5E0438120E1420F08F44FEFCE
:102E8000818121E0628190E00E94F5160895E0E2E0
:102E9000F5E0628120E1621B08F460E0818121E0BD
:102EA000438190E00E94F5160895E0E2F5E062812A
:102EB00020E1620F08F46FEF818121E0438190E00F
:102EC0000E94F5160895E0E2F5E0818121E043815A
:102ED00062818850990B0E94F5160895E0E2F5E0B2
:102EE000818190E021E04381628108960E94F5167D
:102EF000089590912005937051F1811129C094603B
:102F00009093200510924C018091FA03862B8093B8
:102F1000FA038091F90380FF1AC0209120052695BD
:102F200026958FE591E0662311F081E691E01F92EE
:102F30002F939F938F9385EC95E09F938F930E949F
:102F400049050F900F900F900F900F900F900895DC
:102F5000833210F09868D4CF880F880F982BD0CF89
:102F60008091200586958695815009F482E261E082
:102F70000E947917089580912005869586958F5F28
:102F8000833208F081E061E00E9479170895809112
:102F9000F90380FF08C081EA95E09F938F930E9418
:102FA00049050F900F9085E3809320058091510192
:102FB00090915201A0915301809321059093220595
:102FC000A09323058FE7809324058FEF8093250539
:102FD0000E94E1150895B0E0A0E0E1EFF7E10C9464
:102FE000FC337C015B01842E752E69018091710395
:102FF00001E010E08A3010F40AE010E0C1E0D0E017
:10300000F894B501C701F6010995982E0E944F0B5F
:10301000911014C021960C171D07B4F48091F90388
:1030200080FF0CC07F928F9284EE92E09F938F93EB
:103030000E9449050F900F900F900F90892DCDB7EA
:10304000DEB7EDE00C941834CC9F9001CD9F300D8D
:10305000300D112490E080E045E34A95F1F700003F
:10306000019628173907C1F7CBCFAFE0B0E0EBE30B
:10307000F8E10C94FC338E010F5F1F4F8AE0D801FA
:103080001D928A95E9F786E3C82E81E0D82EF12CAF
:10309000E12CAA24A394B12C26E3822E21E0922EC7
:1030A000F60181916F018F3F09F443C0F894E82F36
:1030B000E295EF70F0E021A18F70A50102C0440FEE
:1030C000551F8A95E2F7CA01922F982B91A392A1DE
:1030D0008095892382A30E944F0B00C0E0E3F1E0BA
:1030E000712C31E021912F3F09F46BC0A22FA295E2
:1030F000AF70B0E090968C9190E02F7002C09595E3
:1031000087952A95E2F780FD5CC0832F782A330FDC
:103110008E169F0639F7F601319780818F3F11F0A7
:103120000E94981050EA5A95F1F7F801EE0DFF1D34
:1031300070828FEFE81AF80A95E0E916F10409F0B9
:10314000AFCF4AE050E0B8018EE993E00E9402352B
:103150007C01892B41F08AE0F801AEE9B3E00190EF
:103160000D928A95E1F71091A903E114F10459F148
:1031700081E0809368030E94F60690936703809332
:10318000660380916603909167030E94DB060597B2
:1031900078F0AEE9B3E0E12FF0E0EF53FC4F83EAC3
:1031A00093E02D9121938A179B07D9F7109268031A
:1031B00081E090E0E114F10451F02F96EDE00C94E1
:1031C000183480E0A3CF809168038111DACF0E9488
:1031D0001B14D82EE091A903DE011B967D018823E4
:1031E00009F495C085E01D928A95E9F70E2F10E04D
:1031F0000F531C4FC0907103B9E0BC1508F443C0D5
:1032000027EA30E248E651E0B701C8010E94EB1717
:10321000882309F45BC02EE430E245E751E0B701B2
:10322000C8010E94EB17882309F450C023E53FE151
:103230004DE751E0B701C8010E94EB17882309F45C
:1032400045C021EF3EE148E851E0B701C8010E94C6
:10325000EB178823D9F1F9E0FC1508F44FC0109260
:1032600071038091A80390E045E050E0B7018F53CF
:103270009C4F0E94023521E020936F03892BC9F4F3
:10328000D12C8D2D9ACF8091690390916A030E9471
:10329000DB06843F914008F0B3CF80916F03882311
:1032A00009F4AFC085E0D7011D928A95E9F7109225
:1032B0006F03A091A803B0E0AF53BC4F85E0FE01BF
:1032C0003B9601900D928A95E1F7DBCF80917103D7
:1032D0008F3F29F08F5F809371038A3010F20E9434
:1032E000F60690936A03809369038091F90380FF47
:1032F000D4CF8EEA92E00E94B004CFCF8091F90340
:1033000080FFADCF8BE992E00E94B004A8CFF0E03F
:10331000EF53FC4FF89485E0A4E8B3E001900D92E0
:103320008A95E1F765E070E084E893E00E94480741
:10333000809383030E944F0BF8944091BD0350E0AB
:103340006091BC0370E068547C4FC7010E940F3548
:103350008B8580938A0361E070E0C7010E94480773
:10336000809389030E944F0BF894C0908B03D090F8
:103370008C03E0908D03F0908E0380916B0390910D
:103380006C03A0916D03B0916E03C816D906EA06CE
:10339000FB06D1F0C0926B03D0926C03E0926D03F8
:1033A000F0926E030E941B1481110EC00E94EA0667
:1033B000C61AD70AE80AF90AC0929A03D0929B0368
:1033C000E0929C03F0929D030E944F0BF89486E0DC
:1033D000EFE8F3E0A0E2B5E001900D928A95E1F705
:1033E00010919503112349F08091F803811105C0D4
:1033F0000E944A0E80E00E9464071093F8030E9426
:103400004F0B80E0DACE0F931F93CF93DF93809121
:10341000630390916203892B80930003909164036E
:10342000992391F0892B8093000320E082E093E0C0
:10343000FC013191CF0131112F5FF3E088309F07FC
:10344000B9F721110E94731248E050E06AE573E079
:1034500080E093E00E940235892B09F441C088E0A6
:10346000E0E0F3E0AAE5B3E001900D928A95E1F780
:10347000E091C904F091CA04309791F10280F38180
:10348000E02D80E093E009958091F90382FF28C048
:1034900080FF04C089E892E00E94B004D0E0C0E060
:1034A00003E812E08091F90380FF0EC0FE01E050B6
:1034B000FD4F80811F928F931F930F930E944905A8
:1034C0000F900F900F900F902196C830D10551F7B3
:1034D0008091F90380FF04C081E892E00E94B0046B
:1034E000DF91CF911F910F91089590E080E00E94AD
:1034F000320790E080E00E941C07109262030E9455
:10350000031A089580931F050E94751A08958091EB
:103510001F05982F9670963021F488600E94821AB9
:103520000895877FFBCF21E030E001C0220F8A950C
:10353000EAF7209580911F0582230E94821A089540
:10354000909159038095892380935903282F2770E0
:1035500091F4282F082E000C330B9217130659F004
:103560009091AB0392FF07C08595859585950E9444
:10357000931A109259030895CF93DF93D82FC091D7
:10358000AB03C2FB882780F98D1711F1D0FBC2F97C
:10359000C093AB036091AA0384E090E00E94DE3404
:1035A0006C2F82E290E00E94DE3482E00E94A01A3A
:1035B0008091F90380FF0CC01F92DF938CE692E0AC
:1035C0009F938F930E9449050F900F900F900F903B
:1035D000DF91CF91089521E030E001C0220F8A955C
:1035E000EAF780911F05822B0E94821A089580932A
:1035F00065030E94751A089510926303E2E0F3E0F8
:1036000086E0DF011D928A95E9F70E94751A0895F8
:10361000AAE2B0E0EEE0FBE10C94063487EE94E021
:103620002091F100DC012D93CD01B4E08F3E9B078A
:10363000B9F78091E804833009F472C0B8F481309E
:1036400009F449C0823009F4B3C08091E80083FFD7
:1036500091C28091E7049091E8049A3008F08AC200
:10366000E92FF0E0E35CFA4C0C9481348A3009F4E1
:103670008EC08B3009F471C0893039F78091E7042E
:10368000813219F78091EB049091EC04009711F0CE
:103690000297D9F68091E800877F8093E8008091B7
:1036A000E80082FF38C09091F3008091F200029709
:1036B00031F48091F100813011F0863021F4809155
:1036C000F1008093DA048091E8008B778093E80022
:1036D0000E94CC05BACF8091E704813A09F0B5CFBA
:1036E0008091E800877F8093E8008091EB049091BF
:1036F000EC04892B61F468E08BED94E070E00E94AB
:1037000078068091E8008B778093E8009ECF60E098
:1037100090E080E0F3CF8091E5048111C0CF95CF98
:103720008091E704813A09F090CF8091EB04909169
:10373000EC04892B09F089CF8091E800877F809382
:10374000E8008091E80080FFFCCF80914D018093DC
:10375000F1008091E8008E77B9CF8091E704813243
:1037600009F073CF8091EB049091EC04892B09F060
:103770006CCF8091E800877F8093E8000E94CC05A1
:103780008091E90480934D010E94FC1A5ECF8091E4
:10379000E704813209F059CF8091E800877F809358
:1037A000E8000E94CC058091EA048093D9044DCFB3
:1037B0008091E704813A09F048CF8091E800877F43
:1037C0008093E8008091E80080FFFCCF8091D904CD
:1037D000BECF803899F0823809F0CCC18091EB04DB
:1037E0008F70873008F0C6C18093E9008091EB00AC
:1037F00085FB882780F91092E90006C08091E304D8
:103800009091E404911182609091E800977F9093E9
:10381000E8008093F1001092F1008091E8008E772B
:10382000A5C1882309F493C1823009F0A3C1809116
:10383000E904811196C18091EB048F702FEF280F5E
:10384000263008F097C18093E9002091EB0020FF1B
:1038500088C1933031F48091EB0080628093EB005B
:1038600080C19091EB0090619093EB0021E030E0FB
:1038700001C0220F8A95EAF72093EA001092EA002D
:103880008091EB008860EACF811174C11091E90446
:103890001F778091E3008078812B8093E3008091F3
:1038A000E800877F8093E8000E94CC058091E800C3
:1038B00080FFFCCF8091E30080688093E30082E08A
:1038C000111183E08093E50455C18058823008F0DF
:1038D00051C12091E9043091EA042C3DE3E03E0718
:1038E000A1F583E08A838AE289834FB7F894DE01E9
:1038F000139620E03EE051E2E32FF0E050935700B2
:10390000E49120FF03C0E295EF703F5FEF708E2FD0
:1039100090E0EA30C0F0C7968D939D932F5F2431DD
:1039200059F74FBF8091E800877F8093E8006AE2F3
:1039300070E0CE0101960E9478068091E8008B77B6
:103940008093E80017C1C096E7CF8091EB04909177
:10395000EC04432F55274330510509F44AC078F54C
:103960004130510509F47AC08BE790E0E5E1F8E0D9
:103970004230510509F0FEC02091E800277F2093D6
:10398000E8002091ED043091EE048217930708F4CB
:103990009C0140E02115310509F065C0411163C06B
:1039A0008091E80082FDC9CF8091E504882329F247
:1039B000853019F28091E80083FFF2CFBECF41320B
:1039C000510509F43CC04232510509F0D3C084309E
:1039D000910508F0CFC0FC01EE0FFF1FEE51FE4F26
:1039E0000190F081E02D82529E4FDC018C9190E09D
:1039F0001AC0332721303105D1F02115310561F08E
:103A00002230310509F0B6C0E2EAF8E0E4918E2FE9
:103A100090E0E2EAF8E007C0E0EDF8E0E4918E2FF4
:103A200090E0E0EDF8E0009709F4A4C0A5CFE0EC49
:103A3000F8E0E4918E2F90E0E0ECF8E0F4CF8430F1
:103A4000910508F097C0880F991FFC01E651FE4FC1
:103A50000190F081E02D89E090E08ECF82E190E04E
:103A6000E0E9F8E089CF8091E504882309F465CF87
:103A7000853009F462CF8091E80083FD5ECF8091AC
:103A8000E80082FD8DCF8091E80080FF83CF909188
:103A9000F3008091F2002115310519F0883091056D
:103AA00050F041E0089709F040E08091E8008E77FF
:103AB0008093E8006FCF44914093F10031962150FC
:103AC00031090196E8CF803809F054C08091E800B0
:103AD000877F8093E8008091E6048093F1009DCE7B
:103AE000811148C01091E904123008F043C0809160
:103AF000E800877F8093E8001093E6040E94CC05DD
:103B0000112311F084E005C08091E30087FDFACF16
:103B100081E08093E50442E061EC81E00E94EB05E6
:103B200042E261EC84E00E94EB0542E261EC82E05B
:103B30000E94EB0542E260EC83E00E94EB0542E26A
:103B400061EC85E00E94EB058091E50413C0809153
:103B5000E904813079F481E0933009F080E08093CA
:103B6000E4041092E9008091E800877F8093E800E8
:103B70000E94CC058091E80083FF0AC08091E80094
:103B8000877F8093E8008091EB0080628093EB0058
:103B9000AA96E3E00C942234882321F00E94791243
:103BA0000E94031A0895882339F090916303982B9B
:103BB000909363030E94031A0895882391F19CEF68
:103BC000980F913A80F4E2E0F3E028E033E091913D
:103BD000891303C0DF0111971C922E173F07B9F715
:103BE0000E94031A089590E2980F983050F487705D
:103BF00091E001C0990F8A95EAF7892F0E94791206
:103C0000EFCF9BE5980F933028F490E080E00E947E
:103C100032070895885A873120F490E080E00E94AE
:103C20001C070895CF93C82F8823B1F08CEF8C0F19
:103C3000813A00F5E2E0F3E088E093E0DF012D91C6
:103C4000C21761F08A179B07D1F76C2F80E093E0D1
:103C50000E9402070E94031ACF9108952191C21376
:103C600003C0DF0111971C928E179F07B9F70E94BE
:103C7000031AEBCF80E28C0F883068F4C77021E024
:103C800030E001C0220FCA95EAF780916303822BCE
:103C900080936303DFCFEBE5EC0FE33040F4F0E01B
:103CA000ED56FE4F808190E00E943207D5CFC85A72
:103CB000C73190F6EC2FF0E0EE0FFF1FEA56FE4FF3
:103CC000808191810E941C07C7CF1F93CF93DF9300
:103CD000182FD0E0C0E0893311F4C0E5D0E0812F87
:103CE0000E94121E209739F4812F0E94DD1DDF9162
:103CF000CF911F9108958FE99FE00197F1F700C0E0
:103D000000002197EFCF0F931F93CF93DF93C62F20
:103D1000D42F022FFC0182818823A9F060931E0515
:103D20000E94F60690931D0580931C05C77081E0E4
:103D300001C0880FCA95EAF70E94D31DDF91CF9189
:103D40001F910F91089580911E05681332C08091D4
:103D50001C0590911D050E94DB06883C910548F5E5
:103D600010E21D0FCD17B9F080E28C0F883040F4BF
:103D7000C77081E001C0880FCA95EAF70E94CC1D88
:103D8000183048F481E09D2F977001C0880F9A95F4
:103D9000EAF70E94D31D802F0E94651E183070F62E
:103DA000D77081E001C0880FDA95EAF70E94CC1D38
:103DB000C5CFC77081E001C0880FCA95EAF7F6CF7A
:103DC000811108C089EA611101C08AEA0E94651E5A
:103DD00080E008958130E1F78EE46111F7CF8BE444
:103DE000F5CFA7E0B0E0E7EFFEE10C94053486E004
:103DF000E0E2F5E0DE01119601900D928A95E1F77F
:103E00008091F8038F8347E050E06FE873E0CE01C4
:103E100001960E940235009196031091970320911C
:103E2000980330919903EFB7F8944091CE045091E4
:103E3000CF046091D0047091D104EFBF401B510BAF
:103E4000620B730B443651056105710518F411E0DE
:103E5000892B21F18091290190912A018D579C4F46
:103E60004091280150E04830510510F047E050E003
:103E7000BE016F5F7F4F0E940F3585E090E00E948A
:103E80008133182F882351F00E94EA06609396032D
:103E9000709397038093980390939903812F2796AB
:103EA000E4E00C942134A4E0B0E0E9E5FFE10C94F7
:103EB000063440917F03509180036091810370919B
:103EC00082032FB7F8948091CE049091CF04A091F3
:103ED000D004B091D1042FBF841B950BA60BB70B58
:103EE00011E084369105A105B10570F10E944F14CF
:103EF0006E5F7F4F8F4F9F4F69837A838B839C8345
:103F000080912101909122018D579C4F4091200179
:103F100050E04530510510F044E050E0BE016F5FC5
:103F20007F4F0E940F3584E090E00E948133182F6C
:103F3000882351F00E94EA0660937F037093800308
:103F40008093810390938203812F2496E3E00C9465
:103F500022344F925F927F928F929F92AF92BF9244
:103F6000CF92DF92EF92FF920F931F93CF93DF9345
:103F70000F92CDB7DEB7C62E4A015901482E880FE1
:103F80005508C2010E948133782E882309F480C02D
:103F9000C20133E0880F991F3A95E1F7FC01E05028
:103FA000FF4F438150E04115510511F041E050E0D1
:103FB00080509F4FFC01648175816D577C4FCE010D
:103FC00001960E940F35F401408151816281738115
:103FD0002FB7F8948091CE049091CF04A091D00493
:103FE000B091D1042FBF841B950BA60BB70B843661
:103FF0009105A105B10540F4B701C8010E94480729
:104000009981891709F444C00C2C000CDD08C60105
:104010000E948133782E811113C0712C872D0F904F
:10402000DF91CF911F910F91FF90EF90DF90CF9094
:10403000BF90AF909F908F907F905F904F9008952A
:10404000C60123E0880F991F2A95E1F7FC01E05093
:10405000FF4F438150E0E416F50608F4A7018050B5
:104060009F4FFC01648175816D577C4FC5010E9493
:104070000F35B701C8010E94480799818913CDCF38
:104080000E94EA06F4016083718382839383C6CF22
:10409000A701B801C5010E940F35C0CFA1E0B0E073
:1040A000E4E5F0E20C940034EE24E394F12C0AE809
:1040B00013E09E012F5F3F4F4BE753E063E082E048
:1040C0000E94A91FC82E882339F100E080E01DC09E
:1040D000D090AD03D00E2D2D30E0A90148545C4F97
:1040E0007A01E1E0F0E0EC0FFD1FE00FF11D10811F
:1040F000FA019081191BB12E1B149CF0912F17FD12
:1041000090E0191B111118C00F5F9091AC030917B3
:10411000F8F281110E9470128C2D2196E9E00C9426
:104120001C34BA94F70180818F5F808360E08D2D0D
:104130000E94E01E8C2DE0CF1F5FF701808181502F
:10414000808361E08D2D0E94E01E8C2DDBCFA5E0E9
:10415000B0E0EDEAF0E20C9401346B0185E0E82E6A
:10416000F12C04E813E09E012F5F3F4F47E753E037
:1041700061E080E00E94A91F882349F095E0FE01DC
:104180003196A2E7B3E001900D929A95E1F795E0A0
:10419000E2E7F3E0D60101900D929A95E1F72596BA
:1041A000E8E00C941D3490E080E00E94C834883E22
:1041B0009E4F19F40E94BA15089580E0089568EEA4
:1041C0007EEF90E080E00E94FC3460E082E090E0CE
:1041D0000E94DE3460E083E090E00E94DE341092C2
:1041E000650360E084E090E00E94DE3464E082E2F7
:1041F00090E00E94DE3460E085E090E00E94DE34D2
:1042000060E086E090E00E94DE346FEF87E090E0AF
:104210000E94DE3440E050E0BA0188E090E00E9465
:10422000F03460E08DE090E00E94DE3440E050E049
:10423000BA0188E190E00E94F03460E087E190E00C
:104240000E94DE3440E050E0BA018CE190E00E9430
:10425000F03470E060E080E290E00E94FC3440E0E6
:1042600050E0BA0188E190E00E94F03480E00E94C2
:10427000F8140E94111540E050E0BA018FE090E080
:104280000E94F03440E050E0BA0183E190E00E94E7
:10429000F0340895A5E0B0E0E0E5F1E20C94F833E5
:1042A0008C01FC0183819481892B31F08081918183
:1042B00089238F3F09F07EC52596E1E10C941434E3
:1042C0000E945E15F82E682F89819A810E94BE1285
:1042D00069817A818F2D0E9450157C01F8018281BD
:1042E000882309F42DC5970122513F45203131051E
:1042F00008F053C58FEF93E00E94C034811128C0AD
:10430000FEEEEF0E57E0852E52E0952EE11032C002
:104310001C821B82442443944AE0342E74018FEFA4
:10432000E81AF80AC4010E94C03489831A828823DB
:1043300079F09FEF980F933058F58A83498292E085
:10434000890E911CC7010E94C0348B83811121C04A
:1043500080915903877009F4AFCFF80182818823D7
:1043600009F4AACF8091AB0382FFA6CF82E00E941E
:10437000A01AA2CF811424E0920651F3C4010E9436
:10438000C034811101C0EA943FEF831A930ABECF73
:104390004701FE0131967F01F7012081222309F4B4
:1043A000BDCF213009F047C091818281913031F435
:1043B000F2E0EF0EF11C0E94651E07C0923049F436
:1043C00022E0E20EF11C0E94121E3FEFE31AF30AF4
:1043D000E3CF933031F432E0E30EF11C0E94DD1D97
:1043E000F4CF943021F08FEFE81AF80AEECF92E084
:1043F000E90EF11C30E020E0B7016F5F7F4FF7015D
:1044000041818053990B8A30910550F02150310938
:10441000E0F28FE99FE00197F1F700C00000F6CFCE
:10442000329EF001339EF00D11249C012E0F3F1F90
:10443000842F7B01E1CFE22FF0E0EE56FE4F549047
:10444000822F86958695869590E0FC01EE57FE4F6B
:1044500064902770712C022E02C0759467940A94A0
:10446000E2F7E1E06E227724FC01EE58FE4FA490C3
:10447000B12C022E02C0B594A7940A94E2F7F1E0A1
:10448000AF22BB24FC01EE59FE4FC490D12C02C0D8
:10449000D594C7942A95E2F721E0C222DD24611465
:1044A000710419F081EE0E94121EA114B10419F0DA
:1044B00086EE0E94121E852D0E94651EA114B10475
:1044C00019F086EE0E94DD1D6114710419F081EE71
:1044D0000E94DD1DC114D10409F477CF8CE26BCFAB
:1044E00081E00E94EB1A03C081E00E94931A0E94AF
:1044F000871A2ECF82E0F9CF95EFE9169CE5F906F1
:1045000009F46CC008F466C027E245EE66EEF6EFEB
:10451000EF16FCE5FF0609F43CC4882309F45BC4EC
:1045200010921E0523E0E2162DE5F20608F05DC0AC
:104530003AEFE3163CE5F30630F4C70182509C45A0
:10454000449708F05EC00E94D3159093AB0380930C
:10455000AA03E1E1EE16ECE5FE0609F438C108F025
:10456000A6C029E0E2162CE5F20609F41EC108F007
:104570006FC085E0E8168CE5F80609F40AC108F07A
:1045800058C0E3E0EE16ECE5FE0609F4F8C008F0CA
:10459000FCC08091AA03816022E0E2162CE5F206BD
:1045A00009F4F0C06091AA03F090AB0384E090E0BE
:1045B0000E94DE346F2D82E290E00E94DE340E9481
:1045C000FC1AC6CE27E245EE65EEE3C326E241EED5
:1045D00060EEDFC327E245EE64EEDBC326E241EE88
:1045E00062EED7C328E241E0EFCF81E6E8168DE521
:1045F000F80609F4A8CF95EAE9169DE5F90609F44D
:10460000A2CF36E1E3163CE5F30609F0FDC3809145
:1046100063038A7A91E009F490E09093080369E2D9
:10462000811165E380E093E00E9402070E94031A73
:104630008FCE8091AA03806237E0E3163CE5F30653
:1046400009F4A0C008F4ADC08091AA0380649AC0A8
:104650008091AA038B7F9DE0E9169CE5F90609F499
:1046600091C0B0F48091AA038E7FFBE0EF16FCE5C9
:10467000FF0609F487C08091AA038C602CE0E21643
:104680002CE5F20608F47EC08091AA038D7F7AC0E3
:104690008091AA038F7E3FE0E3163CE5F30609F420
:1046A00071C008F488C08091AA038F7D6BC09DEF14
:1046B000E9169CE5F90609F486C078F5F5E1EF16F0
:1046C000FCE5FF0609F491C0A0F48091AA03837F62
:1046D00033E1E3163CE5F30609F454C008F47BC06B
:1046E0000E94FC1A9091AA03892F97FB87F98058A2
:1046F00049C09BEFE9169CE5F90609F44EC008F0A5
:104700005EC08091AB038160FAEFEF16FCE5FF0617
:1047100009F048CF8093AB0345CF21E0E2162DE5A9
:10472000F20609F46EC0B8F48FEFE8168CE5F806CF
:1047300009F457C08091AB038360E1149DE5F9064D
:1047400048F38091AB03982F909591708E7F892BC1
:1047500090FB81F9DFCFE1E6EE16EDE5FE0609F408
:1047600056C0F5EAEF16FDE5FF0609F457C022E052
:10477000E2162DE5F20609F015CF60E043C0809106
:10478000AA0382608093AA030DCF8091AA0384605C
:10479000F9CF8091AA038860F5CF8091AB03826046
:1047A000B9CF8091AA038061EDCF0E94FC1A80915D
:1047B000AA038068E7CF8091AA03877FE3CF809127
:1047C000AB038E7FA7CF8091AB038D7FA3CF80916A
:1047D000AA038F7BD7CF0E94FC1A8091AA038F7700
:1047E000D1CF8091AB038C7F95CF8091AA0382FBC0
:1047F000992790F921E0922790FB82F990FB83F9A9
:10480000C1CF61E08EE090E00E94DE34CBCE90918B
:10481000AA03892F8F7E94FF8061B4CF9091AA0361
:10482000892F8E7F90FF8160ADCF85E3DFC240EBA3
:1048300057E16BEB77E10E945E078ACD4BEB57E1C6
:1048400060EB77E1F8CF43E657E16EE677E1F3CF2F
:104850004EE657E163E677E1EECF47E457E165E5E1
:1048600077E1E9CF45E557E167E477E1E4CF49E354
:1048700057E16BE277E1DFCF4DED56E169EE76E18E
:10488000DACF49EE56E16DED76E1D5CF61E081E01A
:104890000E9479175DCD61E08DE0FACF0E94FC1A8D
:1048A0008FEF94E3ECE081509040E040E1F700C0EE
:1048B00000000E94D01389E492E0C4C20E94DF206D
:1048C00047CD8091AB0382FB882780F991E089274F
:1048D0000E94BC1AF8018281E080F180882309F4EB
:1048E00043C0C7010E945E15D82E682FC7010E94E1
:1048F000BE12B7018D2D0E9450150E94F3107C014D
:10490000882EF801D280B580B2943FE0B322809126
:1049100059038770C1F0AD2CDD20B1F08F2D807F61
:10492000803421F080E28E0D883068F08091AB03F6
:1049300082FF09C082E00E94A01A8091590387700B
:10494000AA24A3948111A12C9F2C92942FE092224F
:10495000FBE0F91508F477C0E92DF0E0E95BFA4CCB
:104960000C94813480E0B4CFC7010E948A12D82E03
:10497000C0CF2F2D2F70C22E8F2D807F19F0C294A3
:1049800090EFC922DD20B9F0CC2069F080E28E0DD5
:10499000883010F0811009C080916303C82AC0924A
:1049A00063030E94031A8E2D4CC080916203C82AB3
:1049B000C0926203F6CF8E2D0E94DD1DCC2009F43B
:1049C00042C080E28E0D883010F0811004C08C2D22
:1049D0000E94791206C0C09480916203C822C092DE
:1049E00062030E94031A2FC03F2D3F70C32E8F2DEC
:1049F000807F803219F0C29480EFC822882089F02D
:104A000081E0881609F468C0DD2009F472C0BB207B
:104A100009F468C0F801858180FFC5CF8F70858358
:104A200061C02091AB0322FD35C0DD2069F1CC20AF
:104A300039F080916303C82AC09263030E94031A6D
:104A400080E00E94121E292D2850330B243031059E
:104A500010F40E943E14AA2009F42ECC8091590330
:104A600080FD2ACCF80112828595859585950E9456
:104A7000EB1AC8010E944A218091590385958595BA
:104A800085950E94931A18CC80E00E94DD1DCC20F1
:104A9000D1F29DCFDD2099F0909164038C2D892B6C
:104AA000B11003C00E94D31DCECFE1E0BE12FACFF9
:104AB00022FFC9CF891739F280936403C4CFB110A4
:104AC00006C00E9473128C2D0E94CC1DBCCFF1E059
:104AD000BF1609F4B8CFF5CFDD2031F025E02B1556
:104AE00008F4B1CF8C2DDECF34E03B1508F4ABCF0A
:104AF000EACFBB2041F3F9E38F1209C02FEF37EE65
:104B000083E0215030408040E1F700C000008E2D4E
:104B10000E94DD1D98CF8F2D86958695837061F05C
:104B2000813009F090CFC7019370D11002C090E09E
:104B300080E00E941C0787CFC7019370D11002C08C
:104B400090E080E00E9432077ECF8F2D837091F538
:104B5000D11079CF4E2D429546954770440F440FA2
:104B60008E2D8F70042E01C0880F0A94EAF72E2D27
:104B70002071E4FE07C02FE030E001C0220F4A950B
:104B8000EAF720953F2D369536953370323069F02F
:104B900050F440916503313029F0822B84230E9428
:104BA000F71A51CF842B822BFACF282B80916503E3
:104BB0008227F5CF8695DD2011F08F2D8170882317
:104BC00009F441CF4E2D429546954770440F440F4E
:104BD0008E2D8F70042E01C0880F0A94EAF72E2DB7
:104BE0002071E4FE07C02FE030E001C0220F4A959B
:104BF000EAF720953F2D369536953370323069F0BF
:104C000050F440911F05313029F0822B84230E94FB
:104C1000821A19CF842B822BFACF282B80911F0563
:104C20008227F5CF9F2D9F70F92EDD2029F0892F47
:104C30000E94EB1A8E2D36CF8E2D0E94CC1D8F2D0B
:104C40000E94931A00CF8E2DE2EF8E16B1F1E81577
:104C500070F0F0EF8F16D1F021EF821691F0DD2089
:104C600009F45EC0B1109FCE8F2D8F712AC033EF33
:104C7000831651F194EF8912F2CF8091AB0382FD3C
:104C80002FC08F2D8F71DD20D9F21BC0DD2081F068
:104C9000E4E0EB1508F4D7CE2F2D2F7181E090E0E2
:104CA00001C0880F2A95EAF790911F058927AFCF99
:104CB000F5E0FB1508F4C7CEEFCF8F2D8F71D11023
:104CC000BFCF0E94EB1ABFCE80E0DD2009F49FCF5A
:104CD0009F2D9F7181E001C0880F9A95EAF797CFC9
:104CE000DD2099F02F2D2F71F22E822F0E94EB1ACA
:104CF0008091AB0382FF07C038E0F39EC00111240E
:104D00008360809359038F2DDCCF81E00E94A01A2D
:104D100081E08B1508F097CE82E00E94A01A93CE16
:104D2000BB2059F0893309F0F2CE9FEFE7EEF3E0B4
:104D30009150E040F040E1F7E8CE8F2D8F7180CFA9
:104D4000F0E1EF16FFE5FF0609F4CECB21E1E21614
:104D50002FE5F20609F4CECB93EFE9169CE5F906B0
:104D600009F434CC08F0C8CBF8EDEF16FCE5FF06EB
:104D700009F428CC29EDE2162CE5F20609F432CC30
:104D800037EDE3163CE5F30609F0C7CB26E241EE2A
:104D900061EEC8010E94831EDBCA30E1E3163FE5E5
:104DA000F30609F49DCB91E1E9169FE5F906A1F61A
:104DB00082E097CB85E0DE01119601900D928A95F5
:104DC000E1F7F801228189819A81211179CA0E9433
:104DD0008A12F82E7DCAF6E1EF16FCE5FF0609F00F
:104DE00048C080910803811120CD89E2E2E0F3E020
:104DF00028E033E09191891303C0DF0111971C92E1
:104E00002E173F07B9F712CC2EEDE2162CE5F2066D
:104E100009F454CDD0F4E1148CE5F80609F43ECD44
:104E200091E0E9169CE5F90609F054CD9091F9035B
:104E3000892F8E7F90FF81608093F90380FF3BCDA7
:104E40008BE592E00E94B00483CAEBE5EE16EDE537
:104E5000FE0609F487CDFCE5EF16FDE5FF0609F433
:104E600030CD2AE5E2162DE5F20609F033CD81E0DA
:104E70002FCD8091630382723AECE3163CE5F30692
:104E800009F4F5CC08F056C0E5ECEE16ECE5FE06AC
:104E900009F4D9CCB0F523ECE2162CE5F20609F4BE
:104EA000C6CC08F0CBCC82ECE8168CE5F80609F00D
:104EB00011CD80912005982F937021E092278C7F4F
:104EC000892B8093200510924C018091FA03816018
:104ED0008093FA038091F90380FF3ACA1F929F934F
:104EE00081E691E09F938F9382E192E09F938F936D
:104EF0000E9449050F900F900F900F900F900F9008
:104F000027CA97ECE9169CE5F90609F4A6CC08F443
:104F10009FCCF8ECEF16FCE5FF0609F4A3CC4BE2BE
:104F200057E169E377E129ECE2162CE5F20609F492
:104F300082CCD0CC3FECE3163CE5F30609F4ABCCD5
:104F4000B8F4ECECEE16ECE5FE0609F49ACC08F4A5
:104F500093CC2DECE2162CE5F20609F497CC61E037
:104F600085E03EECE3163CE5F30609F491CCB2CCC7
:104F700086EDE8168CE5F80648F461E082E191EDF3
:104F8000E9169CE5F90608F483CCE2C9EDE5EE16D6
:104F9000FE0609F4DDC99ECC1F93CF93DF93809169
:104FA0002603807F09F049C080912303882309F4F8
:104FB00044C080915803D0912703609121037091E0
:104FC0002203A0912403B0912503C62FC72316E026
:104FD000D81799F190E0109711F0CF3F19F401968E
:104FE0008770F6CF189F9001199F300D1124F90199
:104FF000E85DFC4F41814713F2CF40814613EFCF6C
:1050000042814111ECCF438154814A1B5B0B483CE8
:10501000510528F7809126038F70806180932603C5
:10502000F901E35DFC4F80818F708061808381E2B4
:1050300093E00E944A210E948012DF91CF911F913C
:105040000895A1E1B0E0E7E2F8E20C94FF338C01AF
:1050500085E0F801DE011D9601900D928A95E1F739
:10506000F801E28081E2A82E83E0B82E609124034B
:10507000709125036115710509F426C190912103F2
:1050800040912203892F84238F3F09F41DC1208181
:105090003181C380D480F0902303F601E61BF70B27
:1050A000FF2009F4DCC080912603582F507FE83C94
:1050B000F10508F09FC051116BC0FE2C431314C0C2
:1050C000921312C0E11010C08F708061809326038C
:1050D000C5010E944A2180912603F80185838F2D06
:1050E0006196EAE00C941B34C114D10429F0822F9C
:1050F00083238F3F09F003C180E0F82FF170DF2E8A
:1051000080FF3CC0809158034091270356E08413F0
:1051100015C02D873E878D859E850E948D15292F70
:1051200022952F702230F0F0243018F59F70F1F0A6
:10513000F8019581907FD1F4D12C1EC090E0589F4A
:10514000F001599FF00D1124E85DFC4F6181361389
:1051500006C06081261303C06281E6120FC001966B
:105160008770D5CF9F7011F0882331F3805E88302F
:1051700018F3C8010E944A21FD2CB1CFEE2009F49A
:10518000AECF80912603816080932603F12CA7CFB8
:10519000431306C0921304C0F801EE2009F479C04D
:1051A000C8010E949A15882309F1EE20F9F0809138
:1051B0002603803270F0209121033091220338873A
:1051C0002F831986DB86CA868C87CE0107960E94BC
:1051D0004A2186E0F801A1E2B3E001900D928A95A0
:1051E000E1F70E94CC27FF24F39479CFC8010E94F5
:1051F0004A21F9CF51110AC081E293E00E944A216D
:1052000086E0F50111928A95E9F7C0CF43130FC0EC
:1052100092130DC0E1100BC0F8018583C8010E94F4
:105220004A2186E0F50111928A95E9F758CFC80125
:105230000E949A158823D1F2EE20C1F280912603B4
:10524000803238F220912103309122033A8329835E
:105250001B82DD82CC828E83CE010196B8CFE83CE2
:10526000F105F8F6FE2CEE2009F243131FC092134D
:105270001DC08091260380FD10C0982F907F69F09B
:10528000F8018583903F31F0982F907F905F8F7069
:10529000892B8583C8010E944A2186E0F801A1E29A
:1052A000B3E001900D928A95E1F719CFC8010E94F1
:1052B0009A1581118ECF80912603816080932603F9
:1052C000C8010E944A210BCFEE2009F48FCFC801FC
:1052D0000E949A15F82E882309F488CF86E0F801F9
:1052E000A1E2B3E001900D928A95E1F7809121034C
:1052F000909122030E948D150E94CC27F0CE81E070
:105300008E25FBCEA7E1B0E0E8E8F9E20C94063484
:105310004B8B5C8B6D8B7E8B8F8B6111109262033C
:105320001A8A198A85E0FE017396DE011D960190A6
:105330000D928A95E1F786E0FE013D96DE01179613
:1053400001900D928A95E1F7CE0107960E942128DF
:10535000811112C086E0FE013796DE0111960190A0
:105360000D928A95E1F78A859B85892B29F088859E
:105370009F8189238F3F81F516E08091580390919A
:105380002703891317C06796E3E00C94223496E054
:10539000929FD001939FB00D1124A85DBC4FFE01D8
:1053A000319601900D929A95E1F7809327030E9420
:1053B0008012E2CF819FC0011124885D9C4F0E9422
:1053C0002128882301F38091580390E0019687708B
:1053D000992780935803D1CF2091270330E0C9014A
:1053E000019687709927409158034817190679F656
:1053F0000E94FC1A109227031092580386E0E1E203
:10540000F3E0DF011D928A95E9F7B6CF1F920F9264
:105410000FB60F9211242F933F934F935F936F9387
:105420007F938F939F93AF93BF93CF93DF93EF932C
:10543000FF93D091E900DF708091EC00C82FC1701C
:1054400080FDC0E81092E9008091F000877F809392
:10545000F00078940E94081B1092E9008091F000FF
:1054600088608093F000CD2BCF70C093E900FF914E
:10547000EF91DF91CF91BF91AF919F918F917F91EC
:105480006F915F914F913F912F910F900FBE0F90B1
:105490001F9018951F920F920FB60F9211242F9301
:1054A0003F934F935F936F937F938F939F93AF93AC
:1054B000BF93EF93FF938091E10082FF15C080912D
:1054C000E20082FF11C08091E1008B7F8093E100B8
:1054D0002091D7042F5F822F62E30E942E349923FC
:1054E00009F4C0C02093D7048091DA0080FF28C05F
:1054F0008091D80080FF24C08091DA008E7F809355
:10550000DA008091D90080FFE3C080E189BD82E1AB
:1055100089BD09B400FEFDCF81E08093E50481E000
:1055200098E00E94B0048091D804811109C00E94C3
:1055300052050E941D068091E20084608093E20083
:105540008091E10080FF1BC08091E20080FF17C0C6
:105550008091E2008E7F8093E2008091E200806182
:105560008093E2008091D80080628093D80019BCBB
:1055700085E08093E50489E098E00E94B004809182
:10558000E10084FF2FC08091E20084FF2BC080E106
:1055900089BD82E189BD89B5982F917080FFFBCFCD
:1055A0008091D8008F7D8093D8008091E1008F7E1C
:1055B0008093E1008091E2008F7E8093E2008091F1
:1055C000E20081608093E2008091E604882309F480
:1055D00089C084E08093E5048DE098E00E94B004E7
:1055E0008091E5048091E10083FF2BC08091E2006F
:1055F00083FF27C08091E100877F8093E10082E0F4
:105600008093E5041092E6048091E1008E7F809300
:10561000E1008091E2008E7F8093E2008091E200C1
:1056200080618093E20042E060E080E00E94EB0550
:105630008091F00088608093F00081E198E00E9402
:10564000B004FF91EF91BF91AF919F918F917F91A6
:105650006F915F914F913F912F910F900FBE0F90DF
:105660001F9018951092D7048091D604882309F4CE
:105670003BCF8091E5048430C1F49091E9009F70A4
:105680002091EC00822F817020FD80E8892B95E02D
:105690009093E9009091EB0090FF04C09091EE0090
:1056A00097FD08C08F708093E9001092D6041CCF3C
:1056B0001092F1009091E80095FDFACF9091E800EA
:1056C00090FFF0CF9091E8009E779093E800EACFAA
:1056D00019BC1092E50485E098E00E94B004109295
:1056E000D8042ECF8091E30087FD93E09093E504EA
:1056F00073CF78941F921FB61F9211248F939F939C
:10570000AF93BF938091CE049091CF04A091D00429
:10571000B091D1040196A11DB11D8093CE04909348
:10572000CF04A093D004B093D104BF91AF919F91C7
:105730008F911F901FBE1F9018951F921FB61F922A
:1057400011248F939F93AF93BF938091CD048111C8
:1057500013C08091CE049091CF04A091D004B09159
:10576000D1044196A11DB11D8093CE049093CF0426
:10577000A093D004B093D104BF91AF919F918F912A
:105780001F901FBE1F901895CDB7DEB7AD970FB60F
:10579000F894DEBF0FBECDBF84B7877F84BF0FB63E
:1057A000F894A895809160008861809360001092C1
:1057B00060000FBE80E890E00FB6F894809361001F
:1057C000909361000FBE85B7806885BF85B78068FC
:1057D00085BF8DE093E19093FF028093FE020E94CB
:1057E00052050E941D068091E20084608093E200D1
:1057F00078948091E5048823A1F01091E9001F704E
:105800009091EC00892F817090FD80E8182B109208
:10581000E9008091E80083FD0E94081B1F7010932F
:10582000E90082E084BD93E095BD9AEF97BD809337
:105830006E0010929A0310929B0310929C03109298
:105840009D030E94BA15811102C00E9411150E9489
:10585000510B80933B010E941B1481110E949532D1
:1058600080913B0181112CC085E0E4E5F1E0DE018F
:10587000919601900D928A95E1F789A18093360166
:105880008AA1809337018BA1809338018CA18093EA
:1058900039018DA180933A0186E0E9E5F1E0DE016E
:1058A000119601900D928A95E1F7FE013196A0E3E1
:1058B000B1E0CE01079621912D93E817F907D9F7AA
:1058C00080913B0195E0811190E09093A90385E0E0
:1058D000891B8093A80306E311E0D8018D918D0107
:1058E0008F3F11F00E949810B1E00B331B07A9F70E
:1058F00000E311E0F80181918F018F3F11F00E94C8
:105900009810F1E006331F07A9F78AE0E1ECF3E015
:10591000DF01282F1D922A95E9F7EEE9F3E0DF0178
:105920001D928A95E9F70E94D320811102C00E943E
:10593000DF2082E090E00E94C0348093F9030E944F
:10594000D3159093AB038093AA030E943518EFE31D
:10595000FCE93197F1F700C000000E9435188091F2
:10596000C10380FF08C06FEF7FEF90E080E00E94EE
:10597000FC340E94D01383E090E00E94C0340E9467
:10598000F71A1092F3048FEF9FEF90930D05809319
:105990000C0590930F0580930E059093110580934D
:1059A000100590931305809312059093150580932D
:1059B000140590931705809316059093190580930D
:1059C000180590931B0580931A051092CB039093B2
:1059D000E5038093E4039093E7038093E6039093B9
:1059E000E9038093E8039093EB038093EA03909399
:1059F000ED038093EC039093EF038093EE03909379
:105A0000F1038093F0039093F3038093F2030E94D9
:105A1000D320811110C08091F90380FF08C08BE36F
:105A200094E09F938F930E9449050F900F900E94DE
:105A3000DF200E94C71746E050E06CE170E080E292
:105A400095E00E94B0341092FA03809120058C7F7B
:105A500071F48091F90380FF08C086EE93E09F9374
:105A60008F930E9449050F900F900E94C717809155
:105A7000F90380FF89C08CEC93E09F938F930E9481
:105A800049058091F9030F900F9080FF7DC08091B0
:105A9000200583701F928F938DEA93E09F938F93DD
:105AA0000E9449058091F9030F900F900F900F907D
:105AB00080FF6AC080912005869586951F928F93FE
:105AC00080E993E09F938F930E9449058091F903A9
:105AD0000F900F900F900F9080FF56C0809121057E
