:100000000C9479040C94B2330C94B1040C94B104A4
:100010000C94B1040C94B1040C94B1040C94B1048C
:100020000C94B1040C94B1040C94212B0C94DD2A93
:100030000C94742C0C94B1040C94B1040C94B10481
:100040000C94B1040C94B1040C94B1040C94B1045C
:100050000C94B1040C94502C0C94B1040C94B10485
:100060000C94B1040C94B1040C94B1040C94B1043C
:100070000C94B1040C94B1040C94B1040C94B1042C
:100080000C94B1040C94B1040C94B1040C94B1041C
:100090000C94B1040C94B1040C94B1040C94B1040C
:1000A0000C94B1040C94B1040C94B1040631FF0912
:1000B00074A1010975150026FF00952075088102BD
:1000C0000976150026FF00952075089102C00501EC
:1000D0000980A101850319012AB700150126B7007F
:1000E000950175108100C0050C0901A10185041955
:1000F000012AA002150126A002950175108100C0F9
:100100000660FF0961A1010962150026FF00952024
:10011000750881020963150026FF00952075089176
:1001200002C005010906A101050719E029E715002C
:100130002501950875018102950175088101050762
:10014000190029FF150026FF009506750881000596
:10015000081901290595057501910295017503910D
:1001600001C00000000000000000000000000000CE
:10017000000000000000000000000000000000007F
:100180000000000000007E0F00D4FFFFFFC700004A
:10019000007800000000000000002A2B280000006A
:1001A0000000000000000000000000000029000026
:1001B00000002C1E3420212224342627252E362D03
:1001C0003738271E1F202122232425263333362E9D
:1001D00037381F0405060708090A0B0C0D0E0F100F
:1001E0001112131415161718191A1B1C1D2F313054
:1001F000232D350405060708090A0B0C0D0E0F10F8
:100200001112131415161718191A1B1C1D2F313033
:10021000354C726762206D617472697820746F6703
:10022000676C65205B25735D3A207267625F6D6164
:10023000747269785F636F6E6669672E656E61625E
:100240006C65203D2025750A0044454255473A20FB
:1002500064697361626C65642E0A004445425547C7
:100260003A20656E61626C65642E0A004F6E65739C
:10027000686F743A206163746976653A2025640A70
:10028000000A002530325820006B6579626F617278
:10029000645F7265706F72743A20005461726765B2
:1002A0007420636F6E6E65637465640D0A0054613B
:1002B0007267657420646973636F6E6E65637465DD
:1002C000642C207468726F74746C696E6720636F3D
:1002D0006E6E656374696F6E20617474656D7074A1
:1002E000730D0A004661696C656420746F2065783F
:1002F00065637574652025730A007267625F6D61BE
:10030000747269785F636F6E6669672E666C616789
:1003100073203D2025640A007267625F6D6174720C
:1003200069785F636F6E6669672E737065656420B8
:100330003D2025640A007267625F6D61747269789E
:100340005F636F6E6669672E6873762E76203D2038
:1003500025640A007267625F6D61747269785F6319
:100360006F6E6669672E6873762E73203D20256454
:100370000A007267625F6D61747269785F636F6EA5
:100380006669672E6873762E68203D2025640A0012
:100390007267625F6D61747269785F636F6E6669C0
:1003A000672E6D6F6465203D2025640A00726762C8
:1003B0005F6D61747269785F636F6E6669672E65E1
:1003C0006E61626C65203D2025640A007267625F81
:1003D0006D61747269785F636F6E66696720454509
:1003E00050524F4D0A007267625F6D617472697896
:1003F0005F696E69745F6472697665727320726793
:10040000625F6D61747269785F636F6E6669672E93
:100410006D6F6465203D20302E2057726974652011
:1004200064656661756C742076616C7565732074A3
:100430006F20454550524F4D2E0A007267625F6D26
:1004400061747269785F696E69745F6472697665F8
:100450007273206565636F6E666967206973206ECD
:100460006F7420656E61626C65642E0A005B735D5B
:10047000000A0025303862003A200025303258004A
:100480000A722F632030313233343536370A000A8E
:100490000025303258006C65645F7461736B3A20DC
:1004A0000000010101010101010101020202020239
:1004B000020202020303030303030303040404040C
:1004C00004040405050505050606060606070707D4
:1004D000070708080808090909090A0A0A0B0B0B8B
:1004E0000C0C0C0D0D0D0E0E0E0F0F0F1010111128
:1004F00011121213131414151516161717181819AC
:10050000191A1A1B1B1C1D1D1E1E1F202021222212
:10051000232424252626272829292A2B2C2D2D2E55
:100520002F30313232333435363738393A3B3C3D6F
:100530003E3F404142434445464748494A4C4D4E60
:100540004F50515354555658595A5B5D5E5F616226
:1005500064656668696B6C6D6F7072737577787AB5
:100560007B7D7E8082838587888A8C8E8F91939510
:1005700096989A9C9EA0A2A3A5A7A9ABADAFB1B334
:10058000B5B7BABCBEC0C2C4C6C9CBCDCFD1D4D614
:10059000D8DBDDDFE2E4E7E9EBEEF0F3F5F8FAFDB6
:1005A000FF6565636F6E6669675F7570646174652A
:1005B0005F7267625F6D61747269785F64656661BE
:1005C000756C740A00726762206D617472697820BC
:1005D0006D6F6465205B25735D3A2025750A007296
:1005E0006762206D61747269782073657420687326
:1005F00076205B25735D3A2025752C25752C257595
:100600000A00726762206D61747269782073657484
:10061000207370656564205B25735D3A2025750A3B
:10062000004E004B00AA00A9004D004A00AC00ABF0
:1006300000C55CC65CC75CC85CCB5CCC5CC95CCAF2
:100640005C29001E001F002000210022002B001446
:10065000001A00080015001700E00004001600074B
:100660000009000A00E1001D001B0006001900053A
:100670000000000000E300105F28004A002A002765
:100680000026002500240023004C00130012000C5B
:100690000018001C00340033000F000E000D000B8A
:1006A00000E500380037003600100011000000009F
:1006B00000E600115F2C004D0035021E021F0220D3
:1006C0000221022202005C1E001F002000210022E5
:1006D000004C00010050004F0052002F00C05C0190
:1006E000000100010051002F020000000001000184
:1006F000004C0026022A002702260225022402239B
:100700000201002700260025002400230031022ECC
:10071000025E005D005C00300001002D005B005AAD
:10072000005900300200000000620001004C002768
:100730000245003A003B003C003D003E00C25C1E0A
:10074000021F02200221022202C35CAC00AB00A9FE
:10075000004B002D02A800AD00AE00AA004E002DF7
:1007600000000000000100010001002602440043D7
:10077000004200410040003F000100270226022500
:1007800002240223023100C95CC75CC55C4A002E0A
:10079000000100CA5CC85CC65C4D002E020000006F
:1007A0000001000100010001000100010001000141
:1007B0000001000100010001000100010001000131
:1007C0000001000100010001000100010001000121
:1007D0000001000100010001000000000001000113
:1007E0000001000100010001000100010001000101
:1007F00000010001000100010001000100010001F1
:1008000000010001000100010001000100010001E0
:1008100000010001000000000001000100010001D2
:10082000005B435D005B445D005B535D005B575DB7
:10083000005B525D0009027B00040100A0FA09047C
:100840000000010301010009211101000122400003
:1008500007058103080001090401000203000000EC
:100860000921110100012222000705820320000155
:100870000705030320000109040200010300000032
:100880000921110100012232000705840320000123
:1008900009040300020300000009211101000122E4
:1008A000220007058503200001070505032000013C
:1008B000120100020000000810CB5663100601026E
:1008C00000011A0349007200690073002000520001
:1008D000650076002E0020003600610000000E0347
:1008E0004B0065006500620069006F0000000403B2
:1008F000090411241FBECFEFDAE0DEBFCDBF04B67E
:1009000003FE18C08091290590912A05A0912B051E
:10091000B0912C058730904BA740B04B59F4109202
:10092000290510922A0510922B0510922C05E0E063
:10093000F8E3099512E0A0E0B1E0EAE7FCE602C0C6
:1009400005900D92AE3FB107D9F725E0AEEFB2E0CA
:1009500001C01D92A932B207E1F70E949B2C0C94B2
:10096000EF350C940000FF93EF93E091FE02F091BD
:10097000FF02309709F00995EF91FF910895FC016E
:100980008591803011F0EFDFFBCF0895FF27E0E283
:1009900030E247FF0CC0419597FF09C0EDE260953A
:1009A000709580959095611D711D811D911D27FF8A
:1009B00002C0219530E350E2AA27660F771F881FF7
:1009C000991FAA1FA41710F0A41B63955A95A9F7A5
:1009D000AA3008F0A95FA05DAF93F395611571058A
:1009E0008105910541F7ED3211F4EF93F395F2177C
:1009F00018F43F93F395FBCF8F91B5DFFA95E1F7AC
:100A00000895E991F9918591803021F0853219F0AE
:100A1000AADFF9CF089520E0E89455915532C1F34B
:100A2000503311F4689455915A3348F4505390F36D
:100A3000220F022E220F220F200D250FF4CF0EF4CD
:100A4000219589919991533619F3533729F15335EB
:100A500059F1BC0188279927E8945C3621F48991E3
:100A6000999168945591543639F446EF7EF077FFAA
:100A70000DC08FEF9FEF0AC055374AE039F0583567
:100A800040E121F0523642E009F00895FF93EF93E0
:100A90007DDFEF91FF91B7CFFF93EF93FC01819141
:100AA0008030B9F360DFFBCFFF93EF9368DFF1CFC6
:100AB000DF93CF93CDB7DEB72596A3DFCF91DF913C
:100AC0000895E8EDF0E080818E7F80831092E2004F
:100AD0001092DA001092E100A0EEB0E08C918160FB
:100AE0008C9380818F77808319BCA7EDB0E08C91C7
:100AF0008E7F8C9380818F7E80831092DB0408959B
:100B00002091E4003091E50095E6A9012091EC00E8
:100B1000822F817020FF06C08091E80080FF06C010
:100B200080E008952091E80022FD1AC08091E80439
:100B3000882389F0853089F08091EB0085FD0FC016
:100B40002091E4003091E50042175307F9F29150EB
:100B5000E1F684E0089582E0089583E0089581E05D
:100B60000895EF92FF920F931F93CF937C018B0117
:100B70000E948005C82F811117C08091E80085FD73
:100B80000BC08091E8008E778093E8000E9480057A
:100B9000882399F3C82F08C0F70181917F018093C2
:100BA000F1000150110949F78C2FCF911F910F913E
:100BB000FF90EF9008958091EA0487FF13C0809121
:100BC000E80082FF06C08091E8008B778093E80000
:100BD00004C08091E8048111F2CF08958091E80467
:100BE0008823D9F38091E80080FFF8CF8091E80056
:100BF0008E77ECCF982F9093E900242F762F50E03A
:100C0000891731F07091EC002091ED005091F000C7
:100C100021FD07C09F5F973071F78093E90081E065
:100C200008953091EB003E7F3093EB003091ED0062
:100C30003D7F3093ED003091EB0031603093EB005D
:100C40007093EC002093ED005093F0002091EE00A3
:100C500027FDE0CF80E00895B0E0A0E0E2E3F6E019
:100C60000C94D834C8EDD0E088818F7E8883E7ED7E
:100C7000F0E080818160808384E082BF81E08093A6
:100C8000DB0488818E7F888302EE10E0F8011082F9
:100C90001092DA0081EEC82ED12CF60110828881E4
:100CA0008F77888388818068888388818F7D888317
:100CB00019BC1092E8041092E9041092E704109213
:100CC000E60490EEE92EF12CF70180818B7F808382
:100CD00088818160888342E060E080E00E94FA05BC
:100CE000F60180818E7F8083F8018081816080831E
:100CF000808188608083F70180818E7F80838881F6
:100D000080618883CDB7DEB7E8E00C94F434FC0151
:100D10008091F0049091F10486179707A0F0611577
:100D2000710529F49091E8009E779093E80090E097
:100D30006115710551F4911108C08091E80082FF9E
:100D400034C080E00895BC01F2CF8091E80488238C
:100D5000C1F18530C1F18091E80083FD30C0809100
:100D6000E80082FDEACF8091E80080FFE1CF80912A
:100D7000F3002091F200382F6115710519F0283029
:100D8000310558F091E02830310509F090E02091CC
:100D9000E8002E772093E800CBCF81918093F1007B
:100DA000615071092F5F3F4FE7CF8091E80488239E
:100DB00041F0853041F08091E80083FFBECF81E0B3
:100DC000089582E0089583E008950895089580913C
:100DD000DD0408959C014FB7F8948091D10490915F
:100DE000D204A091D304B091D4044FBF821B930BC3
:100DF00008952FB7F8946091D1047091D204809136
:100E0000D3049091D4042FBF08952FB7F894809104
:100E1000D1049091D204A091D304B091D4042FBFF7
:100E200008959C01FC0132969FEF80E041914617A6
:100E300051F09F3F19F4411101C0982F8F5F863008
:100E4000A9F79F3F09F40895290F311D97FD3A95A1
:100E5000F901628308952091CE043091CF042817C0
:100E6000390771F09093CF048093CE04E091CC04C5
:100E7000F091CD04309721F00084F185E02D0995A3
:100E800008952091CA043091CB042817390771F0D6
:100E90009093CB048093CA04E091CC04F091CD04EC
:100EA000309721F00680F781E02D09950895FC0127
:100EB000680F791F8FEF91E32191822728E030E0BE
:100EC00087FF09C0880F892721503109C9F7E61724
:100ED000F70791F70895880FF7CFFA01811101C044
:100EE000FB010995089580934B0180912305837040
:100EF00080934A010E941C1483E080934C01089562
:100F0000EF92FF920F939701201B31092F3F31057C
:100F100019F010F02FEF30E02095382F320F08F441
:100F20003FEF832F0F91FF90EF900895EF92FF9284
:100F30000F939701201B31092F3F310519F010F055
:100F40002FEF30E0322F3095482F430F08F44FEF4A
:100F5000842F620F0F91FF90EF900895EF92FF9210
:100F60000F93972F093438F4B701601B71096F3F55
:100F7000710519F010F06FEF70E0485F5F4F41317D
:100F8000510540F0A901485F5F4F4131510510F014
:100F90006FEF70E06095482F460F08F44FEF842FF5
:100FA00037FF02C02D5F3F4F359527953595279523
:100FB00060912405620F792F0F91FF90EF900895B3
:100FC000EF92FF920F931F930E0D1F2D111DF9012C
:100FD00037FF03C0F195E195F10924E0EE0FFF1F03
:100FE0002A95E1F7EF3FF10519F014F0EFEFF0E08B
:100FF0009A0157FF03C031952195310994E0220FE2
:10100000331F9A95E1F72E173F070CF4F901E00F13
:10101000F11FEF3FF10519F010F0EFEFF0E0E09570
:10102000282F3E2F230F08F42FEF822F1F910F91AF
:10103000FF90EF900895EF92FF920F93970195E044
:10104000099F200D311D11242F3F310519F010F09B
:101050002FEF30E02095382F320F08F43FEF832F29
:101060000F91FF90EF90089522E8241B08F420E0F0
:10107000620F08954095282F429F412D1124842FFF
:1010800008950F931F9310E0F801EE0FFF1FE25D2C
:10109000FD4F9081905797FD9195000F111FF8011A
:1010A000EE50FE4F05AD0052110B2003F001219FC1
:1010B000F00D112408E310E0091B110997FD1395A9
:1010C00040039001419F300D1124E20FF31F9F0157
:1010D000220F331F2E0F3F1F37FF02C021583F4FF3
:1010E000220F232F221F330B620F1F910F910895A0
:1010F0000F931F93522F10E0F801EE0FFF1FEE50D9
:10110000FE4FA5ADA052BB0B9D015203F001539FB2
:10111000F00D1124000F111FD801A25DBD4F0C91DD
:101120000057110B40039001419F300D11242E0FE9
:101130003F1F37FF02C0215C3F4F96E03595279552
:101140009A95E1F7620F1F910F9108950F931F93E6
:10115000522F10E0F801EE0FFF1FEE50FE4FA5AD2D
:10116000A052BB0B9D015203F001539FF00D1124BF
:10117000000F111FD801A25DBD4F0C910057110B3C
:1011800040039001419F300D11242E0F3F1F37FF68
:1011900002C021583F4F220F232F221F330B620F13
:1011A0001F910F910895EF920F93972F23E0029FC5
:1011B000B0011124759567956E0D792F0F91EF9001
:1011C0000895322F50E0FA01EE0FFF1FEE50FE4F50
:1011D00095AD905297FD9195440F551FFA01E25D30
:1011E000FD4F2081231B330B290F311D97FD3A95AD
:1011F000620F0895E42FF0E0EE0FFF1FEE50FE4F58
:1012000065AD621B0895E42FF0E0EE0FFF1FE25D75
:10121000FD4F6081621B0895622F0895E42FF0E076
:10122000EE0FFF1FE25DFD4F408134EE439F412DE5
:101230001124E82FF0E050E0445E5F4FDA01A21B7A
:10124000B1099D01B7FF03C031952195310993E0A4
:10125000220F331F9A95E1F7AF01421B530B9A01FE
:1012600057FD20E0582F259F212D1124822F08950E
:10127000E42FF0E0EE0FFF1FE25DFD4F408134EE02
:10128000439F412D1124E72FF0E050E0445E5F4F73
:10129000DA01A21BB1099D01B7FF03C03195219569
:1012A000310993E0220F331F9A95E1F7AF01421BFA
:1012B000530B9A0157FD20E0279F212D1124722FF7
:1012C00008950E94650B0895FF920F931F93CF938B
:1012D000DF93182F062FF42ED0E0C0E02F2D402FE3
:1012E000612FCE010E9461092196C434D105B1F766
:1012F000CDB7DEB7E5E00C94F734FC019B01009715
:1013000029F480E077FF2BC080E80895AC0197FFB7
:1013100004C044275527481B590BB901640F751F9A
:1013200037FD10C0241B350BC901A5E0880F991F9C
:10133000AA95E1F70E94253580E2861BF7FF0FC0D2
:1013400081950895CB0165E0880F991F6A95E1F7B3
:10135000BA01621B730B0E94253580E6EECF08951B
:10136000EF920F93CF93DF93D72FC82FC9010E1998
:10137000BA010E947D09602F681B7D2F8C2FDF91A1
:10138000CF910F91EF9008950F93CF93DF93D72FC5
:10139000C82FC901BA010E947D09682F600F7D2FF7
:1013A0008C2FDF91CF910F910895EF920F931F93A0
:1013B000CF93DF93D62FC72F182FC9010E19010F16
:1013C000BA010E947D09081B202F219F212D112485
:1013D000822F6D2F7C2FDF91CF911F910F91EF9076
:1013E0000895EF920F931F93CF93DF93D62F172F6C
:1013F000C82FC9010E19070FBA010E947D09702F6D
:10140000781B719F712D11246D2F8C2FDF91CF913F
:101410001F910F91EF9008950F931F93CF93DF9338
:10142000D62FC72F182FC901212F201B022FBA0139
:101430000E947D09982F990F990F891B800F282FE3
:10144000219F212D1124822F6D2F7C2FDF91CF9191
:101450001F910F9108950F931F93CF93DF93D62F72
:10146000172FC82FC901272F201B022FBA010E9456
:101470007D09982F990F990F782F791B700F719F05
:10148000712D11246D2F8C2FDF91CF911F910F9112
:101490000895E82F86FDE0952E2F2F7086FD2F5F93
:1014A000E695E695E695E670F0E0EA52FE4F91810A
:1014B000929F902D212D112492959F702295207F2F
:1014C000922B2081920F87FD919580E8890F0895D6
:1014D000AC018230910508F408959FEF413E8EE102
:1014E000580740F49A0195E0369527959A95E1F7CB
:1014F00098E0920F61E0E62FE90FFF27FF1F9F01A1
:1015000035952795822F229FF001239FF00DF00D36
:1015100011244E175F0738F49FEF920F961758F774
:101520008FEF860F08952F3FE9F361E0620FF6CF4A
:101530000F93CF93DF93D72FC82F47FD419588E3B3
:1015400090E0841B910947FD9395889FB001899F86
:10155000700D700D1124229FC001239F900D900DDE
:101560001124860F971F0E94680A982F990F890FE0
:10157000682F600F7D2F8C2FDF91CF910F910895F1
:1015800030E020E0869F212D969F200D311D1124F3
:10159000C9010895AF92BF92CF92DF92FF920F934D
:1015A0001F93CF93DF93362F472FE82FF0E0EF55AF
:1015B000FB4F71110FC0E4918E2F2E2F6E2F722FC3
:1015C000DF91CF911F910F91FF90DF90CF90BF904F
:1015D000AF900895C72FD0E02491F22E022F10E093
:1015E00056E0659FC0011124EFEFF0E0BF010E94BB
:1015F0001135832F90E0880F991F35E5369FD00174
:10160000379FB00D11248A1B9B0B982F990F980FB1
:101610006F01CC1ADD0AC09ED001C19EB00DD09ED4
:10162000B00D11248B2F499FA0011124452F552760
:101630006F01C41AD50AC09EA001C19E500DD09E54
:10164000500D11245F01A91AB108AC9E6001AD9E36
:10165000D00CBC9ED00C1124CD2CDD24EC19FD093E
:10166000E09FE001E19FD00DF09FD00D1124ED2F00
:1016700062307105A1F050F46115710509F49ECF37
:101680006130710581F0EB2F852F98CF64307105A3
:1016900069F080F06630710509F490CFF4CFE22F45
:1016A0002B2F8D2F8BCFE22F252F88CFEB2F822F43
:1016B0002D2F84CF2B2F8F2DE52F80CF55985D9820
:1016C00089B185FB882780F90895FF920F931F93B6
:1016D000CF93DF93EC01F62E042F122F0E945E0BA6
:1016E00081110FC0C232D1057CF0A297FE01EE0F2E
:1016F000FF1FEC0FFD1FE250FC4FF18200831283AD
:1017000003C0C232D10594F3CDB7DEB7E5E00C9447
:10171000F734CF93C82F0E945E0B882329F081E015
:10172000C23228F080E003C081E0C434D8F7CF9102
:101730000895A8E0B0E0EFE9FBE00C94CE34282E49
:101740007C836B8320914E018EE0289F802D112495
:101750008D83825F8983853410F034E439830E945D
:101760005E0B882329F08981833210F092E29983FD
:101770000E945E0B811105C0ED81E23210F4F2E2AD
:10178000FD832091F6042A839D81892F90E098871C
:101790008F83880F991FFC01EE50FE4F6F01822D41
:1017A00090E09C012F5F3F4F3E832D8389819F8175
:1017B000981730F00E94890B2896E2E10C94EA34E5
:1017C000EF81F885EA54FD4F808190914F01892384
:1017D000F9F030902405409025058D819E818A5036
:1017E0009B4F3C01522C10E0FA815F16D8F02091FB
:1017F0002605129F112D1124632D742D812F0E9417
:10180000CA0A462F282F672F8F8198850E94610969
:101810002F8138852F5F3F4F38872F8332E0C30EEB
:10182000D11CC4CFF30181913F01F601A4ACA81AE9
:10183000BB0885ACF3018781881A9908AA9C90019E
:10184000AB9C300D300D1124889CC001899C900DFB
:10185000900D1124820F931F0E94680A082F609137
:10186000270521E0620F08F46FEFF301EE0FFF1F71
:10187000E65FF440858996890E94C00A7C01940144
:10188000A501632D742D812FEB81FC810995362EE6
:10189000472E5394182FA8CFB0E0A0E0E2E5FCE07B
:1018A0000C94D8347C01C0914E018EE0C89FC02DAD
:1018B00011241EE01C0F153408F014E40E945E0B86
:1018C000882319F0133208F012E20E945E0B811196
:1018D00003C0C23208F4C2E22091270531E0230F91
:1018E00008F42FEF30E050E040E06FEF7FEF80E052
:1018F00090E00E9439356901D0E001E02C2FC1173A
:1019000040F0812F0E94890BCDB7DEB7E8E00C9440
:10191000F434FE01EA54FD4F808190914F018923F8
:1019200009F14091F6044150042E000C550B47FF7D
:101930001BC0C60160912705600F08F46FEF0E947D
:10194000C00AAC016091240570912505809126059F
:10195000F70109950E94CA0A462F282F672FCE014A
:101960000E9461092196CACFFA01EA50FB4F818992
:1019700082130AC0FA01EE0FFF1FEA50FB4F818D60
:10198000928D8C159D05B0F241505109D0CFB0E039
:10199000A0E0EDECFCE00C94D6346C01C0914E015B
:1019A0008EE0C89FC02D11241EE01C0F153408F0D6
:1019B00014E40E945E0B882319F0133208F012E23F
:1019C0000E945E0B811103C0C23208F4C2E2609132
:1019D0002705669566958091F2049091F3040E9424
:1019E000C00AF82E80E48F0D0E94490A90E8B92EB3
:1019F000B80E8F2D0E94490A20E8A22EA80ED0E032
:101A0000C11740F0812F0E94890BCDB7DEB7EAE005
:101A10000C94F234FE01EA54FD4F808190914F0105
:101A20008923A1F0609124057091250580912605F8
:101A3000EF2C0C2F2A2D4B2DF60109950E94CA0A76
:101A4000462F282F672FCE010E9461092196D8CFFB
:101A5000B0E0A0E0EEE2FDE00C94D2345C01C09175
:101A60004E018EE0C89FC02D11241EE01C0F1534BE
:101A700008F014E40E945E0B882319F0133208F07A
:101A800012E20E945E0B811103C0C23208F4C2E26E
:101A90006091270566958091F2049091F3040E946D
:101AA000C00AF82ED0E0CE01880F991F9C012E505D
:101AB0003E4F6901C11740F0812F0E94890BCDB7BD
:101AC000DEB7EEE00C94EE34FE01EA54FD4F808167
:101AD00090914F01892379F1F60184AD282F205789
:101AE000330B490185ADE82FE052FF0B3F01889C85
:101AF0009001899C300D300D1124EE9FC001EF9FA5
:101B0000900D900D1124820F931F0E94680A082FD8
:101B1000609124057091250580912605EF2C930195
:101B2000A401F50109950E94CA0A462F282F672FA4
:101B3000CE010E946109F2E0CF0ED11C2196BACFEE
:101B4000B0E0A0E0E6EAFDE00C94D7346C01C0916F
:101B50004E018EE0C89FC02D11241EE01C0F1534CD
:101B600008F014E40E945E0B882319F0133208F089
:101B700012E20E945E0B811103C0C23208F4C2E27D
:101B80006091270566958091F2049091F3040E947C
:101B9000C00AB82ED0E0CE01880F991F9C012E50AC
:101BA0003E4F7901C11740F0812F0E94890BCDB7BC
:101BB000DEB7E9E00C94F334FE01EA54FD4F808176
:101BC00090914F018923C1F0F70125AD2052330BCD
:101BD00044AD4057550B60912405709125058091C7
:101BE00026050B2DF60109950E94CA0A462F282FBB
:101BF000672FCE010E946109F2E0EF0EF11C2196E1
:101C0000D1CFEF92FF920F931F93CF93DF937C017D
:101C1000C0914E018EE0C89FC02D11241EE01C0F04
:101C2000153408F014E40E945E0B882319F0133277
:101C300008F012E20E945E0B811103C0C23208F468
:101C4000C2E2609127056695669521E0620F08F46F
:101C50006FEF8091F2049091F3040E94C00A082F64
:101C6000D0E0C11740F0812F0E94890BCDB7DEB7BD
:101C7000E6E00C94F634FE01EA54FD4F8081909129
:101C80004F01892391F06091240570912505809181
:101C90002605202F4C2FF70109950E94CA0A462FCE
:101CA000282F672FCE010E9461092196DACFB0E07C
:101CB000A0E0EDE5FEE00C94D634182F80914B01A6
:101CC000811323C090912305937020914A0130E045
:101CD00081E09217130609F480E08170809350012F
:101CE0008091280590914F01981739F080934F010A
:101CF00040E060E080E00E946409133288F4E12F44
:101D0000F0E0EF50FA4C0C94583581E0E6CF80912A
:101D10005001882389F140E060E080E00E9464097E
:101D200080E02AC0C0914E018EE0C89FC02D1124D2
:101D30000EE00C0F053408F004E40E945E0B8823CB
:101D400019F0033208F002E20E945E0B811103C019
:101D5000C23208F4C2E26091240570912505809199
:101D600026050E94CA0AF62EE72ED82ED0E0C0170C
:101D7000D8F0802F0E94890B90914E019F5F909325
:101D80004E0181110CC082E080934C018091500182
:101D9000811105C0111103C083E080934C01CDB7C0
:101DA000DEB7EAE00C94F234FE01EA54FD4F808184
:101DB00090914F01892331F02D2D4F2D6E2DCE01A5
:101DC0000E9461092196D3CFC0914E018EE0C89F39
:101DD000C02D11240EE00C0F053408F004E40E941D
:101DE0005E0B882319F0033208F002E20E945E0BBA
:101DF000811103C0C23208F4C2E2E0902505F090E0
:101E00002605D09124056D2F7E2D8F2D0E94CA0AA4
:101E1000D62EC72EB82E609127056D0F7E2D8F2DE3
:101E20000E94CA0AF62EE72EA82ED0E0C01708F0AE
:101E3000A0CFFE01EA54FD4F908180914F0189238C
:101E400059F02A2D4F2D6E2D90FD03C02B2D4D2DB9
:101E50006C2DCE010E9461092196E8CFC0914E0100
:101E60008EE0C89FC02D11240EE00C0F053408F041
:101E700004E40E945E0B882319F0033208F002E2AA
:101E80000E945E0B811103C0C23208F4C2E2E090EE
:101E90002505D09026052091270550E4F52E3F2DED
:101EA000329F312D1124F32ED0E0C01708F061CFFE
:101EB000FE01EA54FD4F808190914F018923B9F0D2
:101EC000FE01EE0FFF1FEE50FE4F85AD82958F7025
:101ED000609124058F9D600D11247E2D8D2D0E9413
:101EE000CA0A462F282F672FCE010E94610921962A
:101EF000DCCFC0914E018EE0C89FC02D11240EE0B2
:101F00000C0F053408F004E40E945E0B882319F0DE
:101F1000033208F002E20E945E0B811103C0C2325C
:101F200008F4C2E2E0902505D0902605209127050F
:101F300030E4F32E3F2D329F312D1124F32ED0E0CB
:101F4000C01708F016CFFE01EA54FD4F8081909132
:101F50004F018923D9F0FE01EE0FFF1FEE50FE4F17
:101F600064ADF69EB001112495E0759567959A953C
:101F7000E1F780912405680F7E2D8D2D0E94CA0AFD
:101F8000462F282F672FCE010E9461092196D8CFB6
:101F9000C0914E018EE0C89FC02D11240EE00C0FA1
:101FA000053408F004E40E945E0B882319F0033224
:101FB00008F002E20E945E0B811103C0C23208F4F5
:101FC000C2E2F0902405D0912505E09026056091AD
:101FD00027056695669566958091F2049091F304C5
:101FE0000E94C00A0E94490A805887FD8195880F87
:101FF000282F3E2D239F212D1124822F6F2D7D2FE1
:102000000E94CA0AF62EE72ED82ED0E0C01708F09C
:10201000B0CEFE01EA54FD4F808190914F0189239B
:1020200031F02D2D4F2D6E2DCE010E94610921968C
:10203000EDCF88E399E00E94010E9ECE8EE099E0FC
:10204000FACF8BE29AE00E94A00D96CE8CE09AE047
:10205000FACF81EF99E00E94280D8ECE85ED99E0B0
:10206000FACF8CE099E0E7CF83E099E0E4CF8AEF04
:1020700098E0E1CF81EE98E0DECF83ED98E0EBCF02
:1020800088E99AE0E0CF84EC99E0DDCF80EB99E03D
:10209000E2CF86EA98E00E94C70C6ECE88E798E00F
:1020A000FACF81E498E0F7CF8AE398E00E944C0CE5
:1020B00063CE84E398E0FACF8091F60421E0382FD4
:1020C000321B08F430E0832F6BE178E00E94990B1B
:1020D00053CE6BE178E080E0F9CF8091F60421E007
:1020E000382F321B08F430E0832F60EE77E0EECF1C
:1020F00060EE77E0F0CF8091F60421E0382F321BBC
:1021000008F430E0832F6EEA77E0E0CF6EEA77E004
:10211000E2CF8091F60421E0382F321B08F430E042
:10212000832F66E977E0D2CF66E977E0D4CF80915C
:10213000F60421E0382F321B08F430E0832F60E8EA
:1021400077E0C4CF60E877E0C6CFF894E82FE29557
:10215000EF70F0E031A1282F2F7081E090E001C0F6
:10216000880F2A95EAF7982F9095932391A392A12F
:10217000892B82A3789408959091AD0392FF06C0B5
:10218000282F28712830F9F4877F846093FF06C0D8
:10219000282F28712831F1F4877E84612091AE03C5
:1021A00020FF06C0382F38713830D9F4877F81601E
:1021B00021FF06C0282F28712831D1F4877E816144
:1021C00094FD877E0895282F24712430F9F68B7FA3
:1021D0008860DCCF282F2471243101F78B7E886141
:1021E000DDCF382F3171313019F78E7F8860E0CF25
:1021F000282F2171213121F78E7E8861E1CFCF9385
:10220000DF93EC0182389105A9F1D8F5813391056E
:1022100009F496C048F58932910509F48AC08A9775
:1022200009F495C0C11522E5D20708F0B6C0C11562
:1022300031E5D30708F026C1C83ED10508F09CC09F
:10224000C03ED10560F5C83AD10508F087C0C53A4F
:10225000D10508F0EFC0C130D10509F12097F9F0A0
:10226000C430D105E0F440C08533910509F45AC06B
:10227000C997C1F68091AD03837089F0C0EED0E0BC
:102280000EC0833E910599F170F4803E910501F1F5
:10229000823E910539F68091AD0382FD21C0CE01C9
:1022A000DF91CF910895863E910561F1873E9105BA
:1022B00071F1843E910509F0B5CF8091AE0381FFA5
:1022C000EECF8091AD03C7EED0E084FD0DC0E7CF27
:1022D0008091AD0380FD07C19091AE0390FFDFCFE9
:1022E000C3EED0E084FFDBCFD0E0C0E0D8CF809158
:1022F000AD0382FDFBC09091AE0390FDBFCF84FF84
:10230000CECFF2CF8091AD0383FDDDCFC8CF8091DA
:10231000AD0383FDEEC09091AE0391FFF0CFC4EE0C
:10232000D0E0BDCF8091AD0385FFB9CFC9E2D0E049
:10233000B6CF8091AD0385FFB2CFC5E3D0E0AFCF7C
:102340008091AD0386FFABCFCAE2D0E0A8CF8091E9
:10235000AD0386FFA4CFC1E3D0E0A1CFCF3BD10531
:1023600018F6C85AD0E0CC0FDD1FCA56DE4F0990D0
:10237000D881C02DD46493CFC11540E5D40708F0AF
:1023800064C0C11580E4D80708F05CC0CE019A95FE
:1023900081159F4108F483CFA7CFC11536E5D30738
:1023A00018F5C11545E5D40708F084C0C11584E5CA
:1023B000D80708F07AC09C2F969596959E012370B9
:1023C0003327C115D34508F462C0C1E0D0E002C094
:1023D000CC0FDD1F2A95E2F730E2939FC001112454
:1023E000C82BD92BDA685BCFC1158AE5D80778F4FA
:1023F000C11599E5D90708F068C0C11528E5D207CD
:1024000008F472CFDC2FCC27C06FD06A48CFCE0142
:1024100090568115904208F067CF8D2F8F710E94E2
:10242000BC1090E0982F882788279F719C012C2B47
:10243000E90149C0C55AD0E0CD56DE4FC881D0E091
:10244000D0642DCFDF70D06A2ACFCE01E4E096951C
:102450008795EA95E1F783702C2F269526952370B2
:1024600040E2249F90011124382B8C2F8370C1E00F
:10247000D0E002C0CC0FDD1F8A95E2F7C22BD32B30
:10248000DC680DCFDC2FCC27C16FD06A08CFC1E04C
:10249000D0E002C0CC0FDD1F2A95E2F720E2929F28
:1024A000C0011124C82BD92BEBCFDC2FCC27C46F54
:1024B000D06AF5CE8C2F0E94BC10C82FD0E0DC2F44
:1024C000CC27CC27DF71D062EACE8C2F8F700E9490
:1024D000BC1034E0D695C7953A95E1F7CF709C2FA4
:1024E000EC01D069DCCEC9E3D0E0D9CEC2EED0E0B9
:1024F000D6CEC6EED0E0D3CE0E94F90608958091E4
:102500006703811110926703089580959091660387
:10251000982390936603089580915B0390912A031A
:10252000981301C008958F5F8770FACFA82FA77006
:1025300023E0969587952A95E1F7FC01EE0FFF1FA2
:10254000E80FF91FE60FF71F50E040E080E021910F
:1025500030E00A2E02C0369527950A94E2F72170E2
:102560003327042E01C0220F0A94EAF7822B4F5F13
:102570005F4F4330510559F70895292F9A3068F479
:10258000863090F490E06CE073E036E0239F800D9D
:10259000911D11240E94961208952C5F223020F480
:1025A00069E073E090E0F6CF80E00895262F277071
:1025B00091E001C0990F2A95EAF723E07695679597
:1025C0002A95E1F7FB01EE0FFF1FE60FF71FE40F5F
:1025D000F51F50E040E0682F70E08191DF01119716
:1025E0009B01042E02C0369527950A94E2F72170CC
:1025F00021952827292328272C934F5F5F4F4330AD
:10260000510559F70895282F862F9A3070F42630F7
:1026100058F4622F70E026E0929F600D711D112426
:102620004CE053E00E94D61208959C5F9230E0F790
:10263000622F70E049E053E0F5CF829590E09C0175
:10264000220F331F220F331F2C7C9595879595956C
:1026500087958373282B30E0C901880F991F8A7AE8
:10266000359527952575822B08959FB7F89410927C
:10267000D9049FBF9091E804943009F048C020919C
:10268000E9002F703091EC00932F917030FD90E8AD
:10269000922B25E02093E9002091EB0020FF34C02D
:1026A0002091EE0027FF30C02091D804222321F092
:1026B0002091E80025FF28C01092D80426E0309130
:1026C000E80035FF14C08093F1008091E80085FD9B
:1026D00027C08091E80080FFFCCF8091E8008E77D2
:1026E0008093E8009F709093E90080E00895309116
:1026F000E804343049F43091EB0035FD05C0215039
:1027000041F481E08093D8049F709093E9008FEFAB
:102710000895EFE9FFE03197F1F700C00000CFCF57
:102720008FB7F89421E02093D9048FBFDBCF80933B
:10273000D5047093D7046093D6048091E804843064
:10274000F9F48093E9008FEF9091E800815095FDB6
:1027500006C095ED9A95F1F700008111F5CF8091B3
:10276000E80085FF0DC050E040E063E070E085EDDB
:1027700094E00E94B1058091E8008E778093E80094
:102780000895BC0184E00E9497130895BC0183E082
:102790000E9497130895CF93DF93EC0181E080931B
:1027A000E9008FEF9091E800815095FD06C095ED0E
:1027B0009A95F1F700008111F5CF8091E80085FF2F
:1027C00014C050E040E068E070E0CE010E94B10526
:1027D0008091E8008E778093E80088E0FE01AEEDFE
:1027E000B4E001900D928A95E1F7DF91CF910895C1
:1027F00081E08093E00080E28093D8001092C900CD
:102800008FE19EE40197F1F700C0000087E090EBB4
:10281000DC018093290590932A05A0932B05B093A2
:102820002C0588E19CE00FB6F894A8958093600091
:102830000FBE90936000FFCF6E9A3EB13F7B2EB1EA
:1028400020644FB7F8948EEF93E0FC015191CF01D3
:1028500068E02EB9000000C057FF3EB9550F0000D8
:1028600000C000C000C03EB900C06A9591F7F4E016
:102870008A3C9F0751F74FBF8FE594E00197F1F72E
:1028800000C00000089580917303811110C08091F1
:10289000D80080618093D8008AE18A95F1F700C062
:1028A0008091D90080FF0AC081E08093730381E0AA
:1028B00090917303913009F080E0089582E0809355
:1028C00073030E9461051092E804F1CF0E94431443
:1028D000882359F0E091CC04F091CD04309729F091
:1028E0000190F081E02D0995089580E008950F93FF
:1028F0001F930E944314882329F00E94F9061F9118
:102900000F9108950E94F90600919D0310919E0376
:1029100020919F033091A003600F711F821F931FAE
:10292000EECFCF92DF92EF92FF926B017C010E947B
:1029300043148823A1F02FB7F8946091D1047091CB
:10294000D2048091D3049091D4042FBF6C197D09D7
:102950008E099F09FF90EF90DF90CF9008950E941D
:102960007714F4CFCF93DF93C7E2D2E060E0CE01DB
:102970000E94B5352196C11584E0D807B9F7DF91DB
:10298000CF9108951F93CF93DF93122F8430E0F4FB
:102990006A30D0F44630C0F4C42FD0E0CC0FDD1F35
:1029A0009CE0699FC00DD11D112498E7899FC00D3F
:1029B000D11D1124632FCE0187960E94B535612F5A
:1029C000CE0188960E94B535DF91CF911F91089571
:1029D000B0E0A0E0EEEEF4E10C94D33481E2A82E56
:1029E00086E0B82E91E4C92E96E0D92E712C0FE026
:1029F00012E07601C0E014C0F401259134914D2F0E
:102A00006C2F872D0E94C21482E0880E911CDF5F1C
:102A1000D63091F78CE0E80EF11CCF5FCA3019F088
:102A20004701D0E0E9CFE80128977501F7018590CB
:102A30009490692DCE010E94B535682DCE01019686
:102A40000E94B535F701329685909490692DCE019C
:102A500002960E94B535682DCE0103960E94B535C9
:102A600084E0E80EF11C24960C171D07F9F688E0A7
:102A7000A80EB11C085F1F4F739488E7C80ED11CC5
:102A800084E07812B6CFCDB7DEB7EDE00C94EF342A
:102A9000CF93C82F6FEF811162E283E290E00E9432
:102AA000B5356FEFC11163E084E290E00E94B53567
:102AB0006FEFC11160E185E290E00E94B535CF91E2
:102AC000089580E00E94481560E086E290E00E9450
:102AD000B5350E94E8140E94B21481E00E944815A6
:102AE0000895FF920F931F93CF93DF93F42E8430BA
:102AF00070F5623060F528E0829F8001112434E097
:102B0000639FB0011124060F171F095F1D4F82E05C
:102B100090E0442311F090E080E0800F911F0E942C
:102B20009735C82FD0E0DC2FCC2783E090E0FF2042
:102B300011F081E090E0800F911F0E9497359E0177
:102B4000282BC901CDB7DEB7E5E00C94F73490E04F
:102B500080E0F8CF0F931F93CF93DF93843030F54D
:102B60006A3020F5463010F5C42FD0E0CC0FDD1FC1
:102B70002CE0629FC00DD11D112438E7839FC00D4A
:102B8000D11D1124CE0187960E949735082F10E0A1
:102B9000102F0027CE0188960E9497359801282B88
:102BA000C901DF91CF911F910F91089590E080E0CE
:102BB000F8CF843070F47A3038F4663050F4462F11
:102BC000672F0E94AA1508957D3F31F441E06230DD
:102BD00040F090E080E008957C3FD9F76230C8F77C
:102BE00040E00E9471150895CF92DF92FF920F93FB
:102BF0001F93CF93DF936C010091220580916803AE
:102C0000082BC7E0D0E010E0FC2EC8010C2E02C05B
:102C1000959587950A94E2F780FD0CC02197A0F75F
:102C2000F12C8F2DDF91CF911F910F91FF90DF90AD
:102C3000CF900895B6018C2F0E94D9150E94FF10E5
:102C4000019761F3EECFCF93DF93EC010E94F4156F
:102C5000BE010E94D9150E94FF10DF91CF91089507
:102C6000FC01808191810E94231692959F7096307D
:102C700091F058F4925F9F70923058F4803F19F0B1
:102C800030F4883E30F481E008959A5FF4CF843FB9
:102C9000D1F380E00895883EB0F3813FD1F7F3CFC0
:102CA00083E290E00E949735823289F484E290E0DA
:102CB0000E949735833059F485E290E00E94973561
:102CC00091E0803109F090E0892F8170089580E0D3
:102CD000FCCFCF9384E090E00E949735C82F82E22A
:102CE00090E00E949735982F8C2FCF91089546E061
:102CF00050E06CE170E083E295E00E94A53510920F
:102D0000FD0308954F925F926F927F928F929F92F0
:102D1000AF92BF92CF92DF92EF92FF926091F70352
:102D20007091F8038091F9039091FA030E94911435
:102D30006B017C010E9477144B015C018092F703C8
:102D40009092F803A092F903B092FA03A091CE03F7
:102D5000EEECF3E08A2F90E04FEF5FEF60E070E081
:102D60004C195D096E097F09A91328C08093CE0311
:102D70008091FB03811135C090912305892F8370C9
:102D800019F0892F8695869590914C01913009F420
:102D900041C0992341F1923009F43FC0933009F4C6
:102DA0003FC0FF90EF90DF90CF90BF90AF909F908B
:102DB0008F907F906F905F904F900895218D328D0E
:102DC0002901712C612C441555056605770520F401
:102DD00081509F5F3296C8CF2C0D3D1D328F218FC1
:102DE000F8CF80E0D1CF10924E018092F204909201
:102DF000F304A092F404B092F50489E2EEECF3E05F
:102E0000A6EFB4E001900D928A95E1F781E08093FE
:102E10004C01C7CF0E94570EC4CF0E947307C1CF89
:102E20008091FD0381110E9477166091F2047091E8
:102E3000F3048091F4049091F5040E9491146031A0
:102E400071058105910508F4ACCF10924C01A9CF12
:102E5000809327059091FD03962B9093FD0390910D
:102E6000FC0390FF16C02FE531E0662311F021E648
:102E700031E01F928F933F932F9382E096E09F93D0
:102E80008F930E9458050F900F900F900F900F9006
:102E90000F900895FC0180818730B1F0883011F5E2
:102EA00081818238F9F480912705873238F08F3597
:102EB00038F08E3938F083E08283089580E0FCCFCB
:102EC00081E0FACF82E0F8CF8181823859F4E28143
:102ED0008FE7E43020F4F0E0E650FD4F808160E0C1
:102EE0000E94281708958091270520E1382F321B72
:102EF00008F430E0832F61E00E9428170895809144
:102F0000270520E1382F320F08F43FEF832F61E0CF
:102F10000E942817089530912305337071F1809332
:102F2000240560932505413A08F040EA40932605C0
:102F30003091FD03322B3093FD033091FC0330FFC1
:102F40001CC050E09927211119C02FE531E05F9393
:102F50004F931F926F939F938F933F932F938FED78
:102F600095E09F938F930E9458058DB79EB70A9660
:102F70000FB6F8949EBF0FBE8DBF089521E631E0D5
:102F8000E6CFE3E2F5E0438120E1421B08F440E0B4
:102F9000818121E0628190E00E948B170895E3E235
:102FA000F5E0438120E1420F08F44FEF818121E0F9
:102FB000628190E00E948B170895E3E2F5E0628160
:102FC00020E1621B08F460E0818121E0438190E010
:102FD0000E948B170895E3E2F5E0628120E1620F21
:102FE00008F46FEF818121E0438190E00E948B170C
:102FF0000895E3E2F5E0818121E043816281885018
:10300000990B0E948B170895E3E2F5E0818190E02F
:1030100021E04381628108960E948B170895909168
:103020002305937051F1811129C094609093230579
:1030300010924C018091FD03862B8093FD038091BB
:10304000FC0380FF1AC020912305269526958FE565
:1030500091E0662311F081E691E01F922F939F93F8
:103060008F9385EC95E09F938F930E9458050F9066
:103070000F900F900F900F900F900895833210F0E3
:103080009868D4CF880F880F982BD0CF80912305D4
:1030900086958695815009F482E261E00E940F18BE
:1030A000089580912305869586958F5F833208F079
:1030B00081E061E00E940F1808958091FC0380FF79
:1030C00008C081EA95E09F938F930E9458050F9066
:1030D0000F9085E3809323058091510190915201D7
:1030E000A09153018093240590932505A093260574
:1030F0008FE7809327058FEF809328050E9477162E
:103100000895B0E0A0E0E7E8F8E10C94D3347C0146
:103110005B01842E752E69018091740301E010E03B
:103120008A3010F40AE010E0C1E0D0E0B501C70138
:10313000F6010995982E811114C021960C171D07D0
:10314000B4F48091FC0380FF0CC07F928F9284EED8
:1031500092E09F938F930E9458050F900F900F90CD
:103160000F90892DCDB7DEB7EDE00C94EF34CC9FF6
:103170009001CD9F300D300D112490E080E045E3AB
:103180004A95F1F70000019628173907C1F7CECF0D
:10319000AFE0B0E0EEECF8E10C94D3348E010F5FB9
:1031A0001F4F8AE0D8011D928A95E9F786E3C82E61
:1031B00081E0D82EF12CE12CAA24A394B12C26E393
:1031C000822E21E0922EF60181916F018F3F09F44A
:1031D00042C0F894E82FE295EF70F0E021A18F70E3
:1031E000A50102C0440F551F8A95E2F7CA01922F2C
:1031F000982B91A392A18095892382A3789400C0F3
:10320000E0E3F1E0712C31E021912F3F09F46BC034
:10321000A22FA295AF70B0E090968C9190E02F70A5
:1032200002C0959587952A95E2F780FD5CC0832FB3
:10323000782A330F8E169F0639F7F6013197808171
:103240008F3F11F00E94A51050EA5A95F1F7F8014E
:10325000EE0DFF1D70828FEFE81AF80A95E0E9166F
:10326000F10409F0B0CF4AE050E0B80181EA93E000
:103270000E94D9357C01892B41F08AE0F801A1EA4E
:10328000B3E001900D928A95E1F71091AC03E1143F
:10329000F10459F181E080936B030E94050790933C
:1032A0006A03809369038091690390916A030E9485
:1032B000EA06059778F0A1EAB3E0E12FF0E0EC53DD
:1032C000FC4F86EA93E02D9121938A179B07D9F74B
:1032D00010926B0381E090E0E114F10451F02F961D
:1032E000EDE00C94EF3480E0A3CF80916B0381116B
:1032F000DACF0E944314D82EE091AC03DE011B9676
:103300007D01882309F495C085E01D928A95E9F72F
:103310000E2F10E00C531C4FC0907403B9E0BC1585
:1033200008F443C029ED30E248E651E0B701C80196
:103330000E948118882309F45BC024E83AE245E73B
:1033400051E0B701C8010E948118882309F450C0D8
:103350002EED3FE14DE751E0B701C8010E94811811
:10336000882309F445C02CE73FE148E851E0B70164
:10337000C8010E9481188823D9F1F9E0FC1508F4EE
:103380004FC0109274038091AB0390E045E050E091
:10339000B7018C539C4F0E94D93521E020937203D2
:1033A000892BC9F4D12C8D2D9ACF80916C039091EB
:1033B0006D030E94EA06843F914008F0B3CF8091EC
:1033C0007203882309F4A3C085E0D7011D928A9572
:1033D000E9F710927203A091AB03B0E0AC53BC4F7D
:1033E00085E0FE013B9601900D928A95E1F7DBCFD7
:1033F000809174038F3F29F08F5F809374038A302C
:1034000010F20E94050790936D0380936C038091E6
:10341000FC0380FFD4CF8EEA92E00E94BF04CFCF9E
:103420008091FC0380FFADCF8BE992E00E94BF0446
:10343000A8CFF0E0EC53FC4F85E0A7E8B3E00190A3
:103440000D928A95E1F765E070E087E893E00E94CD
:103450005707809386034091C00350E06091BF03FB
:1034600070E065547C4FC7010E94E6358B858093E0
:103470008D0361E070E0C7010E94570780938C03C1
:10348000C0908E03D0908F03E0909003F090910352
:1034900080916E0390916F03A0917003B0917103BE
:1034A000C816D906EA06FB06D1F0C0926E03D09288
:1034B0006F03E0927003F09271030E944314811134
:1034C0000EC00E94F906C61AD70AE80AF90AC09285
:1034D0009D03D0929E03E0929F03F092A00386E0AA
:1034E000E2E9F3E0A3E2B5E001900D928A95E1F7FD
:1034F00010919803112349F08091FB03811105C0BD
:103500000E94570E80E00E9473071093FB0380E037
:10351000E6CE0F931F93CF93DF9380916603909134
:103520006503892B8093000390916703992391F0A1
:10353000892B8093000320E082E093E0FC0131912D
:10354000CF0131112F5FF3E088309F07B9F72111C8
:103550000E947F1248E050E06DE573E080E093E068
:103560000E94D935892B09F441C088E0E0E0F3E0FE
:10357000ADE5B3E001900D928A95E1F7E091CC04BE
:10358000F091CD04309791F10280F381E02D80E03D
:1035900093E009958091FC0382FF28C080FF04C05E
:1035A00089E892E00E94BF04D0E0C0E003E812E0A6
:1035B0008091FC0380FF0EC0FE01E050FD4F808132
:1035C0001F928F931F930F930E9458050F900F9097
:1035D0000F900F902196C830D10551F78091FC03D0
:1035E00080FF04C081E892E00E94BF04DF91CF9188
:1035F0001F910F91089590E080E00E94410790E0B4
:1036000080E00E942B07109265030E94891A08959A
:10361000809322050E94FB1A089580912205982F1D
:103620009670963021F488600E94081B0895877F69
:10363000FBCF21E030E001C0220F8A95EAF7209508
:103640008091220582230E94081B089590915C03BB
:103650008095892380935C03282F277091F4282F6D
:10366000082E000C330B9217130659F09091AE03FD
:1036700092FF07C08595859585950E94191B10922C
:103680005C030895CF93DF93D82FC091AE03C2FBA4
:10369000882780F98D1711F1D0FBC2F9C093AE03D2
:1036A0006091AD0384E090E00E94B5356C2F82E21A
:1036B00090E00E94B53582E00E94261B8091FC03B9
:1036C00080FF0CC01F92DF938CE692E09F938F9354
:1036D0000E9458050F900F900F900F90DF91CF919F
:1036E000089521E030E001C0220F8A95EAF7809129
:1036F0002205822B0E94081B0895809368030E9474
:10370000FB1A089510926603E2E0F3E086E0DF0121
:103710001D928A95E9F70E94FB1A0895AAE2B0E08B
:10372000E4E9FBE10C94DD348AEE94E02091F100B1
:10373000DC012D93CD01B4E0823F9B07B9F7809166
:10374000EB04833009F472C0B8F4813009F449C045
:10375000823009F4B3C08091E80083FF91C2809168
:10376000EA049091EB049A3008F08AC2E92FF0E065
:10377000EC5EF94C0C9458358A3009F48EC08B30CD
:1037800009F471C0893039F78091EA04813219F760
:103790008091EE049091EF04009711F00297D9F612
:1037A0008091E800877F8093E8008091E80082FFA5
:1037B00038C09091F3008091F200029731F480912B
:1037C000F100813011F0863021F48091F100809376
:1037D000DD048091E8008B778093E8000E94DB0590
:1037E000BACF8091EA04813A09F0B5CF8091E80020
:1037F000877F8093E8008091EE049091EF04892BFD
:1038000061F468E08EED94E070E00E94870680919C
:10381000E8008B778093E8009ECF60E090E080E046
:10382000F3CF8091E8048111C0CF95CF8091EA0455
:10383000813A09F090CF8091EE049091EF04892BAA
:1038400009F089CF8091E800877F8093E80080911C
:10385000E80080FFFCCF80914D018093F1008091C2
:10386000E8008E77B9CF8091EA04813209F073CFF6
:103870008091EE049091EF04892B09F06CCF809138
:10388000E800877F8093E8000E94DB058091EC04CC
:1038900080934D010E94821B5ECF8091EA048132A9
:1038A00009F059CF8091E800877F8093E8000E945B
:1038B000DB058091ED048093DC044DCF8091EA0418
:1038C000813A09F048CF8091E800877F8093E80033
:1038D0008091E80080FFFCCF8091DC04BECF80386F
:1038E00099F0823809F0CCC18091EE048F70873056
:1038F00008F0C6C18093E9008091EB0085FB882722
:1039000080F91092E90006C08091E6049091E704E6
:10391000911182609091E800977F9093E8008093E6
:10392000F1001092F1008091E8008E77A5C1882304
:1039300009F493C1823009F0A3C18091EC04811194
:1039400096C18091EE048F702FEF280F263008F07B
:1039500097C18093E9002091EB0020FF88C193304C
:1039600031F48091EB0080628093EB0080C19091F4
:10397000EB0090619093EB0021E030E001C0220F5A
:103980008A95EAF72093EA001092EA008091EB0012
:103990008860EACF811174C11091EC041F77809187
:1039A000E3008078812B8093E3008091E800877F9B
:1039B0008093E8000E94DB058091E80080FFFCCF47
:1039C0008091E30080688093E30082E0111183E03E
:1039D0008093E80455C18058823008F051C120918D
:1039E000EC043091ED042C3DE3E03E07A1F583E0CB
:1039F0008A838AE289834FB7F894DE01139620E028
:103A00003EE051E2E32FF0E050935700E49120FFB5
:103A100003C0E295EF703F5FEF708E2F90E0EA30C9
:103A2000C0F0C7968D939D932F5F243159F74FBFF8
:103A30008091E800877F8093E8006AE270E0CE0121
:103A400001960E9487068091E8008B778093E800BA
:103A500017C1C096E7CF8091EE049091EF04432FF9
:103A600055274330510509F44AC078F541305105D6
:103A700009F47AC08BE790E0E5E3F8E042305105C5
:103A800009F0FEC02091E800277F2093E8002091F4
:103A9000F0043091F1048217930708F49C0140E090
:103AA0002115310509F065C0411163C08091E8001E
:103AB00082FDC9CF8091E804882329F2853019F26C
:103AC0008091E80083FFF2CFBECF4132510509F467
:103AD0003CC04232510509F0D3C08430910508F052
:103AE000CFC0FC01EE0FFF1FEE51FE4F0190F081A1
:103AF000E02D82529E4FDC018C9190E01AC033275A
:103B000021303105D1F02115310561F02230310528
:103B100009F0B6C0E2ECF8E0E4918E2F90E0E2EC20
:103B2000F8E007C0EEEEF8E0E4918E2F90E0EEEEC4
:103B3000F8E0009709F4A4C0A5CFEEEDF8E0E49119
:103B40008E2F90E0EEEDF8E0F4CF8430910508F090
:103B500097C0880F991FFC01E651FE4F0190F0813C
:103B6000E02D89E090E08ECF82E190E0E0EBF8E09C
:103B700089CF8091E804882309F465CF853009F462
:103B800062CF8091E80083FD5ECF8091E80082FDE6
:103B90008DCF8091E80080FF83CF9091F3008091DA
:103BA000F2002115310519F08830910550F041E0FF
:103BB000089709F040E08091E8008E778093E80054
:103BC0006FCF44914093F100319621503109019615
:103BD000E8CF803809F054C08091E800877F809357
:103BE000E8008091E9048093F1009DCE811148C0E6
:103BF0001091EC04123008F043C08091E800877FF8
:103C00008093E8001093E9040E94DB05112311F072
:103C100084E005C08091E30087FDFACF81E08093C6
:103C2000E80442E061EC81E00E94FA0542E261ECC6
:103C300084E00E94FA0542E261EC82E00E94FA050B
:103C400042E260EC83E00E94FA0542E261EC85E02A
:103C50000E94FA058091E80413C08091EC04813041
:103C600079F481E0933009F080E08093E7041092CA
:103C7000E9008091E800877F8093E8000E94DB05DF
:103C80008091E80083FF0AC08091E800877F8093DD
:103C9000E8008091EB0080628093EB00AA96E3E05D
:103CA0000C94F9340E94821B2FEF84E39CE0215096
:103CB00080409040E1F700C0000088E19CE00FB632
:103CC000F894A895809360000FBE90936000FFCF9A
:103CD000882321F00E9485120E94891A0895882362
:103CE00039F090916603982B909366030E94891A8D
:103CF0000895882391F19CEF980F913A80F4E2E0C7
:103D0000F3E028E033E09191891303C0DF011197BC
:103D10001C922E173F07B9F70E94891A089590E266
:103D2000980F983050F4877091E001C0990F8A95F0
:103D3000EAF7892F0E948512EFCF9BE5980F933009
:103D400028F490E080E00E9441070895885A873166
:103D500020F490E080E00E942B070895CF93C82FB5
:103D60008823B1F08CEF8C0F813A00F5E2E0F3E0AC
:103D700088E093E0DF012D91C21761F08A179B075D
:103D8000D1F76C2F80E093E00E9411070E94891AFE
:103D9000CF9108952191C21303C0DF0111971C92A6
:103DA0008E179F07B9F70E94891AEBCF80E28C0F1C
:103DB000883068F4C77021E030E001C0220FCA9556
:103DC000EAF780916603822B80936603DFCFEBE5F1
:103DD000EC0FE33040F4F0E0ED56FE4F808190E0D0
:103DE0000E944107D5CFC85AC73190F6EC2FF0E0BA
:103DF000EE0FFF1FEA56FE4F808191810E942B0734
:103E0000C7CF1F93CF93DF93182FD0E0C0E0893343
:103E100011F4C0E5D0E0812F0E94AE1E209739F446
:103E2000812F0E94791EDF91CF911F9108958FE914
:103E30009FE00197F1F700C000002197EFCF0F93AB
:103E40001F93CF93DF93C62FD42F022FFC018281C3
:103E50008823A9F0609321050E940507909320050F
:103E600080931F05C77081E001C0880FCA95EAF7EB
:103E70000E946F1EDF91CF911F910F910895809145
:103E80002105681332C080911F05909120050E9482
:103E9000EA06883C910548F510E21D0FCD17B9F0F0
:103EA00080E28C0F883040F4C77081E001C0880F39
:103EB000CA95EAF70E94681E183048F481E09D2FE9
:103EC000977001C0880F9A95EAF70E946F1E802FA5
:103ED0000E94011F183070F6D77081E001C0880F72
:103EE000DA95EAF70E94681EC5CFC77081E001C06D
:103EF000880FCA95EAF7F6CFA7E0B0E0E2E8FFE165
:103F00000C94DC3486E0E3E2F5E0DE0111960190EA
:103F10000D928A95E1F78091FB038F8347E050E093
:103F200062E973E0CE0101960E94D93500919903B0
:103F300010919A0320919B0330919C03EFB7F89462
:103F40004091D1045091D2046091D3047091D40473
:103F5000EFBF401B510B620B730B443651056105DB
:103F6000710518F411E0892B21F1809129019091BC
:103F70002A018A579C4F4091280150E04830510552
:103F800010F047E050E0BE016F5F7F4F0E94E635C2
:103F900085E090E00E945834182F882351F00E9449
:103FA000F9066093990370939A0380939B0390930F
:103FB0009C03812F2796E4E00C94F834A4E0B0E051
:103FC000E4EEFFE10C94DD344091820350918303D1
:103FD00060918403709185032FB7F8948091D10488
:103FE0009091D204A091D304B091D4042FBF841B2C
:103FF000950BA60BB70B11E084369105A105B10511
:1040000070F10E9477146E5F7F4F8F4F9F4F6983CF
:104010007A838B839C8380912101909122018A571E
:104020009C4F4091200150E04530510510F044E094
:1040300050E0BE016F5F7F4F0E94E63584E090E064
:104040000E945834182F882351F00E94F90660937B
:104050008203709383038093840390938503812F5D
:104060002496E3E00C94F9344F925F927F928F9202
:104070009F92AF92BF92CF92DF92EF92FF920F93F7
:104080001F93CF93DF930F92CDB7DEB7C62E4A01B1
:104090005901482E880F5508C2010E945834782EC5
:1040A000882309F480C0C20133E0880F991F3A9534
:1040B000E1F7FC01E050FF4F438150E0411551050D
:1040C00011F041E050E080509F4FFC016481758108
:1040D0006A577C4FCE0101960E94E635F40140817B
:1040E0005181628173812FB7F8948091D1049091AE
:1040F000D204A091D304B091D4042FBF841B950B9C
:10410000A60BB70B84369105A105B10540F4B701A4
:10411000C8010E9457079981891709F444C00C2CE3
:10412000000CDD08C6010E945834782E811113C09E
:10413000712C872D0F90DF91CF911F910F91FF90E0
:10414000EF90DF90CF90BF90AF909F908F907F9037
:104150005F904F900895C60123E0880F991F2A951C
:10416000E1F7FC01E050FF4F438150E0E416F50613
:1041700008F4A70180509F4FFC01648175816A5744
:104180007C4FC5010E94E635B701C8010E94570760
:1041900099818913CDCF0E94F906F4016083718360
:1041A00082839383C6CFA701B801C5010E94E6357B
:1041B000C0CFA5E0B0E0EFEDF0E20C94D8346B0195
:1041C00085E0E82EF12C07E813E09E012F5F3F4FBA
:1041D0004AE753E061E080E00E943420882349F000
:1041E00095E0FE013196A5E7B3E001900D929A9516
:1041F000E1F795E0E5E7F3E0D60101900D929A959D
:10420000E1F72596E8E00C94F43490E080E00E9419
:104210009F35883E9E4F19F40E945016089580E005
:10422000089568EE7EEF90E080E00E94D33560E074
:1042300082E090E00E94B53560E083E090E00E946B
:10424000B5351092680360E084E090E00E94B535D7
:1042500064E082E290E00E94B53560E085E090E0A5
:104260000E94B53560E086E090E00E94B5356FEFC2
:1042700087E090E00E94B53540E050E0BA0188E068
:1042800090E00E94C73560E08DE090E00E94B53577
:1042900040E050E0BA0188E190E00E94C73560E05C
:1042A00087E190E00E94B53540E050E0BA018CE132
:1042B00090E00E94C73570E060E080E290E00E94EC
:1042C000D33540E050E0BA0188E190E00E94C73564
:1042D00080E00E9448150E94611540E050E0BA015C
:1042E0008FE090E00E94C73540E050E0BA0183E1E2
:1042F00090E00E94C7350895A5E0B0E0E2E8F1E261
:104300000C94CF348C01FC0183819481892B31F092
:104310008081918189238F3F09F083C52596E1E152
:104320000C94EB340E94F415F82E682F89819A8141
:104330000E94031369817A818F2D0E94D9157C0117
:10434000F8018281882309F45FC5970122513F4516
:104350002031310508F02BC58FEF93E00E9497358F
:10436000811128C0FEEEEF0E57E2852E52E0952E09
:10437000E11032C01C821B82442443944AE0342E54
:1043800074018FEFE81AF80AC4010E9497358983F7
:104390001A82882379F09FEF980F933058F58A831B
:1043A000498292E0890E911CC7010E9497358B8348
:1043B000811121C080915C03877009F4AFCFF801AF
:1043C0008281882309F4AACF8091AE0382FFA6CF11
:1043D00082E00E94261BA2CF811424E0920651F3B2
:1043E000C4010E949735811101C0EA943FEF831AFE
:1043F000930ABECF4701FE0131967F01F70120816C
:10440000222309F4BDCF213009F047C09181828178
:10441000913031F4F2E0EF0EF11C0E94011F07C051
:10442000923049F422E0E20EF11C0E94AE1E3FEFF2
:10443000E31AF30AE3CF933031F432E0E30EF11CD8
:104440000E94791EF4CF943021F08FEFE81AF80A19
:10445000EECF92E0E90EF11C30E020E0B7016F5F93
:104460007F4FF70141818053990B8A30910550F0BD
:1044700021503109E0F28FE99FE00197F1F700C088
:104480000000F6CF329EF001339EF00D11249C0106
:104490002E0F3F1F842F7B01E1CFE22FF0E0EE567D
:1044A000FE4F5490822F86958695869590E0FC016C
:1044B000EE57FE4F64902770712C022E02C0759447
:1044C00067940A94E2F7E1E06E227724FC01EE584B
:1044D000FE4FA490B12C022E02C0B594A7940A946A
:1044E000E2F7F1E0AF22BB24FC01EE59FE4FC4908D
:1044F000D12C02C0D594C7942A95E2F721E0C222BC
:10450000DD246114710419F081EE0E94AE1EA11425
:10451000B10419F086EE0E94AE1E852D0E94011F87
:10452000A114B10419F086EE0E94791E6114710481
:1045300019F081EE0E94791EC114D10409F477CFDD
:104540008CE26BCF81E00E94711B0E940D1B32CF69
:1045500081E00E94191BF9CF82E0F5CF95EFE916B3
:104560009CE5F90609F46CC008F466C027E245EE44
:1045700066EEF6EFEF16FCE5FF0609F441C488236A
:1045800009F460C41092210523E0E2162DE5F2063D
:1045900008F05DC03AEFE3163CE5F30630F4C701DE
:1045A00082509C45449708F05EC00E946916909323
:1045B000AE038093AD03E1E1EE16ECE5FE0609F4EF
:1045C00038C108F0A6C029E0E2162CE5F20609F48D
:1045D0001EC108F06FC085E0E8168CE5F80609F406
:1045E0000AC108F058C0E3E0EE16ECE5FE0609F457
:1045F000F8C008F0FCC08091AD03816022E0E216B3
:104600002CE5F20609F4F0C06091AD03F090AE0322
:1046100084E090E00E94B5356F2D82E290E00E9428
:10462000B5350E94821BC6CE27E245EE65EEE8C393
:1046300026E241EE60EEE4C327E245EE64EEE0C31D
:1046400026E241EE62EEDCC328E241E0EFCF81E6F4
:10465000E8168DE5F80609F4A8CF95EAE9169DE578
:10466000F90609F4A2CF36E1E3163CE5F30609F0BA
:1046700002C4809166038A7A91E009F490E09093F5
:10468000080369E2811165E380E093E00E9411076D
:104690000E94891A8FCE8091AD03806237E0E316C5
:1046A0003CE5F30609F4A0C008F4ADC08091AD0369
:1046B00080649AC08091AD038B7F9DE0E9169CE5F4
:1046C000F90609F491C0B0F48091AD038E7FFBE050
:1046D000EF16FCE5FF0609F487C08091AD038C60FE
:1046E0002CE0E2162CE5F20608F47EC08091AD03C2
:1046F0008D7F7AC08091AD038F7E3FE0E3163CE56D
:10470000F30609F471C008F488C08091AD038F7D71
:104710006BC09DEFE9169CE5F90609F486C078F5B3
:10472000F5E1EF16FCE5FF0609F491C0A0F48091D5
:10473000AD03837F33E1E3163CE5F30609F454C08F
:1047400008F47BC00E94821B9091AD03892F97FBD8
:1047500087F9805849C09BEFE9169CE5F90609F4F2
:104760004EC008F05EC08091AE038160FAEFEF1694
:10477000FCE5FF0609F048CF8093AE0345CF21E06A
:10478000E2162DE5F20609F46EC0B8F48FEFE816D4
:104790008CE5F80609F457C08091AE038360E114FC
:1047A0009DE5F90648F38091AE03982F909591709E
:1047B0008E7F892B90FB81F9DFCFE1E6EE16EDE5E8
:1047C000FE0609F456C0F5EAEF16FDE5FF0609F40A
:1047D00057C022E0E2162DE5F20609F015CF60E0A1
:1047E00043C08091AD0382608093AD030DCF809173
:1047F000AD038460F9CF8091AD038860F5CF8091DF
:10480000AE038260B9CF8091AD038061EDCF0E948D
:10481000821B8091AD038068E7CF8091AD03877FD5
:10482000E3CF8091AE038E7FA7CF8091AE038D7FC3
:10483000A3CF8091AD038F7BD7CF0E94821B809145
:10484000AD038F77D1CF8091AE038C7F95CF8091D0
:10485000AD0382FB992790F921E0922790FB82F922
:1048600090FB83F9C1CF61E08EE090E00E94B53506
:10487000CBCE9091AD03892F8F7E94FF8061B4CF12
:104880009091AD03892F8E7F90FF8160ADCF85E33E
:10489000E4C246E458E161E578E10E946D078ACD03
:1048A00041E558E166E478E1F8CF49EF57E164E08B
:1048B00078E1F3CF44E058E169EF77E1EECF4DEDD9
:1048C00057E16BEE77E1E9CF4BEE57E16DED77E124
:1048D000E4CF4FEC57E161EC77E1DFCF43E757E1FD
:1048E0006FE777E1DACF4FE757E163E777E1D5CFBD
:1048F00061E081E00E940F185DCD61E08DE0FACFAC
:104900009091FC03892F8E7F90FF81608093FC0340
:1049100080FF05C08BE592E00E94BF044BCD89E487
:1049200092E0FACF0E9411210E94521E8091AE03A4
:1049300082FB882780F991E089270E94421BF801B9
:104940008281E080F180882309F445C0C7010E947C
:10495000F415D82E682FC7010E940313B7018D2DBF
:104960000E94D9150E94FF107C01882EF801D28088
:10497000B580B2943FE0B32280915C038770C1F0B0
:10498000AD2CDD20B1F08F2D807F803421F080E2CE
:104990008E0D883068F08091AE0382FF09C082E0FE
:1049A0000E94261B80915C038770AA24A394811126
:1049B000A12C9F2C92942FE09222FBE0F91508F491
:1049C00079C0E92DF0E0E25EF94C0C94583581E0B5
:1049D000B4CF80E0B2CFC7010E94BD12D82EBECFA7
:1049E0002F2D2F70C22E8F2D807F19F0C29490EF43
:1049F000C922DD20B9F0CC2069F080E28E0D88302C
:104A000010F0811009C080916603C82AC092660325
:104A10000E94891A8E2D4CC080916503C82AC092CD
:104A20006503F6CF8E2D0E94791ECC2009F442C07A
:104A300080E28E0D883010F0811004C08C2D0E9411
:104A4000851206C0C09480916503C822C092650398
:104A50000E94891A2FC03F2D3F70C32E8F2D807F5B
:104A6000803219F0C29480EFC822882089F081E05A
:104A7000881609F468C0DD2009F472C0BB2009F46F
:104A800068C0F801858180FFC5CF8F70858361C0C4
:104A90002091AE0322FD35C0DD2069F1CC2039F034
:104AA00080916603C82AC09266030E94891A80E03A
:104AB0000E94AE1E292D2850330B2430310510F4EE
:104AC0000E946614AA2009F429CC80915C0380FD21
:104AD00025CCF80112828595859585950E94711BDC
:104AE000C8010E947C2180915C0385958595859500
:104AF0000E94191B13CC80E00E94791ECC20D1F2B9
:104B00009DCFDD2099F0909167038C2D892BB110FA
:104B100003C00E946F1ECECFE1E0BE12FACF22FF8B
:104B2000C9CF981739F280936703C4CFB11006C07C
:104B30000E947F128C2D0E94681EBCCFF1E0BF1630
:104B400009F4B8CFF5CFDD2031F025E02B1508F4BE
:104B5000B1CF8C2DDECF34E03B1508F4ABCFEACFDC
:104B6000BB2041F3F9E38F1209C02FEF37EE83E04A
:104B7000215030408040E1F700C000008E2D0E949F
:104B8000791E98CF8F2D86958695837061F0813040
:104B900009F090CFC7019370D11002C090E080E07F
:104BA0000E942B0787CFC7019370D11002C090E0FD
:104BB00080E00E9441077ECF8F2D837091F5D11048
:104BC00079CF4E2D429546954770440F440F8E2D58
:104BD0008F70042E01C0880F0A94EAF72E2D2071E1
:104BE000E4FE07C02FE030E001C0220F4A95EAF74B
:104BF00020953F2D369536953370323069F050F45C
:104C000040916803313029F0822B84230E947D1B60
:104C100051CF842B822BFACF282B809168038227D7
:104C2000F5CF8695DD2011F08F2D8170882309F452
:104C300041CF4E2D429546954770440F440F8E2D1F
:104C40008F70042E01C0880F0A94EAF72E2D207170
:104C5000E4FE07C02FE030E001C0220F4A95EAF7DA
:104C600020953F2D369536953370323069F050F4EB
:104C700040912205313029F0822B84230E94081BA9
:104C800019CF842B822BFACF282B809122058227E3
:104C9000F5CF9F2D9F70F92EDD2029F0892F0E94DE
:104CA000711B8E2D36CF8E2D0E94681E8F2D0E9477
:104CB000191B00CF8E2DE2EF8E16B1F1E81570F0C2
:104CC000F0EF8F16D1F021EF821691F0DD2009F47C
:104CD0005EC0B1109FCE8F2D8F712AC033EF831627
:104CE00051F194EF8912F2CF8091AE0382FD2FC073
:104CF0008F2D8F71DD20D9F21BC0DD2081F0E4E023
:104D0000EB1508F4D7CE2F2D2F7181E090E001C074
:104D1000880F2A95EAF7909122058927AFCFF5E011
:104D2000FB1508F4C7CEEFCF8F2D8F71D110BFCFF9
:104D30000E94711BBFCE80E0DD2009F49FCF9F2D24
:104D40009F7181E001C0880F9A95EAF797CFDD2027
:104D500099F02F2D2F71F22E822F0E94711B8091BE
:104D6000AE0382FF07C038E0F39EC00111248360C8
:104D700080935C038F2DDCCF81E00E94261B81E0B5
:104D80008B1508F097CE82E00E94261B93CEBB20A5
:104D900059F0893309F0F2CE9FEFE7EEF3E091503E
:104DA000E040F040E1F7E8CE8F2D8F7180CFF0E149
:104DB000EF16FFE5FF0609F4C5CB21E1E2162FE56A
:104DC000F20609F4C9CB93EFE9169CE5F90609F45C
:104DD0002FCC08F0C3CBF8EDEF16FCE5FF0609F485
:104DE00023CC29EDE2162CE5F20609F42DCC37EDA3
:104DF000E3163CE5F30609F0C2CB26E241EE61EE94
:104E0000C8010E941F1FD6CA30E1E3163FE5F30632
:104E100009F49ECB91E1E9169FE5F906A1F682E03F
:104E200098CB85E0DE01119601900D928A95E1F70D
:104E3000F801228189819A81211174CA0E94BD12D0
:104E4000F82E78CAF6E1EF16FCE5FF0609F047C038
:104E50008091080381111BCD89E2E2E0F3E028E0B4
:104E600033E09191891303C0DF0111971C922E1733
:104E70003F07B9F70DCC2AE5E2162DE5F20609F455
:104E8000A6CDF0F481E0E8168CE5F80609F438CDFB
:104E90009EEDE9169CE5F90609F444CDE114ECE534
:104EA000FE0609F04CCD0E94821B8FEF94E3ECE0EC
:104EB00081509040E040E1F700C000000E94F813EC
:104EC000FCE5EF16FDE5FF0609F430CD08F481CDD1
:104ED00037EAE3163DE5F30609F426CD30CD80919F
:104EE000660382729AECE9169CE5F90609F4F1CCA6
:104EF00008F056C0F5ECEF16FCE5FF0609F4D5CC3A
:104F0000B0F533ECE3163CE5F30609F4C2CC08F047
:104F1000C7CCE2ECEE16ECE5FE0609F010CD809170
:104F20002305982F937021E092278C7F892B809303
:104F3000230510924C018091FD0381608093FD0355
:104F40008091FC0380FF36CA1F929F9381E691E017
:104F50009F938F9382E192E09F938F930E945805D5
:104F60000F900F900F900F900F900F9023CAF7ECB7
:104F7000EF16FCE5FF0609F4A2CC08F49BCC38EC54
:104F8000E3163CE5F30609F49FCC41EC57E16FECE6
:104F900077E199ECE9169CE5F90609F47ECCCFCCD3
:104FA000EFECEE16ECE5FE0609F4A7CCB8F42CEC19
:104FB000E2162CE5F20609F496CC08F48FCC8DECC1
:104FC000E8168CE5F80609F493CC61E085E09EECE8
:104FD000E9169CE5F90609F48DCCB1CCE6EDEE16A8
:104FE000ECE5FE0648F461E082E1F1EDEF16FCE548
:104FF000FF0608F47FCCDEC92DE5E216F20609F4BF
:10500000D9C99DCC1F93CF93DF9380912903807FD3
:1050100009F049C080912603882309F444C0809197
:105020005B03D0912A036091240370912503A09122
:105030002703B0912803C62FC72316E0D81799F18C
:1050400090E0109711F0CF3F19F401968770F6CFDA
:10505000189F9001199F300D1124F901E55DFC4F57
:1050600041814713F2CF40814613EFCF4281411176
:10507000ECCF438154814A1B5B0B483C510528F718
:10508000809129038F70806180932903F901E05D8D
:10509000FC4F80818F708061808384E293E00E9466
:1050A0007C210E948C12DF91CF911F910895A1E184
:1050B000B0E0EDE5F8E20C94D6348C0185E0F8011F
:1050C000DE011D9601900D928A95E1F7F801E280CC
:1050D00084E2A82E83E0B82E609127037091280304
:1050E0006115710509F426C19091240340912503AF
:1050F000892F84238F3F09F41DC120813181C38012
:10510000D480F0902603F601E61BF70BFF2009F48C
:10511000DCC080912903582F507FE83CF10508F04E
:105120009FC051116BC0FE2C431314C0921312C0C8
:10513000E11010C08F70806180932903C5010E9427
:105140007C2180912903F80185838F2D6196EAE007
:105150000C94F234C114D10429F0822F83238F3FA1
:1051600009F003C180E0F82FF170DF2E80FF3CC012
:1051700080915B0340912A0356E0841315C02D876C
:105180003E878D859E850E942316292F22952F709C
:105190002230F0F0243018F59F70F1F0F80195817D
:1051A000907FD1F4D12C1EC090E0589FF001599F00
:1051B000F00D1124E55DFC4F6181361306C060815E
:1051C000261303C06281E6120FC001968770D5CF07
:1051D0009F7011F0882331F3805E883018F3C80186
:1051E0000E947C21FD2CB1CFEE2009F4AECF80913E
:1051F0002903816080932903F12CA7CF431306C0B4
:10520000921304C0F801EE2009F479C0C8010E948D
:105210003016882309F1EE20F9F0809129038032BD
:1052200070F0209124033091250338872F8319864D
:10523000DB86CA868C87CE0107960E947C2186E099
:10524000F801A4E2B3E001900D928A95E1F70E9483
:105250000228FF24F39479CFC8010E947C21F9CF62
:1052600051110AC084E293E00E947C2186E0F5019E
:1052700011928A95E9F7C0CF43130FC092130DC066
:10528000E1100BC0F8018583C8010E947C2186E0F3
:10529000F50111928A95E9F758CFC8010E9430169E
:1052A0008823D1F2EE20C1F280912903803238F2B6
:1052B00020912403309125033A8329831B82DD82C8
:1052C000CC828E83CE010196B8CFE83CF105F8F68A
:1052D000FE2CEE2009F243131FC092131DC08091D3
:1052E000290380FD10C0982F907F69F0F801858315
:1052F000903F31F0982F907F905F8F70892B85833E
:10530000C8010E947C2186E0F801A4E2B3E001908C
:105310000D928A95E1F719CFC8010E9430168111CC
:105320008ECF80912903816080932903C8010E9458
:105330007C210BCFEE2009F48FCFC8010E943016DC
:10534000F82E882309F488CF86E0F801A4E2B3E0C0
:1053500001900D928A95E1F78091240390912503A5
:105360000E9423160E940228F0CE81E08E25FBCEFB
:10537000A7E1B0E0EEEBF9E20C94DD344B8B5C8BF3
:105380006D8B7E8B8F8B6111109265031A8A198A3F
:1053900085E0FE017396DE011D9601900D928A95BF
:1053A000E1F786E0FE013D96DE01179601900D9231
:1053B0008A95E1F7CE0107960E945728882359F075
:1053C00016E080915B0390912A03891343C067968E
:1053D000E3E00C94F93486E0FE013796DE01119685
:1053E00001900D928A95E1F78A859B85892B41F37F
:1053F0008F81988589238F3F19F320912A0330E00C
:10540000C90101968770992740915B0348171906D7
:1054100071F40E94821B10922A0310925B0386E0B3
:10542000E4E2F3E0DF011D928A95E9F7C9CF96E047
:10543000929FD001939FB00D1124A55DBC4FFE013A
:10544000319601900D929A95E1F780932A030E947C
:105450008C12B6CF819FC0011124855D9C4F0E94A4
:105460005728882309F4B3CF80915B0390E001961D
:105470008770992780935B03A4CFAAE0B0E0E3E4B0
:10548000FAE20C94DC34182F062F662399F10E945F
:1054900005071E832DEF2F8321E0288781609A87DF
:1054A00089874E815F81688579858A850E94B829C0
:1054B0008FE39FE10197F1F700C000000023F9F0AE
:1054C0000E94050719832DEF2A831B8281609D832B
:1054D0008C8349815A816B817C818D810E94B8299E
:1054E0008FE39FE10197F1F700C000002A96E4E006
:1054F0000C94F8340E9405071E832CEFCCCF0E9439
:10550000050719832CEFE0CFA1E0B0E0EAE8FAE26A
:105510000C94D734EE24E394F12C0DE813E09E01B3
:105520002F5F3F4F4EE753E063E082E00E9434205C
:10553000C82E882339F100E080E01DC0D090B00370
:10554000D00E2D2D30E0A90145545C4F7A01E1E0E9
:10555000F0E0EC0FFD1FE00FF11D1081FA019081CA
:10556000191BB12E1B149CF0912F17FD90E0191BF5
:10557000111118C00F5F9091AF030917F8F2811154
:105580000E947C128C2D2196E9E00C94F334BA949D
:10559000F70180818F5F808360E08D2D0E943D2A1E
:1055A0008C2DE0CF1F5FF70180818150808361E007
:1055B0008D2D0E943D2A8C2DDBCF1F920F920FB6AE
:1055C0000F9211242F933F934F935F936F937F9389
:1055D0008F939F93AF93BF93CF93DF93EF93FF93FB
:1055E000D091E900DF708091EC00C82FC17080FD80
:1055F000C0E81092E9008091F000877F8093F0006E
:1056000078940E948E1B1092E9008091F0008860CF
:105610008093F000CD2BCF70C093E900FF91EF9104
:10562000DF91CF91BF91AF919F918F917F916F91BA
:105630005F914F913F912F910F900FBE0F901F9050
:1056400018951F920F920FB60F9211242F933F932C
:105650004F935F936F937F938F939F93AF93BF937A
:10566000EF93FF938091E10082FF15C08091E200EB
:1056700082FF11C08091E1008B7F8093E100209137
:10568000DA042F5F822F62E30E940535992309F423
:10569000C0C02093DA048091DA0080FF28C0809196
:1056A000D80080FF24C08091DA008E7F8093DA00DA
:1056B0008091D90080FFE3C080E189BD82E189BD8E
:1056C00009B400FEFDCF81E08093E80481E298E018
:1056D0000E94BF048091DB04811109C00E94610512
:1056E0000E942C068091E20084608093E200809109
:1056F000E10080FF1BC08091E20080FF17C0809115
:10570000E2008E7F8093E2008091E20080618093CE
:10571000E2008091D80080628093D80019BC85E0B7
:105720008093E80489E298E00E94BF048091E10040
:1057300084FF2FC08091E20084FF2BC080E189BDEF
:1057400082E189BD89B5982F917080FFFBCF809150
:10575000D8008F7D8093D8008091E1008F7E809368
:10576000E1008091E2008F7E8093E2008091E20070
:1057700081608093E2008091E904882309F489C064
:1057800084E08093E8048DE298E00E94BF04809159
:10579000E8048091E10083FF2BC08091E20083FF49
:1057A00027C08091E100877F8093E10082E08093B1
:1057B000E8041092E9048091E1008E7F8093E1007B
:1057C0008091E2008E7F8093E2008091E200806110
:1057D0008093E20042E060E080E00E94FA05809160
:1057E000F00088608093F00081E398E00E94BF049D
:1057F000FF91EF91BF91AF919F918F917F916F91A9
:105800005F914F913F912F910F900FBE0F901F907E
:1058100018951092DA048091D904882309F43BCFBB
:105820008091E8048430C1F49091E9009F70209148
:10583000EC00822F817020FD80E8892B95E0909309
:10584000E9009091EB0090FF04C09091EE0097FD6D
:1058500008C08F708093E9001092D9041CCF109279
:10586000F1009091E80095FDFACF9091E80090FF4B
:10587000F0CF9091E8009E779093E800EACF19BCB2
:105880001092E80485E298E00E94BF041092DB04C5
:105890002ECF8091E30087FD93E09093E80473CFCF
:1058A00078941F921FB61F9211248F939F93AF93EA
:1058B000BF938091D1049091D204A091D304B09170
:1058C000D4040196A11DB11D8093D1049093D204FC
:1058D000A093D304B093D404BF91AF919F918F91C3
:1058E0001F901FBE1F9018951F921FB61F92112464
:1058F0008F939F93AF93BF938091D004811113C076
:105900008091D1049091D204A091D304B091D40499
:105910004196A11DB11D8093D1049093D204A09310
:10592000D304B093D404BF91AF919F918F911F90F6
:105930001FBE1F901895CDB7DEB7AD970FB6F89480
:10594000DEBF0FBECDBF85B7806885BF85B78068D5
:1059500085BF84B7877F84BF0FB6F894A8958091E0
:105960006000886180936000109260000FBE80E844
:1059700090E00FB6F89480936100909361000FBEA1
:1059800085E393E19093FF028093FE020E946105FC
:105990000E942C068091E20084608093E20078945B
:1059A0008091E8048823A1F01091E9001F70909184
:1059B000EC00892F817090FD80E8182B1092E9008F
:1059C0008091E80083FD0E948E1B1F701093E900F8
:1059D00082E084BD93E095BD9AEF97BD80936E0001
:1059E00010929D0310929E0310929F031092A003A9
:1059F0000E945016811102C00E9461150E945E0B28
:105A000080933B010E94431481110E946C3380916A
:105A10003B0181112CC085E0E4E5F1E0DE019196C7
:105A200001900D928A95E1F789A1809336018AA1B0
:105A3000809337018BA1809338018CA18093390129
:105A40008DA180933A0186E0E9E5F1E0DE0111964F
:105A500001900D928A95E1F7FE013196A0E3B1E045
:105A6000CE01079621912D93E817F907D9F7809178
:105A70003B0195E0811190E09093AC0385E0891B98
:105A80008093AB0306E311E0D8018D918D018F3F28
:105A900011F00E94A510B1E00B331B07A9F700E33A
:105AA00011E0F80181918F018F3F11F00E94A51044
:105AB000F1E006331F07A9F78AE0E4ECF3E0DF0129
:105AC000282F1D922A95E9F7E1EAF3E0DF011D9204
:105AD0008A95E9F70E940521811102C00E941121D7
